:0C0000000C942F000C9466020C94750206
:040010000C94EB0061
:040024000C945000E8
:140048000A02060405010908A02060405010908000000000A7
:14005C000101CFE5D4E0CDBFDEBFC051D0400AEA0883002439
:14007000E6E7F0E010E0E239F10711F00192FBCF0083E8E42F
:14008400F0E0A0E6B0E010E0EE35F10721F0C89531960D92A3
:14009800F9CF0E94EE02FFCF0E94B2030E94AE032090800052
:1400AC00309082003214E9F0209074002220A1F420908000B4
:1400C00030908200321434F4809182008F5F8093820005C0A1
:1400D4008091820081508093820081E08093740080917400B2
:1400E80081508093740020908200222009F45CC02224309019
:1400FC008200231424F481E090E05C0103C08FEF9FEF5C01C5
:14011000809190008A0D87708093900002E01A2D01021001CC
:14012400442437FC4094552447FC509480908A0090908B0073
:140138006090880070908900620C731C841C951C70928900D9
:14014C006092880090928B0080928A002A2C332427FC309448
:14016000442437FC4094552447FC509480908600909087003F
:140174006090840070908500620C731C841C951C70928500A9
:1401880060928400909287008092860088E690E0E0919000CD
:14019C00FF27E7FDF095E80FF91F208085B38F70822985BBEF
:1401B00000918200112707FD10950E947703180102E010E040
:1401C40091010E947D0302BF0E9490030E94C90318950E94C0
:1401D800B2030E94AE0320908100309083003214E9F02090C8
:1401EC0075002220A1F42090810030908300321434F48091C0
:1402000083008F5F8093830005C08091830081508093830023
:1402140081E0809375008091750081508093750020908300DB
:14022800222009F45CC0222430908300231424F481E090E0BE
:14023C005C0103C08FEF9FEF5C01809191008A0D87708093E2
:14025000910002E01A2D01021001442437FC4094552447FCA1
:14026400509480908E0090908F0060908C0070908D00620CDE
:14027800731C841C951C70928D0060928C0090928F008092C2
:14028C008E002A2C332427FC3094442437FC4094552447FC11
:1402A000509480908600909087006090840070908500620CC2
:1402B400731C841C951C70928500609284009092870080929E
:1402C800860080E690E0E0919100FF27E7FDF095E80FF91F26
:1402DC00208085B3807F822985BB00918300112707FD109557
:1402F0000E947703180102E010E091010E947D0304BD0E94DC
:1403040090030E94C903189586E08ABB8FE087BB8FEF84BB1E
:14031800222421BA089584E083BF89B7816089BF222422BEDE
:14032C00089586E085BD89B7806489BF222424BC08958BB707
:1403400080648BBF8BB780688BBF8FE085BF08950E94AA0368
:140354002224209291002092900020928300209282002092AF
:1403680081002092800040E050E060E070E0509389004093AF
:14037C00880070938B0060938A0040E050E060E070E0509317
:140390008D0040938C0070938F0060938E0040E050E060E0CA
:1403A40070E0509385004093840070938700609386000E9491
:1403B8008D03089586E08BBB089522242BBA089522242092FB
:1403CC00810020928000209083002220E1F7209082002220A9
:1403E000C1F70895F1DFEDCF0E94930309C040ED57E01A01A8
:1403F400415050402220D9F73320C9F71801015010402220B3
:1404080091F7332081F70E94960308950E94AA0380E58093EE
:14041C00800080EB8093810040E050E060E070E05093890001
:140430004093880070938B0060938A00180144245524809048
:140444008A0090908B006090880070908900621473048404F9
:14045800950484F30E948D0308950E94AE03580180EB809387
:14046C00800080E580938100A3DF40E050E060E070E05093BE
:140480008D0040938C0070938F0060938E0015014424552472
:1404940080908E0090908F0060908C0070908D006214730411
:1404A8008404950484F30E949003089504EF11E0ADCF08EE80
:1404BC0013E0AACF04EF11E0CECF08EE13E0CBCF8A939A9372
:1404D0008FB78A9381E090E0909373008093720089918FBF61
:1404E4009991899118958A939A938FB78A9381E090E0909372
:1404F80071008093700089918FBF9991899118950E94AE0350
:14050C00580124974090860050908700209084003090850091
:14052000FE012082318242825382C5018030E0E09E07FCF40F
:1405340002E010E09C010E947D031801442437FC4094552421
:1405480047FC5094FE01608071808280938062187308840812
:14055C009508608271828282938280EB80938000809381006E
:140570001EC002E010E095010E947D031801442437FC409487
:14058400552447FC5094FE016080718082809380620C731CE1
:14059800841C951C608271828282938280E580938000809305
:1405AC00810006DFFE0120803180428053808090860090903A
:1405C00087006090840070908500621473048404950474F332
:1405D40024960E94900308952224332430927D0020927C007D
:1405E80084E090E09093790080937800F894ACDE89DEA1DE08
:1405FC0090DE97DE789408EE13E0F0DE0AE010E07DDF08E81F
:1406100013E1EADED9DE04E110E023DF08E813E1E3DED2DE37
:140624000AE010E06FDF08E813E1DCDECBDE04E110E0EEDEB2
:1406380008E813E1D5DEC4DE22243324309279002092780073
:14064C0043C02090720030907300222011F43320B1F0B4DE75
:140660000BEF1FEF51DF08EE13E0BEDEADDE222433243092DF
:1406740073002092720005E010E0F1DE08EE13E0B1DEA0DE41
:1406880025C02090700030907100222011F43320B1F096DE79
:14069C000BEF1FEF33DF08EE13E0A0DE8FDE222433243092FD
:1406B00071002092700005E010E0ACDE08EE13E093DE82DE8A
:1406C40007C005E010E01EDF08EE13E08BDE7ADE20907800B7
:1406D8003090790040907C0050907D00421453040CF4B1CFFF
:1406EC007BCE17FF0895109501951F4F08950A921A928A9353
:140700009A93029FC001129F900D039F900D8C0199918991F8
:14071400199009900895E2E00C949703E4E00C9497035A930B
:140728004A930895E1E049915991E0FD089569917991E1FD62
:14073C000895A990B990E2FD0895C990D990E3FD0895E99056
:14075000F99008957A936A930C949303BA92AA920C94AA035A
:14076400FA93EA93BA93AA939A938A933A932A931A930A93CF
:140778009A928A927A926A925A924A923A922A921A920A9285
:14078C000FB60A92089509900FBE0990199029903990499058
:1407A000599069907990899099900991199129913991899136
:0C07B4009991A991B991E991F9910895EA
:00000001FF
