:100000000C945B000C947C020C94A9020C94830069
:100010000C9483000C9483000C9483000C94830054
:100020000C9483000C9483000C9483000C94830044
:100030000C9483000C9483000C9483000C94830034
:100040000C94D6020C9483000C942A040C94830024
:100050000C9483000C9483000C9483000C94830014
:100060000C9483000C948300000024272A000025B0
:10007000282B000023262904040404040404040299
:100080000202020202030303030303010204081035
:100090002040800102040810200102040810200002
:1000A0000000070002010000030406000000000039
:1000B000000000005E0111241FBECFEFD4E0DEBFC0
:1000C000CDBF11E0A0E0B1E0E6EAF9E002C00590A2
:1000D0000D92A830B107D9F711E0A8E0B1E001C056
:1000E0001D92AE39B107E1F710E0C6EBD0E004C0D5
:1000F0002297FE010E94CD04C43BD107C9F70E949C
:1001000057010C94D1040C9400009F92AF92BF92BF
:10011000CF92DF92EF92FF920F931F93CF93DF93D3
:10012000982EEE24FF248701AA24BB246501C62F44
:10013000D0E01AC061E0892D0E94800315B860E00C
:10014000892D0E94800305C00894E11CF11C011D4B
:10015000111D83B190E08C239D23892BA9F3089472
:10016000A11CB11CC11CD11C80910E0190910F01EA
:10017000A0911001B091110126B5BA2FA92F982F87
:100180008827820F911DA11DB11D32E0880F991F94
:10019000AA1FBB1F3A95D1F780549C49A040B0409C
:1001A00048F210920E0110920F011092100110925D
:1001B000110116BC902F8F2D7E2D6627A60195016B
:1001C0000E947A04CA01B901DF91CF911F910F916A
:1001D000FF90EF90DF90CF90BF90AF909F900895E9
:1001E000EF92FF920F931F9361E088E090E00E94EE
:1001F0008500AB01BC0108E011E02AE030E0C80155
:100200000E945C0250E0E52E51E0F52EB701C801D6
:100210000E946E0162E089E090E00E948500AB01DF
:10022000BC012AE030E0C8010E945C02B701C801AD
:100230000E946E0164E08AE090E00E948500AB01BC
:10024000BC012AE030E0C8010E9471021F910F91A9
:10025000FF90EF9008951F9340E052EC61E070E052
:1002600088E091E00E94690112E061E0812F0E9424
:10027000800360E0812F0E949E031F5F1E30A9F75C
:1002800060E088E00E94800360E089E00E948003D3
:1002900060E08AE00E94800310920E0110920F012C
:1002A000109210011092110116BC1F9108950E9426
:1002B00046030E942B010E94F000FDCF86E091E0F2
:1002C00090930901809308010895862F0E942204CB
:1002D0000895CB01BA010E94E90308950F931F937B
:1002E000CF93DF938C01EB0109C02196D801ED91EA
:1002F000FC910190F081E02DC80109956881662389
:10030000A1F7DF91CF911F910F9108950F931F9344
:100310008C01DC01ED91FC910190F081E02D6DE00C
:100320000995D801ED91FC910190F081E02D6AE0F2
:10033000C80109951F910F9108952F923F924F92F6
:100340005F926F927F928F929F92AF92BF92CF9265
:10035000DF92EF92FF920F931F93DF93CF93CDB76E
:10036000DEB7A0970FB6F894DEBF0FBECDBF1C015D
:100370006A017B01411551056105710549F4DC01F4
:10038000ED91FC910190F081E02D60E3099554C05E
:10039000882499245401422E55246624772401E0B0
:1003A00010E00C0F1D1F080D191DC701B601A30198
:1003B00092010E947A04F80160830894811C911CC8
:1003C000A11CB11CC701B601A30192010E947A04CD
:1003D000C901DA016C017D01C114D104E104F10409
:1003E000F1F681E0E82EF12CEC0EFD1EE80CF91C74
:1003F0003E010894611C711CD501C4010197A1093B
:10040000B1096C01C818D90814C0F601EE0DFF1D22
:1004100060816A3010F4605D01C0695CD101ED91CA
:10042000FC910190F081E02DC10109950894E1084B
:10043000F1086E147F0449F7A0960FB6F894DEBF5A
:100440000FBECDBFCF91DF911F910F91FF90EF9025
:10045000DF90CF90BF90AF909F908F907F906F90E4
:100460005F904F903F902F900895EF92FF920F93DF
:100470001F93CF93DF93EC017A018B0177FF0FC0BD
:10048000E881F9810190F081E02D6DE209951095E8
:100490000095F094E094E11CF11C011D111D2AE06F
:1004A000B801A701CE010E949D01DF91CF911F915C
:1004B0000F91FF90EF900895DC012115310541F473
:1004C000ED91FC910190F081E02D642F0995089544
:1004D0002A30310519F40E94350208950E949D01C9
:1004E00008950F931F938C010E945C02C8010E9423
:1004F00086011F910F9108951F920F920FB60F92D0
:1005000011242F933F934F935F936F937F938F9318
:100510009F93AF93BF93EF93FF9380910A019091C4
:100520000B01892B29F0E0910A01F0910B0109954B
:10053000FF91EF91BF91AF919F918F917F916F91BB
:100540005F914F913F912F910F900FBE0F901F9091
:1005500018951F920F920FB60F9211242F933F936D
:100560004F935F936F937F938F939F93AF93BF93BB
:10057000EF93FF9380910C0190910D01892B29F04D
:10058000E0910C01F0910D010995FF91EF91BF9160
:10059000AF919F918F917F916F915F914F913F911B
:1005A0002F910F900FBE0F901F9018951F920F92D2
:1005B0000FB60F9211242F938F939F93AF93BF93F6
:1005C00080910E0190910F01A0911001B091110145
:1005D0000196A11DB11D80930E0190930F01A09370
:1005E0001001B09311018091120190911301A0911B
:1005F0001401B09115018050904CAF4FBF4F8093C4
:10060000120190931301A0931401B093150127C018
:100610008091120190911301A0911401B0911501E4
:1006200080589E43A040B0408093120190931301E4
:10063000A0931401B09315018091160190911701B8
:10064000A0911801B09119010196A11DB11D8093CF
:10065000160190931701A0931801B093190180918E
:10066000120190911301A0911401B09115018158CC
:100670009E43A040B04060F6BF91AF919F918F9193
:100680002F910F900FBE0F901F901895789484B5FE
:10069000826084BD84B5816084BD85B5826085BD7E
:1006A00085B5816085BDEEE6F0E080818160808364
:1006B000E1E8F0E0808182608083808181608083D6
:1006C000E0E8F0E0808181608083E1EBF0E0808110
:1006D00084608083E0EBF0E0808181608083EAE7E2
:1006E000F0E080818460808380818260808380816B
:1006F000816080838081806880831092C10008952A
:10070000282F30E0C90185579F4FFC01949129584B
:100710003F4FF9018491882381F0E82FF0E0E859F8
:10072000FF4FE491F0E0662329F4808190958923BE
:10073000808308958081892B80830895482F50E01D
:10074000CA0181569F4FFC012491CA0185579F4FD2
:10075000FC01949149585F4FFA0134913323C1F160
:10076000222331F1233021F4809180008F7705C05E
:10077000243031F4809180008F7D8093800018C0F8
:10078000213019F484B58F7704C0223021F484B568
:100790008F7D84BD0DC0263021F48091B0008F770D
:1007A00005C0273029F48091B0008F7D8093B00080
:1007B000E32FF0E0E359FF4FE491F0E0662329F4E2
:1007C000808190958923808308958081892B8083FF
:1007D0000895EF92FF920F931F937B018C0122E00B
:1007E00030E040E050E00E949C04205C3D4B404FD4
:1007F0005F4FCA01B901A80197010E949C04C90179
:10080000DA010197A109B109292F3A2F4B2F55275A
:1008100047FD5A950196A11DB11D2093C500815039
:100820008093C400E1ECF0E080818061808380816E
:10083000886080838081806880831F910F91FF9002
:10084000EF900895982F8091C00085FFFCCF909382
:10085000C60008951F920F920FB60F9211242F9386
:100860003F934F935F936F937F938F939F93AF9338
:10087000BF93EF93FF934091C600E0911A01F0916E
:100880001B01CF01019660E870E00E9467049C01A3
:1008900080911C0190911D012817390739F0E25E03
:1008A000FE4F408330931B0120931A01FF91EF917B
:1008B000BF91AF919F918F917F916F915F914F9178
:1008C0003F912F910F900FBE0F901F90189597FB9F
:1008D000092E07260AD077FD04D049D006D0002083
:1008E0001AF4709561957F4F0895F6F7909581956C
:1008F0009F4F0895A1E21A2EAA1BBB1BFD010DC03C
:10090000AA1FBB1FEE1FFF1FA217B307E407F507BF
:1009100020F0A21BB30BE40BF50B661F771F881F9B
:10092000991F1A9469F760957095809590959B0131
:10093000AC01BD01CF01089597FB092E05260ED00D
:1009400057FD04D0D7DF0AD0001C38F450954095ED
:10095000309521953F4F4F4F5F4F0895F6F7909593
:100960008095709561957F4F8F4F9F4F0895AA1B7B
:10097000BB1B51E107C0AA1FBB1FA617B70710F08A
:10098000A61BB70B881F991F5A95A9F780959095BC
:10099000BC01CD010895EE0FFF1F0590F491E02DED
:0609A0000994F894FFCF5A
:0809A6002000000000006501C3
:00000001FF
