:100000000C945B000C9483000C9483000C9483008C
:100010000C9483000C9483000C9483000C94830054
:100020000C9483000C9483000C9483000C94830044
:100030000C9483000C9483000C9483000C94830034
:100040000C948C020C9483000C9483000C94830019
:100050000C9483000C9483000C9483000C94830014
:100060000C9483000C948300000024272A000025B0
:10007000282B000023262904040404040404040299
:100080000202020202030303030303010204081035
:100090002040800102040810200102040810200002
:1000A0000000070002010000030406000000000039
:1000B00000000000350211241FBECFEFD4E0DEBFE8
:1000C000CDBF11E0A0E0B1E0E4EAF8E002C00590A5
:1000D0000D92A030B107D9F711E0A0E0B1E001C066
:1000E0001D92A631B107E1F710E0C6EBD0E004C0E5
:1000F0002297FE010E944D04C43BD107C9F70E941C
:1001000085020C9451040C940000FC0110828FEFC6
:1001100081831382128282E2848386E98583178237
:1001200016820895FC0110828FEF81831382128260
:1001300082E2848386E9858317821682089524E00B
:10014000769567952A95E1F7FC016483089534E07C
:10015000769567953A95E1F7FC0165830895A0E0EF
:10016000B1E00CC0E817F90739F4868197818D93C7
:100170009C93178216820895DF011696ED91FC91EB
:100180001197309779F70895EF92FF920F931F938D
:10019000CF93DF93EC0177FF03C060E070E005C010
:1001A000653B710514F064EB70E06983EC81EE2E21
:1001B000FF2400271127102F0F2DFE2CEE24772768
:1001C000882799272D8133272E1B3109442737FD96
:1001D0004095542F542F432F322F22270E94EF0394
:1001E00024EB30E040E050E00E943004E20EF31EC9
:1001F000041F151FC801B70120E430E040E050E0C3
:100200000E9430043B832A83DF91CF911F910F918D
:10021000FF90EF900895FC01818199270895E09166
:100220000001F091010109C0E817F90719F481E014
:1002300090E008950680F781E02D3097A9F780E0DF
:1002400090E008958F929F92AF92BF92CF92DF92EB
:10025000EF92FF920F931F93CF93DF93CDB7DEB74B
:100260008DB69EB60E94B102209102013091030129
:1002700040910401509105016217730784079507A7
:1002800050F02C5E3F4F4F4F5F4F6217730784074C
:10029000950708F4ADC06093020170930301809349
:1002A000040190930501E0910001F0910101BB244C
:1002B00008C082819381892B09F0B3940680F7816D
:1002C000E02D3097B1F7BB2009F492C08B2D992710
:1002D000880F991F2DB73EB7281B390B0FB6F8941E
:1002E0003EBF0FBE2DBFCDB6DEB60894C11CD11CDB
:1002F000A0910001B091010120E011C0FD018281B7
:100300009381892B49F0E22FFF27EE0FFF1FEC0DA1
:10031000FD1DB183A0832F5FFD01A681B7811097DA
:1003200069F700E011E025C0812F9927DC01AA0FB1
:10033000BB1FAC0DBD1D6D917C9111977C01089484
:10034000E108F108EE0CFF1CEC0CFD1CF7014081EC
:100350005181FB0122813381FA0182819381281727
:10036000390730F44D935C93F7017183608301E0AA
:100370001F5F1B15C9F60023A1F610E00EC0E12F88
:10038000FF27EE0FFF1FEC0DFD1D0190F081E02D0A
:1003900061E080810E94A4031F5F1B1581F746B5B1
:1003A000A42E00E0EE24FF2421C0E02FFF27EE0F53
:1003B000FF1FEC0DFD1D0190F081E02D22813381A6
:1003C0002A0D311D16B5141720F480E091E0E80ED7
:1003D000F91E412FC701810F911D2817390790F78A
:1003E00060E080810E94A4030F5F412F0B15E9F6A6
:1003F0000FB6F8949EBE0FBE8DBEDF91CF911F91B8
:100400000F91FF90EF90DF90CF90BF90AF909F90B3
:100410008F9008950F931F938C01FC0160838FEFE1
:100420008183138212828091000190910101978350
:100430008683109301010093000160E080810E9497
:10044000A40361E0F80180810E943A0381E090E01A
:100450001F910F910895019739F46F5F7F4F21F439
:1004600086E091E00E94920008956FEF7FEF81E0B7
:1004700090E00E942B02089580911001909111014B
:1004800020910E0130910F01892B19F42F5F3F4FFE
:1004900002C02150304030930F0120930E01809113
:1004A0000E0190910F01009729F410921101109202
:1004B000100109C0843B910531F481E090E09093F4
:1004C0001101809310016AE070E080E090E00E94EA
:1004D000C90260910E0170910F0186E091E00E94C7
:1004E000C4000E942201C8CF0F931F9306E011E0C1
:1004F0006EE070E0C8010E940A0268E978E0C80175
:100500000E94A7001F910F9108950E94F8020E9477
:1005100074020E943C02FDCF1F920F920FB60F9201
:1005200011248F939F93AF93BF9380911201909169
:100530001301A0911401B09115010196A11DB11DE7
:100540008093120190931301A0931401B0931501AD
:10055000BF91AF919F918F910F900FBE0F901F9001
:10056000189560911201709113018091140190917E
:10057000150127E0660F771F881F991F2A95D1F76D
:100580002DE730E040E050E00E940E04CA01B901BE
:100590000895AF92BF92CF92DF92EF92FF920F93A6
:1005A0001F935B016C010E94B1027B018C010E94D0
:1005B000B1026E197F09800B910B6A157B058C05C2
:1005C0009D05A8F31F910F91FF90EF90DF90CF90C2
:1005D000BF90AF900895019751F0880F991F880F31
:1005E000991F02972FB7F8940197F1F72FBF08953D
:1005F000789410921201109213011092140110922B
:10060000150184B5826084BD84B5816084BD85B5E3
:10061000826085BD85B5816085BDEEE6F0E08081B4
:1006200081608083E1E8F0E0808182608083808166
:1006300081608083E0E8F0E0808181608083E1EB8D
:10064000F0E0808184608083E0EBF0E08081816075
:100650008083EAE7F0E0808184608083808182602B
:100660008083808181608083808180688083109214
:10067000C1000895282F3327C90185579F4FFC01DA
:10068000949129583F4FF9018491882381F0E82FF4
:10069000FF27E859FF4FE491FF27662329F4808163
:1006A00090958923808308958081892B8083089584
:1006B000482F5527CA0181569F4FFC012491CA013A
:1006C00085579F4FFC01949149585F4FFA0134912F
:1006D000332319F480E090E00895222331F1233090
:1006E00021F4809180008F7705C0243031F480910F
:1006F00080008F7D8093800018C0213019F484B56C
:100700008F7704C0223021F484B58F7D84BD0DC065
:10071000263021F48091B0008F7705C0273029F46E
:100720008091B0008F7D8093B000E32FFF27EE58BB
:10073000FF4FE491FF27808120E030E0892311F012
:1007400021E030E0C9010895482F5527CA0181569C
:100750009F4FFC012491CA0185579F4FFC01949142
:1007600049585F4FFA0134913323C1F1222331F10B
:10077000233021F4809180008F7705C0243031F43C
:10078000809180008F7D8093800018C0213019F403
:1007900084B58F7704C0223021F484B58F7D84BD69
:1007A0000DC0263021F48091B0008F7705C027302E
:1007B00029F48091B0008F7D8093B000E32FFF2754
:1007C000E359FF4FE491FF27662329F48081909538
:1007D0008923808308958081892B80830895629F77
:1007E000D001739FF001829FE00DF11D649FE00D29
:1007F000F11D929FF00D839FF00D749FF00D659F8A
:10080000F00D9927729FB00DE11DF91F639FB00D88
:10081000E11DF91FBD01CF0111240895A1E21A2E97
:10082000AA1BBB1BFD010DC0AA1FBB1FEE1FFF1F94
:10083000A217B307E407F50720F0A21BB30BE40BE4
:10084000F50B661F771F881F991F1A9469F760952B
:100850007095809590959B01AC01BD01CF010895E5
:1008600097FB092E05260ED057FD04D0D7DF0AD0FE
:10087000001C38F450954095309521953F4F4F4FCF
:100880005F4F0895F6F790958095709561957F4F2D
:100890008F4F9F4F0895EE0FFF1F0590F491E02DAD
:0408A0000994FFCFE9
:00000001FF
