:100000000C946B000C94C0060C94ED060C949300B9
:100010000C9493000C9493000C9493000C94930014
:100020000C9493000C9438010C9493000C9493005E
:100030000C9493000C9493000C9493000C949300F4
:100040000C941A070C9493000C94B7080C9493002A
:100050000C9493000C9493000C9493000C949300D4
:100060000C9493000C94930005A84CCDB2D44EB9D7
:100070003836A9020C50B9918688083CA6AAAA2A4B
:10008000BE000000803F000024272A000025282B06
:1000900000002326290404040404040404020202C8
:1000A00002020203030303030301020408102040B9
:1000B0008001020408102001020408102000000042
:1000C0000700020100000304060000000000000019
:1000D00000002202FF0411241FBECFEFD4E0DEBFD8
:1000E000CDBF11E0A0E0B1E0E6E5F8E102C0059087
:1000F0000D92AC33B107D9F712E0ACE3B1E001C027
:100100001D92AB31B107E1F710E0C6EDD0E004C0BD
:100110002297FE010E94250CC23DD107C9F70E941B
:1001200062030C94290C0C9400000F931F938B0115
:100130009C01809170008E7F809370008091B00050
:100140008C7F8093B0008091B100877F8093B10055
:100150008091B6008F7D8093B600809170008D7F76
:10016000809370008091B10084608093B100809191
:10017000B1008C7F8093B10086E090E090934801BD
:1001800080934701011511052105310569F481E0CE
:1001900090E0A0E0B0E080933C0190933D01A093FB
:1001A0003E01B0933F0108C000933C0110933D0114
:1001B00020933E0130933F01509341014093400111
:1001C0001F910F91089510924201109243011092D5
:1001D000440110924501109246018091470190918F
:1001E00048018093B200E0E7F0E080818160808385
:1001F00008958091420190914301A0914401B091F2
:1002000045010196A11DB11D8093420190934301C8
:10021000A0934401B09345012091420130914301E4
:10022000409144015091450180913C0190913D01E4
:10023000A0913E01B0913F01281739074A075B079B
:10024000B0F080914601882391F481E080934601CB
:100250001092420110924301109244011092450104
:10026000E0914001F09141010995109246010895F5
:100270001F920F920FB60F9211242F933F934F931B
:100280005F936F937F938F939F93AF93BF93EF93FE
:10029000FF9380914701909148018093B2000E94A2
:1002A000F900FF91EF91BF91AF919F918F917F9155
:1002B0006F915F914F913F912F910F900FBE0F90D3
:1002C0001F901895FC0110828FEF81830895EF92A3
:1002D000FF920F931F93CF93DF93EC019B0177FF66
:1002E00003C020E030E005C0653B710514F024EB4D
:1002F00030E02983EA806B8170E06E1971098827EC
:1003000077FD8095982F982F872F762F662730E0DE
:1003100040E050E00E94A00B24EB30E040E050E0D1
:100320000E94F40BFF2400E010E0102F0F2DFE2C94
:10033000EE24E20EF31E041F151FC801B70128E0CA
:1003400030E040E050E00E94F40B8881893029F4CD
:10035000309389002093880006C08A3021F43093BE
:100360008B0020938A00DF91CF911F910F91FF9016
:10037000EF900895CF93DF93EC01FB01CB01099738
:10038000029710F080E054C0CA0160E170E00E9462
:10039000BF0B6A83C90160E170E00E94BF0B6B83F1
:1003A000E8838FEF898360E08E2F0E941A0861E056
:1003B00088810E94FC0780914901882311F5809172
:1003C0004A018823F1F42FB7F89482E080938000EB
:1003D0008AE18093810088EB9BE090938900809371
:1003E000880090938B0080938A0080E49CE990932E
:1003F00087008093860080916F00887F80936F00D4
:100400002FBF8881893041F481E080934901809138
:1004100080008F73806809C08A3049F481E080933E
:100420004A01809180008F7C80628093800081E00F
:10043000DF91CF91089520E639E040E252E00E943A
:10044000BA0108958BE491E00E9462018FE491E08B
:100450000E946201109254011092530110925601B1
:100460001092550180E090E0A0E0B0E080935C0144
:1004700090935D01A0935E01B0935F018093600152
:1004800090936101A0936201B09363018093640132
:1004900090936501A0936601B093670160E082E0EC
:1004A0000E94FC0760E083E00E94FC0710927B0141
:1004B00010927A0108958BE591E00E9491030895CE
:1004C0008BE591E00E94690308958BE591E00E941D
:1004D000120408958BE591E00E94B9030E948A07F7
:1004E00028EE33E040E050E00E94D20B6115710528
:1004F0008105910509F072C060E071E085E891E046
:100500000E94120540915C0150915D0160915E0175
:1005100070915F0185E891E00E949C0664E071E0C3
:1005200085E891E00E9412054091600150916101BF
:10053000609162017091630185E891E00E949C06E0
:1005400068E071E085E891E00E9412052BED3FE044
:1005500049E450E460916401709165018091660105
:10056000909167010E94600920E030E044E353E489
:100570000E94F10AAB01BC0185E891E00E949C0653
:100580006CE071E085E891E00E94120560915301F2
:100590007091540185E891E00E940F0660E171E0DE
:1005A00085E891E00E941205609155017091560115
:1005B00085E891E00E940F0664E171E085E891E032
:1005C0000E94120560917A0170917B0185E891E0AB
:1005D0000E940F0685E891E00E942A0508950F9376
:1005E0001F9340E056E960E070E085E891E00E94EA
:1005F0000D0568E171E085E891E00E94120545E68D
:1006000052E06AEF70E080E090E00E9495000E9466
:10061000E30041E050E060E672E080E00E94A00666
:1006200041E050E06BE572E081E00E94A00603E546
:1006300011E010937101009370018BE491E09093AD
:100640005801809357012FE431E030935A012093F1
:10065000590169E070E00E941B026AE070E080913D
:10066000590190915A010E941B0210937D01009341
:100670007C018BE591E090937F0180937E0140E0C7
:1006800050E060E070E0C8010E94E3040CC06BE23F
:1006900071E085E891E00E94120564EF71E080E06E
:1006A00090E00E94980785E891E00E940A0588235F
:1006B00071F36DE271E085E891E00E9441051F91C0
:1006C0000F9108950E94C2070E94EF020E946A02E1
:1006D000FDCFDC015596ED91FC915697808191817B
:1006E0001D962D913C911E9751964D915C9152977C
:1006F000181619064CF42F5F3F4F1E963C932E930D
:100700001D974F5F5F4F08C0215030401E963C93AD
:100710002E931D974150504052965C934E935197A3
:100720000895DC015596ED91FC9156978281938155
:100730001F962D913C91509753964D915C915497F3
:10074000181619064CF42F5F3F4F50963C932E938A
:100750001F974F5F5F4F08C02150304050963C9329
:100760002E931F974150504054965C934E9353974D
:1007700008950F931F93CF93DF938C01FC01C589DC
:10078000D6898A819B81892B21F488819981892B43
:1007900019F01092800141C0809180018823A1F45A
:1007A00081E080938001F80161897289882777FD53
:1007B0008095982F0E94FB096093810170938201BC
:1007C000809383019093840180918001882329F193
:1007D00040E050E060E070E0CE010E94C804F80103
:1007E00061897289882777FD8095982F0E94FB097F
:1007F00020918101309182014091830150918401C7
:100800000E94590988234CF440E050E061E070E018
:10081000F801858996890E94C804DF91CF911F91C4
:100820000F910895AF92BF92CF92DF92EF92FF9215
:100830000F931F93CF93DF93EC01AF84B888CD84DF
:10084000DE84B5016C197D09882777FD8095982F86
:100850000E94FB0928EC3DEF4DE05DE30E94F10AA8
:100860007B018C016F8B788F898F9A8FC6018A0DDF
:100870009B1D62E070E00E94BF0B882777FD80958A
:10088000982F0E94FB092CE739ED40EA50E40E94C2
:10089000F10A6B8F7C8F8D8F9E8F1E861D86188A26
:1008A0001F86A801970169857A858B859C850E94A2
:1008B000F5087B018C0169877A878B879C872BEDF4
:1008C0003FE049E450E40E94ED0A181664F42BED71
:1008D0003FE049EC50E4C801B7010E94F408698781
:1008E0007A878B879C87E984FA840B851C852BED9E
:1008F0003FE049E450ECC801B7010E945909882340
:1009000064F42BED3FE049EC50E4C801B7010E94CC
:10091000F50869877A878B879C87E984FA840B8539
:100920001C85C801B7010E945D092B8D3C8D4D8D42
:100930005E8D0E94F10A9B01AC0169817A818B81F5
:100940009C810E94F50869837A838B839C83C8010C
:10095000B7010E94540B2B8D3C8D4D8D5E8D0E94F6
:10096000F10A9B01AC016D817E818F8198850E9487
:10097000F5086D837E838F839887DF91CF911F91D8
:100980000F91FF90EF90DF90CF90BF90AF900895C0
:10099000EF92FF920F931F937C018A01645B7F4F5C
:1009A000FC01848195810E9467016DE470E0601B09
:1009B000710BF701868197810E9467011F910F914A
:1009C000FF90EF9008950F931F938C01FC017183AA
:1009D000608353834283645B7F4F848195810E944F
:1009E00067016DE470E0F80182819381681B790BE7
:1009F000868197810E9467011F910F91089589E375
:100A000091E090938601809385010895862F0E943E
:100A10009E0808950E94A6080895CB01BA010E947D
:100A2000650808950F931F93CF93DF938C01EB011B
:100A300009C02196D801ED91FC910190F081E02D43
:100A4000C801099568816623A1F7DF91CF911F91B5
:100A50000F9108950F931F938C01DC01ED91FC9190
:100A60000190F081E02D6DE00995D801ED91FC91A8
:100A70000190F081E02D6AE0C80109951F910F9166
:100A800008950F931F938C010E941205C8010E94C4
:100A90002A051F910F9108952F923F924F925F92D6
:100AA0006F927F928F929F92AF92BF92CF92DF927E
:100AB000EF92FF920F931F93DF93CF93CDB7DEB7E3
:100AC000A0970FB6F894DEBF0FBECDBF1C016A0120
:100AD0007B01411551056105710549F4DC01ED917A
:100AE000FC910190F081E02D60E3099554C08824C9
:100AF00099245401422E55246624772401E010E005
:100B00000C0F1D1F080D191DC701B601A30192018D
:100B10000E94D20BF80160830894811C911CA11CD7
:100B2000B11CC701B601A30192010E94D20BC901F9
:100B3000DA016C017D01C114D104E104F104F1F684
:100B400081E0E82EF12CEC0EFD1EE80CF91C3E01B4
:100B50000894611C711CD501C4010197A109B10958
:100B60006C01C818D90814C0F601EE0DFF1D608194
:100B70006A3010F4605D01C0695CD101ED91FC91B7
:100B80000190F081E02DC10109950894E108F10878
:100B90006E147F0449F7A0960FB6F894DEBF0FBE1F
:100BA000CDBFCF91DF911F910F91FF90EF90DF901C
:100BB000CF90BF90AF909F908F907F906F905F90FD
:100BC0004F903F902F9008952AE00E944C05089581
:100BD000EF92FF920F931F93CF93DF93EC017A0173
:100BE0008B0177FF0FC0E881F9810190F081E02D42
:100BF0006DE2099510950095F094E094E11CF11CCC
:100C0000011D111D2AE0B801A701CE010E944C056B
:100C1000DF91CF911F910F91FF90EF900895AB015D
:100C2000662757FD6095762F0E94E80508959F92EC
:100C3000AF92BF92CF92DF92EF92FF920F931F93EA
:100C4000CF93DF93EC017A018B01922E20E030E00C
:100C500040E050E0C801B7010E945909882364F4BC
:100C6000E881F9810190F081E02D6DE2CE010995D6
:100C700017FB109517F9109560E070E080E09FE396
:100C8000AA2407C020E030E040E251E40E9460095D
:100C9000A394A914B8F39B01AC01C801B7010E9449
:100CA000F5085B016C010E94CD097B018C01AB0151
:100CB000BC01CE010E94E405992029F063E371E0B4
:100CC000CE010E941205C801B7010E94F9099B01DB
:100CD000AC01C601B5010E94F40820C020E030E05C
:100CE00040E251E40E94F10A7B018C010E94C80994
:100CF0005B016C01CC24B7FCC094DC2CB601A501CF
:100D0000CE010E94E805C601B5010E94FB099B01C6
:100D1000AC01C801B7010E94F4089A949920F1F639
:100D2000DF91CF911F910F91FF90EF90DF90CF90C7
:100D3000BF90AF909F90089522E00E9417060895FB
:100D40008230E8F4E82FF0E0EE0FFF1FE957FE4F86
:100D500071836083882341F4809169008C7F842BA8
:100D600080936900E89A089580916900440F551FA7
:100D7000440F551F837F842B80936900E99A08955F
:100D80001F920F920FB60F9211242F933F934F9300
:100D90005F936F937F938F939F93AF93BF93EF93E3
:100DA000FF938091870190918801892B29F0E09130
:100DB0008701F09188010995FF91EF91BF91AF9163
:100DC0009F918F917F916F915F914F913F912F9163
:100DD0000F900FBE0F901F9018951F920F920FB695
:100DE0000F9211242F933F934F935F936F937F93B1
:100DF0008F939F93AF93BF93EF93FF93809189015C
:100E000090918A01892B29F0E0918901F0918A0162
:100E10000995FF91EF91BF91AF919F918F917F9134
:100E20006F915F914F913F912F910F900FBE0F9057
:100E30001F9018951F920F920FB60F9211242F93A7
:100E40008F939F93AF93BF9380918B0190918C016F
:100E5000A0918D01B0918E010196A11DB11D8093CD
:100E60008B0190938C01A0938D01B0938E018091A2
:100E70008F0190919001A0919101B09192018050C9
:100E8000904CAF4FBF4F80938F0190939001A093F0
:100E90009101B093920127C080918F0190919001B0
:100EA000A0919101B091920180589E43A040B04022
:100EB00080938F0190939001A0939101B093920140
:100EC0008091930190919401A0919501B091960128
:100ED0000196A11DB11D8093930190939401A0935D
:100EE0009501B093960180918F0190919001A0910E
:100EF0009101B091920181589E43A040B04060F6AC
:100F0000BF91AF919F918F912F910F900FBE0F9036
:100F10001F9018958FB7F894209193013091940108
:100F200040919501509196018FBFB901CA01089572
:100F3000EF92FF920F931F937B018C018FB7F89470
:100F400040919301509194016091950170919601A7
:100F50008FBF2FB7F8948091930190919401A09145
:100F60009501B09196012FBF841B950BA60BB70B73
:100F7000E816F9060A071B0760F71F910F91FF900B
:100F8000EF900895789484B5826084BD84B58160C3
:100F900084BD85B5826085BD85B5816085BDEEE681
:100FA000F0E0808181608083E1E8F0E08081826010
:100FB0008083808181608083E0E8F0E080818160CF
:100FC0008083E1EBF0E0808184608083E0EBF0E0FF
:100FD000808181608083EAE7F0E0808184608083A3
:100FE000808182608083808181608083808180684D
:100FF00080831092C1000895282F30E0C9018755E1
:101000009F4FFC0194912B563F4FF9018491882307
:1010100081F0E82FF0E0EA57FF4FE491F0E066231B
:1010200029F4808190958923808308958081892B7C
:1010300080830895482F50E0CA0183549F4FFC01DC
:101040002491CA0187559F4FFC0194914B565F4FE5
:10105000FA0134913323C1F1222331F1233021F4F9
:10106000809180008F7705C0243031F4809180001A
:101070008F7D8093800018C0213019F484B58F775C
:1010800004C0223021F484B58F7D84BD0DC026308C
:1010900021F48091B0008F7705C0273029F480912A
:1010A000B0008F7D8093B000E32FF0E0E557FF4F55
:1010B000E491F0E0662329F4808190958923808370
:1010C00008958081892B80830895EF92FF920F937A
:1010D0001F937B018C0122E030E040E050E00E9451
:1010E000F40B205C3D4B404F5F4FCA01B901A80192
:1010F00097010E94F40BC901DA010197A109B10916
:10110000292F3A2F4B2F552747FD5A950196A11DA0
:10111000B11D2093C50081508093C400E1ECF0E044
:101120008081806180838081886080838081806805
:1011300080831F910F91FF90EF900895982F8091D9
:10114000C00085FFFCCF9093C60008958091970161
:101150009091980180589F4F2091990130919A0168
:10116000821B930B60E870E00E94BF0B08951F92F2
:101170000F920FB60F9211242F933F934F935F93CB
:101180006F937F938F939F93AF93BF93EF93FF934F
:101190004091C600E0919701F0919801CF0101962E
:1011A00060E870E00E94BF0B9C01809199019091D2
:1011B0009A012817390739F0E556FE4F40833093DE
:1011C000980120939701FF91EF91BF91AF919F916B
:1011D0008F917F916F915F914F913F912F910F90E0
:1011E0000FBE0F901F9018955058BB27AA270ED0FE
:1011F000A9C169D130F06ED120F031F49F3F11F4D4
:101200001EF45EC10EF4E095E7FB54C1E92FBCD19A
:1012100080F3BA17620773078407950718F071F413
:101220009EF5D4C10EF4E0950B2EBA2FA02D0B0124
:10123000B90190010C01CA01A0011124FF27591B1B
:1012400099F0593F50F4503E68F11A16F040A22F21
:10125000232F342F4427585FF3CF46953795279592
:10126000A795F0405395C9F77EF41F16BA0B620B91
:10127000730B840BBAF09150A1F0FF0FBB1F661FD8
:10128000771F881FC2F70EC0BA0F621F731F841F1B
:1012900048F4879577956795B795F7959E3F08F041
:1012A000B3CF9395880F08F09927EE0F9795879500
:1012B0000895DCD008F481E0089514D1E39553C17A
:1012C0000CD040C107D140F0FED030F021F45F3F98
:1012D00019F0F0C051117BC1F3C056D198F3992396
:1012E000C9F35523B1F3951B550BBB27AA276217EA
:1012F0007307840738F09F5F5F4F220F331F441F2F
:10130000AA1FA9F333D00E2E3AF0E0E830D0915066
:101310005040E695001CCAF729D0FE2F27D0660F53
:10132000771F881FBB1F261737074807AB07B0E892
:1013300009F0BB0B802DBF01FF2793585F4F2AF0A8
:101340009E3F510568F0B6C042C15F3FECF3983E46
:10135000DCF3869577956795B795F7959F5FC9F705
:10136000880F911D9695879597F90895E1E0660F8E
:10137000771F881FBB1F621773078407BA0720F007
:10138000621B730B840BBA0BEE1F88F7E095089570
:1013900004D06894B1111BC10895FED088F09F5706
:1013A00090F0B92F9927B751A0F0D1F0660F771FB1
:1013B000881F991F1AF0BA95C9F712C0B13081F091
:1013C00005D1B1E0089502C1672F782F8827B85F53
:1013D00039F0B93FCCF3869577956795B395D9F7F2
:1013E0003EF490958095709561957F4F8F4F9F4FFC
:1013F0000895E89409C097FB3EF490958095709508
:1014000061957F4F8F4F9F4F9923A9F0F92F96E950
:10141000BB279395F695879577956795B795F111C5
:10142000F8CFFAF4BB0F11F460FF1BC06F5F7F4F62
:101430008F4F9F4F16C0882311F096E911C0772374
:1014400021F09EE8872F762F05C0662371F096E87D
:10145000862F70E060E02AF09A95660F771F881F4C
:10146000DAF7880F9695879597F90895990F0008F0
:10147000550FAA0BE0E8FEEF16161706E807F90766
:10148000C0F012161306E407F50798F0621B730B01
:10149000840B950B39F40A2661F0232B242B252B82
:1014A00021F408950A2609F4A140A6958FEF811D25
:1014B000811D089597F99F6780E870E060E00895C6
:1014C0009FEF80EC089500240A941616170618065C
:1014D0000906089500240A94121613061406050638
:1014E0000895EECF59D0E8F3E894EFEFBB273FE043
:1014F00048EC5FE76B3D73078407950708F1FF270A
:101500009F57B25A6A4D7F40894CF04032F4BE5525
:101510006542704F8643FF4F0894EE1F915030F0A4
:10152000BB0F661F771F881FFF1FEBCF9EE7882327
:1015300032F0BB0F661F771F881F9A95C1F79395EE
:10154000E095B8C0092E0394000C11F4882352F0E2
:10155000BB0F40F4BF2B11F460FF04C06F5F7F4FDF
:101560008F4F9F4F0895EF93E0FF06C0A2EA2AED48
:101570003FE049EC5FEB4ADEE5DF0F90039401FCAE
:101580009058E8E6F0E0A6C057FD9058440F551F6C
:1015900059F05F3F71F04795880F97FB991F61F0F5
:1015A0009F3F79F087950895121613061406551F6C
:1015B000F2CF4695F1DF08C0161617061806991FD8
:1015C000F1CF86957105610508940895E894BB27CD
:1015D00066277727CB0197F9089548DF08F48FEF46
:1015E00008950BD0AFCF6FDF28F074DF18F095238C
:1015F00009F060CF65CF1124EACFC6DFA0F3959F35
:10160000D1F3950F50E0551F629FF001729FBB27E9
:10161000F00DB11D639FAA27F00DB11DAA1F649F95
:101620006627B00DA11D661F829F2227B00DA11D48
:10163000621F739FB00DA11D621F839FA00D611DCE
:10164000221F749F3327A00D611D231F849F600DEF
:10165000211D822F762F6A2F11249F5750408AF028
:10166000E1F088234AF0EE0FFF1FBB1F661F771FB4
:10167000881F91505040A9F79E3F510570F01ACF36
:10168000A6CF5F3FECF3983EDCF3869577956795A0
:10169000B795F795E7959F5FC1F7FE2B880F911DD2
:1016A0009695879597F908959F931CDF0F9007FCF7
:1016B000EE5F59CF9F3F49F0915028F4869577957A
:1016C0006795B7959F5F80389F4F880F9695879550
:1016D00097F908959F938F937F936F93FF93EF9361
:1016E0009B01AC017EDFEF91FF9105D02F913F91DF
:1016F0004F915F9176CFDF93CF931F930F93FF921C
:10170000EF92DF927B018C01689405C0DA2EEF0125
:1017100074DFFE01E894A59125913591459155918D
:10172000AEF3EF0173DDFE019701A801DA9479F7BA
:10173000DF90EF90FF900F911F91CF91DF9108956F
:10174000629FD001739FF001829FE00DF11D649FA5
:10175000E00DF11D929FF00D839FF00D749FF00D31
:10176000659FF00D9927729FB00DE11DF91F639FD2
:10177000B00DE11DF91FBD01CF011124089597FBA4
:10178000092E07260AD077FD04D049D006D00020C4
:101790001AF4709561957F4F0895F6F790958195AD
:1017A0009F4F0895A1E21A2EAA1BBB1BFD010DC07D
:1017B000AA1FBB1FEE1FFF1FA217B307E407F50701
:1017C00020F0A21BB30BE40BF50B661F771F881FDD
:1017D000991F1A9469F760957095809590959B0173
:1017E000AC01BD01CF01089597FB092E05260ED04F
:1017F00057FD04D0D7DF0AD0001C38F4509540952F
:10180000309521953F4F4F4F5F4F0895F6F79095D4
:101810008095709561957F4F8F4F9F4F0895AA1BBC
:10182000BB1B51E107C0AA1FBB1FA617B70710F0CB
:10183000A61BB70B881F991F5A95A9F780959095FD
:10184000BC01CD010895EE0FFF1F0590F491E02D2E
:061850000994F894FFCF9B
:10185600205820002059200020412000204C200044
:101866002052200020532000496E6974206F646F57
:101876006D657472792074657374002E000A476F63
:0C1886002021002E0000000000060500DC
:00000001FF
