:100000000C945D000C946B070C9498070C9485007D
:100010000C9485000C9485000C9485000C9485004C
:100020000C9485000C9485000C9485000C94EC01D4
:100030000C9485000C9485000C9485000C9485002C
:100040000C94C5070C9485000C949F090C948500B2
:100050000C9485000C9485000C9485000C9485000C
:100060000C94B4020C948500000024272A0000257B
:10007000282B000023262904040404040404040299
:100080000202020202030303030303010204081035
:100090002040800102040810200102040810200002
:1000A0000000070002010000030406000000000039
:1000B00000000000B3027A04540611241FBECFEFE3
:1000C000D4E0DEBFCDBF13E0A0E0B1E0E8E7F5E1AA
:1000D00002C005900D92A232B107D9F714E0A2E256
:1000E000B3E001C01D92A033B107E1F710E0CAEB05
:1000F000D0E004C02297FE010E94B60AC43BD1079B
:10010000C9F70E944D060C94BA0A0C940000FC0139
:10011000809122038C30A0F480838F5F8093220330
:10012000815090E0FC01EE0FFF1FEE0FFF1FE80F64
:10013000F91FED5DFC4F88EB9BE09283818308956E
:100140008FEF808308959F92AF92BF92CF92DF92FC
:10015000EF92FF920F931F93FC01AB0190808BE015
:10016000891508F490C0892D90E0683C71050CF069
:1001700046C0FC01EE0FFF1FEE0FFF1FE80FF91F37
:10018000ED5DFC4F8381992787FD909578E8E72EF8
:10019000F12CE81AF90AEE0CFF1CEE0CFF1C0027EC
:1001A000F7FC0095102FBA01882777FD8095982FCE
:1001B000E481FF27E7FDF09528E532E02E1B3F0B99
:1001C000220F331F220F331F442737FD4095542F32
:1001D0005F934F933F932F935701680114EBE12EE8
:1001E000F12C012D112D20E030E040E050E00E9484
:1001F000DC09AB010F900F900F900F9028C0FC010D
:10020000EE0FFF1FEE0FFF1FE80FF91FED5DFC4F14
:100210008381992787FD909528E830E0281B390BCA
:10022000220F331F220F331F621773077CF0848164
:10023000992787FD909528E532E0281B390B220F7E
:10024000331F220F331F241735070CF4A901CA01ED
:10025000AA2797FDA095BA2F0697A109B109880F83
:10026000991FAA1FBB1F4FB7F894292D30E0F90141
:10027000EE0FFF1FEE0FFF1FE20FF31FED5DFC4FB0
:10028000928381834FBF1F910F91FF90EF90DF907A
:10029000CF90BF90AF909F900895CF92DF92EF9252
:1002A000FF921F93CF93DF93EC01162F7A01690120
:1002B00088818C3008F07DC061E0812F0E94C508E4
:1002C000888190E0FC01EE0FFF1FEE0FFF1FE80F8B
:1002D000F91FED5DFC4F1F738081807C812B808333
:1002E000888190E0FC01EE0FFF1FEE0FFF1FE80F6B
:1002F000F91FED5DFC4F80E292E08E199F0964E0EA
:1003000070E00E94500A6383888190E0FC01EE0F48
:10031000FF1FEE0FFF1FE80FF91FED5DFC4F80E69A
:1003200099E08C199D0964E070E00E94500A648392
:10033000A8818A2F6CE00E94440A682F70E0AB010C
:10034000440F551F460F571F440F551F440F551F8D
:1003500020E030E0C901840F951FFC01EE0FFF1F64
:10036000EE0FFF1FE80FF91FED5DFC4F808186FD4A
:1003700012C02F5F3F4F2C30310561F723C0109220
:10038000800082E0809381001092850010928400AA
:1003900086BB80936F008A2F90E0FC01EE0FFF1F59
:1003A000EE0FFF1FE80FF91FED5DFC4F80818064A9
:1003B00080838881DF91CF911F91FF90EF90DF9034
:1003C000CF900895672BD9F2E6CF20E639E040E2DE
:1003D00052E00E944D0108951F920F920FB60F92A6
:1003E00011242F933F934F935F936F937F938F933A
:1003F0009F93AF93BF93EF93FF9380915F0387FF2A
:1004000005C010928500109284002FC020915F03D8
:10041000332727FD30958091220390E02817390774
:1004200024F580915F03992787FD9095FC01EE0FDD
:10043000FF1FEE0FFF1FE80FF91FED5DFC4F8081DE
:1004400086FF13C080915F03992787FD9095FC017B
:10045000EE0FFF1FEE0FFF1FE80FF91FED5DFC4FC2
:10046000808160E08F730E94E30880915F038F5F5B
:1004700080935F0320915F03332727FD30958091A0
:10048000220390E0281739070CF054C080915F03D5
:100490008C300CF04FC02091840030918500809109
:1004A0005F03992787FD9095FC01EE0FFF1FEE0F6C
:1004B000FF1FE80FF91FED5DFC4F81819281280F2E
:1004C000391F309389002093880080915F0399271A
:1004D00087FD9095FC01EE0FFF1FEE0FFF1FE80F49
:1004E000F91FED5DFC4F808186FF2CC080915F037A
:1004F000992787FD9095FC01EE0FFF1FEE0FFF1F60
:10050000E80FF91FED5DFC4F808161E08F730E9461
:10051000E30818C080E49CE905C0809184009091B4
:100520008500049690938900809388008FEF8093D4
:100530005F0308C0809184009091850084549C4999
:1005400048F3EBCFFF91EF91BF91AF919F918F91C6
:100550007F916F915F914F913F912F910F900FBEBF
:100560000F901F90189508951F920F920FB60F923B
:1005700011242F933F934F935F936F937F938F93A8
:100580009F93AF93BF93EF93FF938091B90090E057
:10059000887F90708036910509F4E2C0813691051C
:1005A000CCF58832910509F47BC089329105B4F409
:1005B0008031910509F46FC0813191053CF40097B9
:1005C00009F438C1089709F040C165C08831910528
:1005D00009F466C0809709F038C17FC08034910566
:1005E00009F4A3C08134910544F48033910509F4E2
:1005F0007FC0C89709F029C186C08035910509F4EC
:1006000086C08835910509F495C08834910509F0B4
:100610001CC19EC08839910509F404C1893991052E
:10062000ECF48837910509F49BC0893791054CF4A7
:100630008836910509F494C08037910509F005C109
:100640008FC08838910509F4EDC08039910509F40F
:100650008DC08038910509F0F8C088C0803B9105B5
:1006600009F4B2C0813B91054CF4803A910509F43C
:1006700091C0883A910509F0E8C0A6C0803C910578
:1006800009F4D4C0883C910509F4D0C0883B910599
:1006900009F0DBC0B1C0809161038093BB00C0C092
:1006A0009091680380916903981778F4909168039A
:1006B000E0916603F0916703E90FF11D808180935B
:1006C000BB009F5F90936803ABC085ED8093BC0037
:1006D0008091BC0084FDFCCFB6C080E280937103A2
:1006E00085ED8093BC008091BC0084FDFCCFABC045
:1006F00080E38093710385ED8093BC008091BC0002
:1007000084FDFCCFA0C088E3809371038FC08091EB
:1007100068039091BB00E0916603F0916703E80FD6
:10072000F11D90838F5F809368039091680380919F
:10073000690374C0809168039091BB00E0916603E7
:10074000F0916703E80FF11D90838F5F809368033A
:1007500085ED8093BC008091BC0084FDFCCF73C00C
:1007600083E080936003109270035AC080917003FD
:10077000803208F057C0809170039091BB00E091E7
:100780006E03F0916F03E80FF11D90838F5F8093EC
:10079000700346C080917003803248F480917003EA
:1007A000E0916E03F0916F03E80FF11D10826091EC
:1007B0007003E0916403F091650370E080916E0333
:1007C00090916F03099532C084E08093600310928A
:1007D0006C0310926D03E0916203F091630309953D
:1007E00080916D03882341F481E080936D03E09153
:1007F0006A03F0916B03108290916C03E0916A039D
:10080000F0916B03E90FF11D80818093BB009F5F26
:1008100090936C0390916C0380916D03981710F482
:1008200085EC01C085E88093BC000FC085EC809307
:10083000BC0009C01092710385ED8093BC008091CB
:10084000BC0084FDFCCF10926003FF91EF91BF913B
:10085000AF919F918F917F916F915F914F913F9158
:100860002F910F900FBE0F901F90189580919403B9
:100870008033A9F0992787FD90952AE330E0281B63
:10088000390B220F331FC90143E0880F991F4A9586
:10089000E1F7280F391F3093770320937603909167
:1008A0009503903351F082E19802C00111248056E3
:1008B00093409093790380937803909196039033BB
:1008C00051F082E19802C001112480569340909328
:1008D0007B0380937A0390919703903351F082E1E8
:1008E0009802C00111248056934090937D03809319
:1008F0007C0308950F931F9302E713E0C8010E9441
:100900008700C80101960E948700C80102960E94D4
:100910008700C80103960E9487000E9435086093F3
:1009200086037093870380938803909389030E94C2
:10093000350860938A0370938B0380938C039093A4
:100940008D031F910F910895EF92FF920F931F93C4
:10095000CF93DF9366E7E62E63E0F62ECEE7D3E093
:1009600000E010E0688179816F5F7F4FF70180813F
:100970009181681779073CF479836883C8018E58A0
:100980009C4F0E94A3006881798161507040F701FB
:1009900080819181861797073CF479836883C80129
:1009A0008E589C4F0E94A3000F5F1F4F82E090E083
:1009B000E80EF91E229604301105A1F6DF91CF91C1
:1009C0001F910F91FF90EF900895EF92FF920F9378
:1009D0001F9380E00E94A7080AE913E0BC01C80148
:1009E0000E94630770E0E72E71E0F72EB701C8019F
:1009F0000E946A0681E00E94A708BC01C8010E940B
:100A00006307B701C8010E946A06C8010E948206F6
:100A10001F910F91FF90EF900895CF93DF938AE994
:100A200093E00E946206882349F10E943508609392
:100A300086037093870380938803909389038AE9E0
:100A400093E00E945F06282F8033C4F08A334CF075
:100A50008037A1F410929903109298030E943604F3
:100A60000DC08091980390919903FC01EC56FC4FC6
:100A70002083019690939903809398030E943508F0
:100A80002091860330918703409188035091890318
:100A9000621B730B840B950B695873418040904027
:100AA00008F4C8C020919003309191038091920383
:100AB000909193032817390739F080918E03909114
:100AC0008F03892B09F469C00E94350820918A039D
:100AD00030918B0340918C0350918D03621B730BFB
:100AE000840B950B695E73408040904008F455C0BC
:100AF0000E94350860938A0370938B0380938C0364
:100B000090938D03E0919003F091910380918E0377
:100B100090918F0324E0EE0FFF1F2A95E1F7E80F75
:100B2000F91F93E0EE0FFF1F9A95E1F79F01255EF5
:100B30003E4FD9018C91805D80939403DF01A35EC9
:100B4000BE4F8C91805D80939503E15EFE4F808166
:100B5000805D80939603F9018681805D8093970381
:100B60000E94360420918E0330918F032F5F3F4FF8
:100B700030938F0320938E03E0919003F0919103C3
:100B8000EE0FFF1FED5EFE4F808191812817390720
:100B900024F010928F0310928E03209192033091D3
:100BA000930380919003909191038217930751F0E2
:100BB00080918E0390918F03892B21F430939103C0
:100BC0002093900380918E0390918F03892B91F550
:100BD00080E00E94A708EC0181E00E94A708C80FEE
:100BE000D91F8091900390919103892B71F0F3E0CC
:100BF000C83EDF0754F4109293031092920362E010
:100C000071E08AE993E00E949906809190039091A7
:100C10009103019779F0C95ED34064F081E090E0E0
:100C200090939303809392036AE071E08AE993E0E2
:100C30000E9499060E94A4040E94E5046FE070E0FF
:100C400080E090E00E944308DF91CF9108950F93D8
:100C50001F9340E855E260E070E08AE993E00E946B
:100C6000650602E713E068E070E0C8010E94E50154
:100C70006BE070E0C80101960E94E5016AE070E057
:100C8000C80102960E94E50169E070E0C801039680
:100C90000E94E5011F910F9108950E946D080E9426
:100CA00027060E940D05FDCF80E293E090939B0301
:100CB00080939A030895862F0E94670908950E94E1
:100CC000800908950E946F090895CB01BA010E941E
:100CD0002E0908950F931F93CF93DF938C01EB019F
:100CE00009C02196D801ED91FC910190F081E02D91
:100CF000C801099568816623A1F7DF91CF911F9103
:100D00000F9108950F931F938C01DC01ED91FC91DD
:100D10000190F081E02D6DE00995D801ED91FC91F5
:100D20000190F081E02D6AE0C80109951F910F91B3
:100D300008950F931F938C010E946A06C8010E94B8
:100D400082061F910F9108952F923F924F925F92CA
:100D50006F927F928F929F92AF92BF92CF92DF92CB
:100D6000EF92FF920F931F93DF93CF93CDB7DEB730
:100D7000A0970FB6F894DEBF0FBECDBF1C016A016D
:100D80007B01411551056105710549F4DC01ED91C7
:100D9000FC910190F081E02D60E3099554C0882416
:100DA00099245401422E55246624772401E010E052
:100DB0000C0F1D1F080D191DC701B601A3019201DB
:100DC0000E94630AF80160830894811C911CA11C95
:100DD000B11CC701B601A30192010E94630AC901B7
:100DE000DA016C017D01C114D104E104F104F1F6D2
:100DF00081E0E82EF12CEC0EFD1EE80CF91C3E0102
:100E00000894611C711CD501C4010197A109B109A5
:100E10006C01C818D90814C0F601EE0DFF1D6081E1
:100E20006A3010F4605D01C0695CD101ED91FC9104
:100E30000190F081E02DC10109950894E108F108C5
:100E40006E147F0449F7A0960FB6F894DEBF0FBE6C
:100E5000CDBFCF91DF911F910F91FF90EF90DF9069
:100E6000CF90BF90AF909F908F907F906F905F904A
:100E70004F903F902F900895EF92FF920F931F9302
:100E8000CF93DF93EC017A018B0177FF0FC0E881EC
:100E9000F9810190F081E02D6DE2099510950095A2
:100EA000F094E094E11CF11C011D111D2AE0B80131
:100EB000A701CE010E94A406DF91CF911F910F914F
:100EC000FF90EF900895AB01662757FD6095762F50
:100ED0000E943C0708951F920F920FB60F921124A3
:100EE0002F933F934F935F936F937F938F939F9332
:100EF000AF93BF93EF93FF9380919C0390919D03D9
:100F0000892B29F0E0919C03F0919D030995FF91B5
:100F1000EF91BF91AF919F918F917F916F915F9171
:100F20004F913F912F910F900FBE0F901F901895EA
:100F30001F920F920FB60F9211242F933F934F934E
:100F40005F936F937F938F939F93AF93BF93EF9331
:100F5000FF9380919E0390919F03892B29F0E0914C
:100F60009E03F0919F030995FF91EF91BF91AF917F
:100F70009F918F917F916F915F914F913F912F91B1
:100F80000F900FBE0F901F9018951F920F920FB6E3
:100F90000F9211242F938F939F93AF93BF938091C0
:100FA000A0039091A103A091A203B091A303019685
:100FB000A11DB11D8093A0039093A103A093A20350
:100FC000B093A3038091A4039091A503A091A603DD
:100FD000B091A7038050904CAF4FBF4F8093A403B4
:100FE0009093A503A093A603B093A70327C0809175
:100FF000A4039091A503A091A603B091A7038058E4
:101000009E43A040B0408093A4039093A503A09377
:10101000A603B093A7038091A8039091A903A09180
:10102000AA03B091AB030196A11DB11D8093A80343
:101030009093A903A093AA03B093AB038091A40358
:101040009091A503A091A603B091A70381589E4358
:10105000A040B04060F6BF91AF919F918F912F91CA
:101060000F900FBE0F901F9018958FB7F894209196
:10107000A8033091A9034091AA035091AB038FBFFD
:10108000B901CA010895EF92FF920F931F937B015C
:101090008C018FB7F8944091A8035091A9036091F7
:1010A000AA037091AB038FBF2FB7F8948091A80368
:1010B0009091A903A091AA03B091AB032FBF841B09
:1010C000950BA60BB70BE816F9060A071B0760F786
:1010D0001F910F91FF90EF900895789484B58260EE
:1010E00084BD84B5816084BD85B5826085BD85B5CC
:1010F000816085BDEEE6F0E0808181608083E1E87B
:10110000F0E0808182608083808181608083E0E87C
:10111000F0E0808181608083E1EBF0E08081846099
:101120008083E0EBF0E0808181608083EAE7F0E09B
:1011300080818460808380818260808380818160FF
:1011400080838081806880831092C10008958F70B1
:1011500090911B039295990F990F907C982B9093E7
:101160007C0080917A00806480937A0080917A007C
:1011700086FDFCCF2091780040917900942F80E08B
:1011800030E0282B392BC9010895282F30E0C90100
:1011900085579F4FFC01949129583F4FF901849145
:1011A000882381F0E82FF0E0E859FF4FE491F0E068
:1011B000662329F480819095892380830895808116
:1011C000892B80830895482F50E0CA0181569F4F94
:1011D000FC012491CA0185579F4FFC019491495805
:1011E0005F4FFA0134913323C1F1222331F12330CF
:1011F00021F4809180008F7705C0243031F48091F4
:1012000080008F7D8093800018C0213019F484B550
:101210008F7704C0223021F484B58F7D84BD0DC04A
:10122000263021F48091B0008F7705C0273029F453
:101230008091B0008F7D8093B000E32FF0E0E35900
:10124000FF4FE491F0E0662329F480819095892393
:10125000808308958081892B80830895EF92FF9287
:101260000F931F937B018C0122E030E040E050E0BF
:101270000E94850A205C3D4B404F5F4FCA01B90177
:10128000A80197010E94850AC901DA010197A10905
:10129000B109292F3A2F4B2F552747FD5A95019613
:1012A000A11DB11D2093C50081508093C400E1ECC5
:1012B000F0E080818061808380818860808380818C
:1012C000806880831F910F91FF90EF900895982F71
:1012D0008091C00085FFFCCF9093C6000895809157
:1012E000AC039091AD0380589F4F2091AE03309195
:1012F000AF03821B930B60E870E00E94500A0895D0
:101300004091AE035091AF038091AC039091AD0337
:101310008417950719F42FEF3FEF0FC0FA01E0553E
:10132000FC4F2081CA01019660E870E00E94500ADB
:101330009093AF038093AE0330E0C90108951F92EC
:101340000F920FB60F9211242F933F934F935F93F9
:101350006F937F938F939F93AF93BF93EF93FF937D
:101360004091C600E091AC03F091AD03CF0101962E
:1013700060E870E00E94500A9C018091AE03909159
:10138000AF032817390739F0E055FC4F40833093FD
:10139000AD032093AC03FF91EF91BF91AF919F916B
:1013A0008F917F916F915F914F913F912F910F900E
:1013B0000FBE0F901F9018952F923F924F925F9201
:1013C0006F927F928F929F92AF92BF92CF92DF9255
:1013D000EF92FF920F931F93DF93CF93CDB7DEB7BA
:1013E0003B014C0119012A016D897E898F89988DF5
:1013F0006A197B098C099D09621A730A840A950A85
:10140000A40193010E94250AE218F30804091509B2
:10141000A80197010E94850A2A0D3B1D4C1D5D1DE8
:10142000B901CA01CF91DF911F910F91FF90EF9009
:10143000DF90CF90BF90AF909F908F907F906F90F4
:101440005F904F903F902F900895629FD001739FBF
:10145000F001829FE00DF11D649FE00DF11D929F50
:10146000F00D839FF00D749FF00D659FF00D99278F
:10147000729FB00DE11DF91F639FB00DE11DF91FB3
:10148000BD01CF0111240895991B79E004C0991F73
:10149000961708F0961B881F7A95C9F780950895CE
:1014A00097FB092E07260AD077FD04D049D006D035
:1014B00000201AF4709561957F4F0895F6F7909586
:1014C00081959F4F0895A1E21A2EAA1BBB1BFD0117
:1014D0000DC0AA1FBB1FEE1FFF1FA217B307E40713
:1014E000F50720F0A21BB30BE40BF50B661F771F6B
:1014F000881F991F1A9469F760957095809590954B
:101500009B01AC01BD01CF01089597FB092E052673
:101510000ED057FD04D0D7DF0AD0001C38F4509508
:101520004095309521953F4F4F4F5F4F0895F6F707
:1015300090958095709561957F4F8F4F9F4F08953F
:10154000AA1BBB1B51E107C0AA1FBB1FA617B707E9
:1015500010F0A61BB70B881F991F5A95A9F7809505
:101560009095BC01CD010895EE0FFF1F0590F491F9
:08157000E02D0994F894FFCF6F
:101578002000466F7277617264004261636B776125
:10158800726400100010000000000005000500054E
:10159800000500070005000300050006000500021D
:1015A8000005000700060003000600050006000508
:1015B80000060003000600070006000100060007F9
:1015C80000060002000300070003000500030005F1
:1015D80000030007000300030003000700030002E4
:1015E80000030007000700030007000500070005C7
:1015F80000070003000600070006000100060007B8
:1016080000060002000500070004000500050005AB
:10161800000500020005000700040001000600079D
:101628000006000300060007000600050007000585
:101638000007000700070003000700070003000277
:101648000003000700030003000300050003000572
:101658000003000200030007000300010006000762
:101668000006000300060007000600050006000546
:101678000006000700060003000600060005000239
:101688000005000700050003000500000000000039
:101698000000000000000000000000000000000042
:1016A8000000000000000000000000000000000032
:1016B8000000000000000000000000000000000022
:1016C8000000000000000000000000000000000012
:1016D8000000000000000000000000000000000002
:1016E80000000000000000000000000000000000F2
:1016F80000000000000000000000000000000000E2
:1017080000000000000000000000000000000000D1
:1017180000000000000000000000000000000000C1
:1017280000000000000000000000000000000000B1
:1017380000000000000000000000000000000000A1
:101748000000000000000000000000000000000091
:101758000000000000000000000000000000000081
:101768000000000000000000000000000000000071
:101778000000000000000000000000000000000061
:101788000000000000000000000000010000000050
:021798005B06EE
:00000001FF
