:100000000C945C000C94E7030C9414040C9484008E
:100010000C9484000C9484000C9484000C94840050
:100020000C9484000C9429010C9484000C9484009A
:100030000C9484000C9484000C9484000C94840030
:100040000C9441040C9484000C94B3050C9484002B
:100050000C9484000C9484000C9484000C94840010
:100060000C9484000C948400000024272A000025AE
:10007000282B000023262904040404040404040299
:100080000202020202030303030303010204081035
:100090002040800102040810200102040810200002
:1000A0000000070002010000030406000000000039
:1000B000000000004702E40211241FBECFEFD4E08D
:1000C000DEBFCDBF11E0A0E0B1E0E6EFFCE002C092
:1000D00005900D92AC30B107D9F711E0ACE0B1E07A
:1000E00001C01D92A63BB107E1F710E0C8EBD0E0DC
:1000F00004C02297FE010E947506C43BD107C9F7D0
:100100000E94DD020C9479060C9400000F931F935B
:100110008B019C01809170008E7F80937000809194
:10012000B0008C7F8093B0008091B100877F809376
:10013000B1008091B6008F7D8093B60080917000F1
:100140008D7F809370008091B10084608093B100B6
:100150008091B1008C7F8093B10086E090E0909315
:10016000180180931701011511052105310569F466
:1001700081E090E0A0E0B0E080930C0190930D014D
:10018000A0930E01B0930F0108C000930C011093CF
:100190000D0120930E0130930F01509311014093F4
:1001A00010011F910F9108951092120110921301E6
:1001B00010921401109215011092160180911701EE
:1001C000909118018093B200E0E7F0E080818160B7
:1001D000808308958091120190911301A0911401E0
:1001E000B09115010196A11DB11D8093120190934C
:1001F0001301A0931401B0931501209112013091C5
:100200001301409114015091150180910C019091BE
:100210000D01A0910E01B0910F01281739074A076F
:100220005B07B0F080911601882391F481E0809300
:1002300016011092120110921301109214011092E3
:100240001501E0911001F09111010995109216012C
:1002500008951F920F920FB60F9211242F933F9380
:100260004F935F936F937F938F939F93AF93BF93BE
:10027000EF93FF9380911701909118018093B20042
:100280000E94EA00FF91EF91BF91AF919F918F91F2
:100290007F916F915F914F913F912F910F900FBE82
:1002A0000F901F901895FC0110828FEF81830895A5
:1002B000EF92FF920F931F93CF93DF93EC019B017B
:1002C00077FF03C020E030E005C0653B710514F006
:1002D00024EB30E02983EA806B8170E06E197109AC
:1002E000882777FD8095982F982F872F762F662760
:1002F00030E040E050E00E94F00524EB30E040E0C8
:1003000050E00E944406FF2400E010E0102F0F2D63
:10031000FE2CEE24E20EF31E041F151FC801B701C8
:1003200028E030E040E050E00E94440688818930B7
:1003300029F4309389002093880006C08A3021F484
:1003400030938B0020938A00DF91CF911F910F9102
:10035000FF90EF900895CF93DF93EC01FB01CB0169
:100360000997029710F080E054C0CA0160E170E084
:100370000E940F066A83C90160E170E00E940F06C7
:100380006B83E8838FEF898360E08E2F0E942705BF
:1003900061E088810E94090580911901882311F587
:1003A00080911A018823F1F42FB7F89482E08093AA
:1003B00080008AE18093810088EB9BE09093890024
:1003C0008093880090938B0080938A0080E49CE95E
:1003D000909387008093860080916F00887F809340
:1003E0006F002FBF8881893041F481E0809319012B
:1003F000809180008F73806809C08A3049F481E061
:1004000080931A01809180008F7C806280938000AD
:1004100081E0DF91CF91089520E639E040E252E09B
:100420000E94AB01089580910201909103012091F7
:100430000001309101018F3A910579F42F3A31058D
:100440004CF021503040309301012093000185E0B1
:1004500090E00EC02F5F3F4F12C0263031056CF484
:100460002F5F3F4F30930101209300018FEA90E00E
:10047000909303018093020106C0215030403093D5
:1004800001012093000181E080931B0108958CE11C
:1004900091E00E9453010895CF93DF9380911B0157
:1004A000882309F462C010921B01609100017091D1
:1004B00001018CE191E00E94580180E00E94EB0470
:1004C000EC0120E030E04FEF50E060E070E080E2CF
:1004D00091E00E94D2034091010150E0662757FD50
:1004E0006095762F20E030E080E291E00E94D20318
:1004F0004091000150910101662757FD6095762FCC
:1005000050706070707020E030E080E291E00E94F6
:10051000D20360E070E080910201909103010597A1
:1005200011F061E070E080E291E00E94CA034D2F7B
:100530005527662757FD6095762F20E030E080E252
:1005400091E00E94D203AE01662757FD6095762F99
:1005500050706070707020E030E080E291E00E94A6
:10056000D20380E291E00E94F402DF91CF910895DE
:100570000F931F9340E056E960E070E080E291E065
:100580000E94EF020CE111E069E070E0C8010E94F6
:100590000C026091000170910101C8010E94580194
:1005A00043E152E062E370E080E090E00E94860068
:1005B0000E94D4001F910F9108950E94B1040E94DF
:1005C000B8020E944C02FDCF89E091E09093210196
:1005D000809320010895862F0E94AB050895CB01DA
:1005E000BA010E94720508950F931F938C01DC01DC
:1005F000ED91FC910190F081E02D6DE00995D8011D
:10060000ED91FC910190F081E02D6AE0C80109951F
:100610001F910F9108952F923F924F925F926F9288
:100620007F928F929F92AF92BF92CF92DF92EF9282
:10063000FF920F931F93DF93CF93CDB7DEB7A097B1
:100640000FB6F894DEBF0FBECDBF1C016A017B015F
:10065000411551056105710549F4DC01ED91FC91ED
:100660000190F081E02D60E3099554C0882499241D
:100670005401422E55246624772401E010E00C0F2B
:100680001D1F080D191DC701B601A30192010E948B
:100690002206F80160830894811C911CA11CB11CE6
:1006A000C701B601A30192010E942206C901DA0125
:1006B0006C017D01C114D104E104F104F1F681E083
:1006C000E82EF12CEC0EFD1EE80CF91C3E010894FE
:1006D000611C711CD501C4010197A109B1096C010C
:1006E000C818D90814C0F601EE0DFF1D60816A30EC
:1006F00010F4605D01C0695CD101ED91FC91019045
:10070000F081E02DC10109950894E108F1086E140B
:100710007F0449F7A0960FB6F894DEBF0FBECDBF99
:10072000CF91DF911F910F91FF90EF90DF90CF90CD
:10073000BF90AF909F908F907F906F905F904F9001
:100740003F902F900895EF92FF920F931F93CF93B6
:10075000DF93EC017A018B0177FF0FC0E881F9810B
:100760000190F081E02D6DE2099510950095F094CF
:10077000E094E11CF11C011D111D2AE0B801A70144
:10078000CE010E940B03DF91CF911F910F91FF903B
:10079000EF900895AB01662757FD6095762F0E9474
:1007A000A3030895DC012115310541F4ED91FC917D
:1007B0000190F081E02D642F099508952A303105CC
:1007C00019F40E94A30308950E940B0308951F9239
:1007D0000F920FB60F9211242F933F934F935F9375
:1007E0006F937F938F939F93AF93BF93EF93FF93F9
:1007F0008091220190912301892B29F0E09122011F
:10080000F09123010995FF91EF91BF91AF919F91D5
:100810008F917F916F915F914F913F912F910F90A9
:100820000FBE0F901F9018951F920F920FB60F9248
:1008300011242F933F934F935F936F937F938F93E5
:100840009F93AF93BF93EF93FF9380912401909177
:100850002501892B29F0E0912401F09125010995CA
:10086000FF91EF91BF91AF919F918F917F916F9188
:100870005F914F913F912F910F900FBE0F901F905E
:1008800018951F920F920FB60F9211242F938F93EA
:100890009F93AF93BF938091260190912701A091E0
:1008A0002801B09129010196A11DB11D8093260157
:1008B00090932701A0932801B093290180912A01E8
:1008C00090912B01A0912C01B0912D018050904C62
:1008D000AF4FBF4F80932A0190932B01A0932C011F
:1008E000B0932D0127C080912A0190912B01A091F6
:1008F0002C01B0912D0180589E43A040B0408093C0
:100900002A0190932B01A0932C01B0932D0180918B
:100910002E0190912F01A0913001B09131010196EB
:10092000A11DB11D80932E0190932F01A093300142
:10093000B093310180912A0190912B01A0912C015B
:10094000B0912D0181589E43A040B04060F6BF9108
:10095000AF919F918F912F910F900FBE0F901F908D
:100960001895789484B5826084BD84B5816084BD17
:1009700085B5826085BD85B5816085BDEEE6F0E018
:10098000808181608083E1E8F0E080818260808303
:10099000808181608083E0E8F0E0808181608083F5
:1009A000E1EBF0E0808184608083E0EBF0E0808127
:1009B00081608083EAE7F0E08081846080838081C9
:1009C0008260808380818160808380818068808371
:1009D0001092C10008958F70909104019295990F23
:1009E000990F907C982B90937C0080917A00806482
:1009F00080937A0080917A0086FDFCCF2091780068
:100A000040917900942F80E030E0282B392BC901E8
:100A10000895282F30E0C90185579F4FFC0194911C
:100A200029583F4FF9018491882381F0E82FF0E0A5
:100A3000E859FF4FE491F0E0662329F48081909516
:100A40008923808308958081892B80830895482F8E
:100A500050E0CA0181569F4FFC012491CA0185577D
:100A60009F4FFC01949149585F4FFA013491332311
:100A7000C1F1222331F1233021F4809180008F775E
:100A800005C0243031F4809180008F7D80938000F8
:100A900018C0213019F484B58F7704C0223021F4B6
:100AA00084B58F7D84BD0DC0263021F48091B000C7
:100AB0008F7705C0273029F48091B0008F7D809317
:100AC000B000E32FF0E0E359FF4FE491F0E066233C
:100AD00029F4808190958923808308958081892BD2
:100AE00080830895EF92FF920F931F937B018C01F7
:100AF00022E030E040E050E00E944406205C3D4BA4
:100B0000404F5F4FCA01B901A80197010E944406F6
:100B1000C901DA010197A109B109292F3A2F4B2FF9
:100B2000552747FD5A950196A11DB11D2093C5007B
:100B300081508093C400E1ECF0E08081806180838B
:100B40008081886080838081806880831F910F917D
:100B5000FF90EF900895982F8091C00085FFFCCF03
:100B60009093C60008951F920F920FB60F92112412
:100B70002F933F934F935F936F937F938F939F93A5
:100B8000AF93BF93EF93FF934091C600E091320182
:100B9000F0913301CF01019660E870E00E940F06EA
:100BA0009C0180913401909135012817390739F063
:100BB000EA5CFE4F40833093330120933201FF9172
:100BC000EF91BF91AF919F918F917F916F915F91C5
:100BD0004F913F912F910F900FBE0F901F9018953E
:100BE000629FD001739FF001829FE00DF11D649F11
:100BF000E00DF11D929FF00D839FF00D749FF00D9D
:100C0000659FF00D9927729FB00DE11DF91F639F3D
:100C1000B00DE11DF91FBD01CF011124089597FB0F
:100C2000092E07260AD077FD04D049D006D000202F
:100C30001AF4709561957F4F0895F6F79095819518
:100C40009F4F0895A1E21A2EAA1BBB1BFD010DC0E8
:100C5000AA1FBB1FEE1FFF1FA217B307E407F5076C
:100C600020F0A21BB30BE40BF50B661F771F881F48
:100C7000991F1A9469F760957095809590959B01DE
:100C8000AC01BD01CF01089597FB092E05260ED0BA
:100C900057FD04D0D7DF0AD0001C38F4509540959A
:100CA000309521953F4F4F4F5F4F0895F6F7909540
:100CB0008095709561957F4F8F4F9F4F0895AA1B28
:100CC000BB1B51E107C0AA1FBB1FA617B70710F037
:100CD000A61BB70B881F991F5A95A9F78095909569
:100CE000BC01CD010895EE0FFF1F0590F491E02D9A
:060CF0000994F894FFCF07
:0C0CF6000500AF000100000000EB020050
:00000001FF
