:100000000C945C000C9460050C948D050C94840099
:100010000C9484000C9484000C9484000C94840050
:100020000C9484000C9484000C9484000C94EB01D8
:100030000C9484000C9484000C9484000C94840030
:100040000C94BA050C9484000C9468070C948400FA
:100050000C9484000C9484000C9484000C94840010
:100060000C9484000C948400000024272A000025AE
:10007000282B000023262904040404040404040299
:100080000202020202030303030303010204081035
:100090002040800102040810200102040810200002
:1000A0000000070002010000030406000000000039
:1000B00000000000B202440411241FBECFEFD4E0C0
:1000C000DEBFCDBF11E0A0E0B1E0EAE0F1E102C0A7
:1000D00005900D92A431B107D9F712E0A4E1B1E087
:1000E00001C01D92A230B107E1F710E0C8EBD0E0EB
:1000F00004C02297FE010E947F08C43BD107C9F7C4
:100100000E943D040C9483080C940000FC01809133
:1001100014018C30A0F480838F5F80931401815090
:1001200090E0FC01EE0FFF1FEE0FFF1FE80FF91F1D
:10013000EB5EFE4F88EB9BE09283818308958FEF07
:10014000808308959F92AF92BF92CF92DF92EF92F9
:10015000FF920F931F93FC01AB0190808BE08915F8
:1001600008F490C0892D90E0683C71050CF046C001
:10017000FC01EE0FFF1FEE0FFF1FE80FF91FEB5EF4
:10018000FE4F8381992787FD909578E8E72EF12C23
:10019000E81AF90AEE0CFF1CEE0CFF1C0027F7FC16
:1001A0000095102FBA01882777FD8095982FE4815C
:1001B000FF27E7FDF09528E532E02E1B3F0B220FCD
:1001C000331F220F331F442737FD4095542F5F9371
:1001D0004F933F932F935701680114EBE12EF12CBD
:1001E000012D112D20E030E040E050E00E94A507F5
:1001F000AB010F900F900F900F9028C0FC01EE0FF5
:10020000FF1FEE0FFF1FE80FF91FEB5EFE4F83810C
:10021000992787FD909528E830E0281B390B220F9D
:10022000331F220F331F621773077CF084819927D5
:1002300087FD909528E532E0281B390B220F331FEC
:10024000220F331F241735070CF4A901CA01AA276E
:1002500097FDA095BA2F0697A109B109880F991F9C
:10026000AA1FBB1F4FB7F894292D30E0F901EE0FFC
:10027000FF1FEE0FFF1FE20FF31FEB5EFE4F928397
:1002800081834FBF1F910F91FF90EF90DF90CF9030
:10029000BF90AF909F900895CF92DF92EF92FF9220
:1002A0001F93CF93DF93EC01162F7A0169018881A8
:1002B0008C3008F07DC061E0812F0E948E0688811D
:1002C00090E0FC01EE0FFF1FEE0FFF1FE80FF91F7C
:1002D000EB5EFE4F1F738081807C812B8083888141
:1002E00090E0FC01EE0FFF1FEE0FFF1FE80FF91F5C
:1002F000EB5EFE4F80E292E08E199F0964E070E0B1
:100300000E9419086383888190E0FC01EE0FFF1FB3
:10031000EE0FFF1FE80FF91FEB5EFE4F80E699E03E
:100320008C199D0964E070E00E9419086483A8811B
:100330008A2F6CE00E940D08682F70E0AB01440F1B
:10034000551F460F571F440F551F440F551F20E0E0
:1003500030E0C901840F951FFC01EE0FFF1FEE0F67
:10036000FF1FE80FF91FEB5EFE4F808186FD12C074
:100370002F5F3F4F2C30310561F723C01092800072
:1003800082E080938100109285001092840086BBE9
:1003900080936F008A2F90E0FC01EE0FFF1FEE0F9D
:1003A000FF1FE80FF91FEB5EFE4F808180648083A2
:1003B0008881DF91CF911F91FF90EF90DF90CF90D8
:1003C0000895672BD9F2E6CF20E639E040E252E00B
:1003D0000E944C0108951F920F920FB60F921124A4
:1003E0002F933F934F935F936F937F938F939F933D
:1003F000AF93BF93EF93FF938091510187FF05C0A7
:1004000010928500109284002FC020915101332753
:1004100027FD30958091140190E02817390724F5C5
:1004200080915101992787FD9095FC01EE0FFF1FE8
:10043000EE0FFF1FE80FF91FEB5EFE4F808186FF76
:1004400013C080915101992787FD9095FC01EE0F13
:10045000FF1FEE0FFF1FE80FF91FEB5EFE4F8081BD
:1004600060E08F730E94AC06809151018F5F809392
:10047000510120915101332727FD309580911401BE
:1004800090E0281739070CF054C0809151018C304E
:100490000CF04FC020918400309185008091510173
:1004A000992787FD9095FC01EE0FFF1FEE0FFF1FB0
:1004B000E80FF91FEB5EFE4F81819281280F391FF3
:1004C000309389002093880080915101992787FDFE
:1004D0009095FC01EE0FFF1FEE0FFF1FE80FF91FB5
:1004E000EB5EFE4F808186FF2CC0809151019927E1
:1004F00087FD9095FC01EE0FFF1FEE0FFF1FE80F29
:10050000F91FEB5EFE4F808161E08F730E94AC06A5
:1005100018C080E49CE905C080918400909185001A
:10052000049690938900809388008FEF8093510107
:1005300008C0809184009091850084549C4948F3C0
:10054000EBCFFF91EF91BF91AF919F918F917F91F1
:100550006F915F914F913F912F910F900FBE0F9030
:100560001F9018950F931F9302E511E0C8010E9498
:100570008600C80101960E948600C80102960E946A
:100580008600C80103960E9486001F910F9108956E
:10059000AF92BF92CF92DF92EF92FF920F931F9391
:1005A000CF93DF9320915E0130915F01409156011E
:1005B000509157012417350784F4E0916A01F091B6
:1005C0006B01EE0FFF1FEA5FFE4F80819181820F6A
:1005D000931F90935F0180935E0120915E013091A3
:1005E0005F014217530784F4E0916A01F0916B01B7
:1005F000EE0FFF1FEA5FFE4F80819181281B390BB0
:1006000030935F0120935E0180916601882341F061
:1006100060915E0170915F0182E591E00E94A2000D
:10062000609158017091590183E591E00E94A20008
:1006300060915A0170915B0184E591E00E94A200F3
:1006400060915C0170915D0185E591E00E94A200DE
:100650003EE1A32EB12C2CE3C22ED12C9BEFE92E30
:100660009FEFF92ECAE0D0E08BC08CE691E00E94AB
:100670004F048436910591F18536910544F4823614
:10068000910539F18336910509F07AC014C082379B
:10069000910549F18A37910529F08037910509F0D4
:1006A0006FC057C090E080916601882309F491E003
:1006B0009093660165C080916A0190916B010196EB
:1006C00064E070E00E94190890936B0180936A01C6
:1006D00057C0D0935901C093580152C0B0925901EC
:1006E000A09258014DC08CE691E00E9452048823EC
:1006F000D1F38CE691E00E944F048C0160E071E040
:100700008CE691E00E945A04B8018CE691E00E94C8
:1007100048050C9DC0010D9D900D1C9D900D112450
:1007200062E170E00E941908645C7F4F70935D0184
:1007300060935C0164E071E08CE691E00E945A04F1
:1007400060915C0170915D018CE691E00E94500522
:1007500017C08CE691E00E9452048823D1F38CE606
:1007600091E00E944F049C012E9DC0012F9D900D91
:100770003E9D900D11248D9690935B0180935A01BC
:100780008CE691E00E945204882309F06ECF4091DC
:1007900056015091570180915E0190915F019A013D
:1007A000281B390B37FF03C0309521953F4FE0914F
:1007B0006A01F0916B01EE0FFF1FEA5FFE4F80812F
:1007C00091812817390764F44A32510519F481E6FA
:1007D00090E002C08AE290E0909357018093560126
:1007E00062E370E080E090E00E942A06DF91CF9102
:1007F0001F910F91FF90EF90DF90CF90BF90AF903F
:1008000008950F931F9340E855E260E070E08CE696
:1008100091E00E94550402E511E068E070E0C80133
:100820000E94E40169E070E0C80101960E94E401C1
:100830006AE070E0C80102960E94E4016BE070E09B
:10084000C80103960E94E40188E390E09093570169
:10085000809356018AE090E090935901809358016B
:100860008AE590E090935B0180935A0190935D013B
:1008700080935C011F910F9108950E9454060E947D
:1008800001040E94C802FDCF82E191E090936D01C6
:1008900080936C010895862F0E94300708950E946E
:1008A000490708950E9438070895CB01BA010E94B4
:1008B000F70608950F931F93CF93DF938C01EB01FD
:1008C00009C02196D801ED91FC910190F081E02DB5
:1008D000C801099568816623A1F7DF91CF911F9127
:1008E0000F9108950F931F938C01DC01ED91FC9102
:1008F0000190F081E02D6DE00995D801ED91FC911A
:100900000190F081E02D6AE0C80109951F910F91D7
:1009100008952F923F924F925F926F927F928F92A3
:100920009F92AF92BF92CF92DF92EF92FF920F937E
:100930001F93DF93CF93CDB7DEB7A0970FB6F89490
:10094000DEBF0FBECDBF1C016A017B014115510501
:100950006105710549F4DC01ED91FC910190F08194
:10096000E02D60E3099554C0882499245401422E57
:1009700055246624772401E010E00C0F1D1F080D9C
:10098000191DC701B601A30192010E942C08F801AC
:1009900060830894811C911CA11CB11CC701B60185
:1009A000A30192010E942C08C901DA016C017D01AA
:1009B000C114D104E104F104F1F681E0E82EF12C38
:1009C000EC0EFD1EE80CF91C3E010894611C711C24
:1009D000D501C4010197A109B1096C01C818D90852
:1009E00014C0F601EE0DFF1D60816A3010F4605DE9
:1009F00001C0695CD101ED91FC910190F081E02D85
:100A0000C10109950894E108F1086E147F0449F7C3
:100A1000A0960FB6F894DEBF0FBECDBFCF91DF9189
:100A20001F910F91FF90EF90DF90CF90BF90AF900C
:100A30009F908F907F906F905F904F903F902F90FE
:100A40000895EF92FF920F931F93CF93DF93EC01E2
:100A50007A018B0177FF0FC0E881F9810190F08165
:100A6000E02D6DE2099510950095F094E094E11C5D
:100A7000F11C011D111D2AE0B801A701CE010E9441
:100A80008904DF91CF911F910F91FF90EF9008950E
:100A9000AB01662757FD6095762F0E9421050895CA
:100AA0000F931F938C01AB01662757FD6095762F3E
:100AB0000E942105C8010E9472041F910F910895A0
:100AC0001F920F920FB60F9211242F933F934F93C3
:100AD0005F936F937F938F939F93AF93BF93EF93A6
:100AE000FF9380916E0190916F01892B29F0E09125
:100AF0006E01F0916F010995FF91EF91BF91AF9158
:100B00009F918F917F916F915F914F913F912F9125
:100B10000F900FBE0F901F9018951F920F920FB657
:100B20000F9211242F933F934F935F936F937F9373
:100B30008F939F93AF93BF93EF93FF938091700137
:100B400090917101892B29F0E0917001F091710170
:100B50000995FF91EF91BF91AF919F918F917F91F7
:100B60006F915F914F913F912F910F900FBE0F901A
:100B70001F9018951F920F920FB60F9211242F936A
:100B80008F939F93AF93BF93809172019091730164
:100B9000A0917401B09175010196A11DB11D8093C2
:100BA000720190937301A0937401B09375018091C9
:100BB000760190917701A0917801B09179018050F0
:100BC000904CAF4FBF4F8093760190937701A093E5
:100BD0007801B093790127C08091760190917701D7
:100BE000A0917801B091790180589E43A040B04017
:100BF0008093760190937701A0937801B093790167
:100C000080917A0190917B01A0917C01B0917D014E
:100C10000196A11DB11D80937A0190937B01A09351
:100C20007C01B0937D018091760190917701A09134
:100C30007801B091790181589E43A040B04060F6A0
:100C4000BF91AF919F918F912F910F900FBE0F90F9
:100C50001F901895EF92FF920F931F937B018C01C9
:100C60008FB7F89440917A0150917B0160917C019B
:100C700070917D018FBF2FB7F89480917A01909188
:100C80007B01A0917C01B0917D012FBF841B950B4E
:100C9000A60BB70BE816F9060A071B0760F71F91AA
:100CA0000F91FF90EF900895789484B5826084BD91
:100CB00084B5816084BD85B5826085BD85B5816060
:100CC00085BDEEE6F0E0808181608083E1E8F0E0C0
:100CD000808182608083808181608083E0E8F0E0B1
:100CE000808181608083E1EBF0E08081846080839B
:100CF000E0EBF0E0808181608083EAE7F0E08081D2
:100D00008460808380818260808380818160808331
:100D10008081806880831092C1000895282F30E080
:100D2000C90185579F4FFC01949129583F4FF90104
:100D30008491882381F0E82FF0E0E859FF4FE49197
:100D4000F0E0662329F480819095892380830895BB
:100D50008081892B80830895482F50E0CA018156F5
:100D60009F4FFC012491CA0185579F4FFC0194912C
:100D700049585F4FFA0134913323C1F1222331F1F5
:100D8000233021F4809180008F7705C0243031F426
:100D9000809180008F7D8093800018C0213019F4ED
:100DA00084B58F7704C0223021F484B58F7D84BD53
:100DB0000DC0263021F48091B0008F7705C0273018
:100DC00029F48091B0008F7D8093B000E32FF0E094
:100DD000E359FF4FE491F0E0662329F48081909578
:100DE0008923808308958081892B80830895EF92E1
:100DF000FF920F931F937B018C0122E030E040E0D3
:100E000050E00E944E08205C3D4B404F5F4FCA01AE
:100E1000B901A80197010E944E08C901DA010197A2
:100E2000A109B109292F3A2F4B2F552747FD5A9574
:100E30000196A11DB11D2093C50081508093C4006F
:100E4000E1ECF0E080818061808380818860808334
:100E50008081806880831F910F91FF90EF900895AB
:100E6000982F8091C00085FFFCCF9093C600089515
:100E700080917E0190917F0180589F4F2091800149
:100E800030918101821B930B60E870E00E94190889
:100E90000895409180015091810180917E0190914F
:100EA0007F018417950719F42FEF3FEF0FC0FA0168
:100EB000EE57FE4F2081CA01019660E870E00E9463
:100EC0001908909381018093800130E0C901089551
:100ED0001F920F920FB60F9211242F933F934F93AF
:100EE0005F936F937F938F939F93AF93BF93EF9392
:100EF000FF934091C600E0917E01F0917F01CF0108
:100F0000019660E870E00E9419089C0180918001C0
:100F1000909181012817390739F0EE57FE4F408331
:100F200030937F0120937E01FF91EF91BF91AF91AC
:100F30009F918F917F916F915F914F913F912F91F1
:100F40000F900FBE0F901F9018952F923F924F92C7
:100F50005F926F927F928F929F92AF92BF92CF9249
:100F6000DF92EF92FF920F931F93DF93CF93CDB752
:100F7000DEB73B014C0119012A016D897E898F89F9
:100F8000988D6A197B098C099D09621A730A840A73
:100F9000950AA40193010E94EE07E218F3080409E0
:100FA0001509A80197010E944E082A0D3B1D4C1DF2
:100FB0005D1DB901CA01CF91DF911F910F91FF9083
:100FC000EF90DF90CF90BF90AF909F908F907F90E9
:100FD0006F905F904F903F902F900895629FD00147
:100FE000739FF001829FE00DF11D649FE00DF11DE4
:100FF000929FF00D839FF00D749FF00D659FF00D93
:101000009927729FB00DE11DF91F639FB00DE11D7F
:10101000F91FBD01CF0111240895991B79E004C087
:10102000991F961708F0961B881F7A95C9F7809527
:10103000089597FB092E07260AD077FD04D049D0E2
:1010400006D000201AF4709561957F4F0895F6F749
:10105000909581959F4F0895A1E21A2EAA1BBB1B64
:10106000FD010DC0AA1FBB1FEE1FFF1FA217B30774
:10107000E407F50720F0A21BB30BE40BF50B661F8A
:10108000771F881F991F1A9469F76095709580954E
:1010900090959B01AC01BD01CF01089597FB092EEE
:1010A00005260ED057FD04D0D7DF0AD0001C38F437
:1010B00050954095309521953F4F4F4F5F4F089584
:1010C000F6F790958095709561957F4F8F4F9F4F64
:1010D0000895AA1BBB1B51E107C0AA1FBB1FA6177F
:1010E000B70710F0A61BB70B881F991F5A95A9F7D1
:1010F00080959095BC01CD010895EE0FFF1F0590DE
:0A110000F491E02D0994F894FFCF5C
:10110A00723A2000200001000200040008000000DA
:04111A0000004B0482
:00000001FF
