:100000000C942C010C94FA0A0C94270B0C945401B8
:100010000C9454010C9454010C9454010C9454010C
:100020000C9454010C9454010C9454010C945401FC
:100030000C9454010C9454010C9454010C945401EC
:100040000C94540B0C9454010C94990C0C94540182
:100050000C9454010C9454010C9454010C945401CC
:100060000C94D2030C945401426C696E6B4D206E5B
:100070006F742061742065787065637465642061B5
:100080006464726573732E202052657365742061F9
:100090006464726573732077697468202741272030
:1000A000636F6D6D616E640A000A426C696E6B4D20
:1000B000546573746572210A27633C7272676762C4
:1000C000623E2720206661646520746F20616E2087
:1000D00072676220636F6C6F720A27683C6868738E
:1000E0007362623E2720206661646520746F206120
:1000F0006E2068736220636F6C6F720A27433C72D4
:1001000072676762623E2720206661646520746FB3
:1001100020612072616E646F6D2072676220636F70
:100120006C6F720A27483C6868737362623E2720CE
:10013000206661646520746F20612072616E646F57
:100140006D2068736220636F6C6F720A27703C6E5B
:100150003E272020706C6179206120736372697082
:10016000740A276F27202073746F702061207363D7
:10017000726970740A27663C6E6E3E2720206368A1
:10018000616E676520666164652073706565640AE9
:1001900027743C6E6E3E2720207365742074696D51
:1001A000652061646A0A27672720206765742063D9
:1001B000757272656E7420636F6C6F720A276127A7
:1001C000202067657420493243206164647265733E
:1001D000730A27413C6E3E27202073657420493204
:1001E0004320616464726573730A27422720207379
:1001F0006574207374617274757020706172616DC2
:100200007320746F2064656661756C740A275A27C1
:10021000202067657420426C696E6B4D2076657294
:1002200073696F6E0A276927202067657420696EDD
:100230007075742076616C7565730A273F272020DE
:10024000666F7220746869732068656C70206D73C6
:10025000670A0000CE02B30911241FBECFEFD4E01D
:10026000DEBFCDBF12E0A0E0B1E0E0EBFAE102C0FA
:1002700005900D92A836B107D9F713E0A8E6B2E0D1
:1002800001C01D92AD33B107E1F712E0C8E5D2E03D
:1002900004C02297FE010E943C0DC435D107C9F766
:1002A0000E94AC090C94560D0C9400000F931F9300
:1002B000CF93DF93689F8001699F100D789F100D89
:1002C0001124C8010E947201EC01009729F0A801D5
:1002D00060E070E00E949202CE01DF91CF911F9109
:1002E0000F910895CF93DF93BC018230910510F4F4
:1002F00062E070E0A0913B03B0913C03ED01E0E0CF
:10030000F0E040E050E021C088819981861797078E
:1003100069F48A819B81309719F09383828304C0AA
:1003200090933C0380933B03FE0134C06817790728
:1003300038F44115510519F08417950708F4AC01FC
:10034000FE018A819B819C01E9012097E9F6411514
:100350005105A9F1CA01861B970B049708F4BA014D
:10036000E0E0F0E02AC08D919C91119784179507E9
:10037000F9F46417750781F412968D919C91139787
:10038000309719F09383828304C090933C03809349
:100390003B03FD0132964CC0CA01861B970BFD0141
:1003A000E80FF91F6193719302978D939C9340C05E
:1003B000FD01828193819C01D9011097A1F6809162
:1003C000390390913A03892B41F480915C0290911A
:1003D0005D0290933A038093390340915E025091FD
:1003E0005F024115510541F44DB75EB780915A0245
:1003F00090915B02481B590B2091390330913A03CD
:10040000CA01821B930B8617970780F0AB014E5FE2
:100410005F4F8417950750F0420F531F50933A03D4
:1004200040933903F9016193719302C0E0E0F0E079
:10043000CF01DF91CF910895CF93DF93009709F417
:1004400050C0EC0122971B821A82A0913B03B0910D
:100450003C03109709F140E050E0AC17BD0708F1EC
:10046000BB83AA83FE0121913191E20FF31FAE17E6
:10047000BF0779F48D919C911197280F391F2E5F3A
:100480003F4F3983288312968D919C9113979B83BC
:100490008A834115510571F4D0933C03C0933B030B
:1004A00020C012968D919C911397AD01009711F089
:1004B000DC01D3CFFA01D383C28321913191E20FC2
:1004C000F31FCE17DF0769F488819981280F391F40
:1004D0002E5F3F4FFA01318320838A819B81938372
:1004E0008283DF91CF910895FC0188279927E894B2
:1004F00021912032E9F3293010F02E30C8F32B324D
:1005000041F02D3239F4689404C00E949902820FA0
:10051000911D219120532A30C0F31EF490958195AE
:100520009F4F0895DC0101C06D9341505040E0F7AA
:1005300008957AE0979F902D879F802D910D11242B
:10054000089581E08093710260936C0210926F02B3
:1005500010927002089581E08093710260936C02A2
:1005600010926F0210927002089580916B02909128
:100570006A02891B089590916A0280916B02981714
:1005800010F080E00895E0916802F0916902E90FAF
:10059000F11D80819F5F90936A0208950895DF9313
:1005A000CF930F92CDB7DEB7698380917102882314
:1005B000A9F0809170028032B0F480916F02E091D6
:1005C0006D02F0916E02E80FF11D608380916F0261
:1005D0008F5F80936F028093700205C061E0CE014F
:1005E00001960E94B5030F90CF91DF9108950E946C
:1005F000CF02089560916D0270916E0221E04091EA
:10060000700280916C020E94700310926F0210922F
:100610007002109271020895862F413208F040E274
:1006200060916802709169020E943A0310926A0216
:1006300080936B02089561E070E080E290E00E9498
:100640005601809368029093690210926A02109298
:100650006B0261E070E080E290E00E9456018093BE
:100660006D0290936E0210926F02109270020E94BF
:1006700054050895982F413210F040E02FC080912A
:1006800073028823E1F781E0809373028FEF8093F8
:10069000840210927B0240937C02990F91609093A8
:1006A000740285EE8093BC00809173028130E1F387
:1006B00080917B02841710F440917B02A091790213
:1006C000B0917A0220E030E007C0FB01E20FF31F97
:1006D0008D9180832F5F3F4F2417B8F3842F0895A7
:1006E0001F93582F122F413210F081E03CC08091AF
:1006F00073028823E1F782E0809373028FEF809387
:10070000840210927B0240937C02A0917902B09106
:100710007A02FB0102C081918D938E2F861B841774
:10072000D0F3852F90E0880F991F8093740285EE97
:100730008093BC00112321F0809173028230E1F399
:10074000809184028F3F11F480E00DC0809184027B
:10075000803211F482E007C080918402803311F06E
:1007600084E001C083E01F910895482F613210F0AA
:1007700081E0089580917302843011F082E0089541
:1007800060938002A0917D02B0917E02842F9C0133
:10079000F90102C081918D938E2F841B8617D0F3AF
:1007A00080E008951F920F920FB60F9211242F939D
:1007B0003F934F935F936F937F938F939F93AF93E9
:1007C000BF93EF93FF938091B90090E0887F907082
:1007D0008036910509F4E2C081369105CCF5883266
:1007E000910509F47BC089329105B4F480319105FB
:1007F00009F46FC0813191053CF4009709F438C1C8
:10080000089709F040C165C08831910509F466C0B8
:10081000809709F038C17FC08034910509F4A3C0E6
:100820008134910544F48033910509F47FC0C89761
:1008300009F029C186C08035910509F486C0883544
:10084000910509F495C08834910509F01CC19EC03A
:100850008839910509F404C189399105ECF4883788
:10086000910509F49BC0893791054CF488369105B0
:1008700009F494C08037910509F005C18FC088380C
:10088000910509F4EDC08039910509F48DC08038D7
:10089000910509F0F8C088C0803B910509F4B2C009
:1008A000813B91054CF4803A910509F491C0883A56
:1008B000910509F0E8C0A6C0803C910509F4D4C0B8
:1008C000883C910509F4D0C0883B910509F0DBC054
:1008D000B1C0809174028093BB00C0C090917B0234
:1008E00080917C02981778F490917B02E0917902D4
:1008F000F0917A02E90FF11D80818093BB009F5F28
:1009000090937B02ABC085ED8093BC008091BC00CE
:1009100084FDFCCFB6C080E28093840285ED809395
:10092000BC008091BC0084FDFCCFABC080E3809311
:10093000840285ED8093BC008091BC0084FDFCCFD7
:10094000A0C088E3809384028FC080917B02909145
:10095000BB00E0917902F0917A02E80FF11D9083DB
:100960008F5F80937B0290917B0280917C0274C0A8
:1009700080917B029091BB00E0917902F0917A0224
:10098000E80FF11D90838F5F80937B0285ED80934C
:10099000BC008091BC0084FDFCCF73C083E08093D9
:1009A0007302109283025AC080918302803208F051
:1009B00057C0809183029091BB00E0918102F09139
:1009C0008202E80FF11D90838F5F8093830246C0FF
:1009D00080918302803248F480918302E091810209
:1009E000F0918202E80FF11D108260918302E09184
:1009F0007702F091780270E08091810290918202FA
:100A0000099532C084E08093730210927F021092A5
:100A10008002E0917502F091760209958091800242
:100A2000882341F481E080938002E0917D02F0917F
:100A30007E02108290917F02E0917D02F0917E0211
:100A4000E90FF11D80818093BB009F5F90937F022F
:100A500090917F0280918002981710F485EC01C07C
:100A600085E88093BC000FC085EC8093BC0009C072
:100A70001092840285ED8093BC008091BC0084FDBF
:100A8000FCCF10927302FF91EF91BF91AF919F91B4
:100A90008F917F916F915F914F913F912F910F9027
:100AA0000FBE0F901F90189510927302449A459AAA
:100AB000E9EBF0E080818E7F808380818D7F808371
:100AC00088E48093B80085E48093BC0061E070E026
:100AD00080E290E00E9456018093790290937A021E
:100AE00061E070E080E290E00E94560180937D0218
:100AF00090937E0261E070E080E290E00E945601F7
:100B0000809381029093820208950F931F93CF9355
:100B1000DF9383EA92E00E94C1098823E1F06AE052
:100B200070E080E090E00E94C40BC0E0D0E007C01D
:100B300083EA92E00E94BE09F8018083219683EA4D
:100B400092E00E94C1098E010B571D4F882381F747
:100B5000F80110828C2FDF91CF911F910F91089592
:100B60000F931F93162F992787FD90950E944B0D89
:100B7000082F992787FD90950E94400D892BD1F071
:100B80000A330CF00750812F992787FD90950E941A
:100B90004B0D182F992787FD90950E94400D892BAA
:100BA00049F01A330CF01750802F8295807F8053C4
:100BB000810F01C080E01F910F910895CF93DF93C3
:100BC000EC01009761F410C0552747FD5095652F43
:100BD000752F20E030E083EA92E00E94DA0AFE01FD
:100BE00021964491442381F7DF91CF91089589EABA
:100BF00090E00E94DE0508951F93182F682F82E76A
:100C000092E00E94A10261E670E082E792E00E9419
:100C1000F70282E792E00E94FA0241E0612F82E748
:100C200092E00E940C0382E792E00E94B5028823C2
:100C300019F42FEF3FEF06C082E792E00E94BB025B
:100C4000282F30E0C9011F910895FF920F931F9341
:100C5000F82E02E712E060E070E0C8010E94AB02EB
:100C600061E470E0C8010E94F7026F2DC8010E9484
:100C7000CF0260ED70E0C8010E94F7026DE070E005
:100C8000C8010E94F7026F2DC8010E94CF02C8015F
:100C90000E94FA0262E370E080E090E00E94C40BE0
:100CA0001F910F91FF900895CF92DF92EF92FF92E4
:100CB0000F931F93DF93CF9300D000D0CDB7DEB753
:100CC0000E948505882309F4F1C265E872E083EA91
:100CD00092E00E94000AF090850205E812E00F5FA2
:100CE0001F4FF801E080F0E2EF16C9F3C8010E943F
:100CF00074026C018FE3F81619F40E94F705CEC256
:100D0000E3E6FE1651F0F8E6FF1639F083E4F81634
:100D100021F0E8E4FE1609F09FC0F80161818E2DF4
:100D20000E94B005E82EF801638182810E94B0051F
:100D3000D82EF801658184810E94B005182FF3E652
:100D4000FF1679F460E071E083EA92E00E94D10935
:100D50006091600282E792E00E94A10263E670E087
:100D600035C088E6F81679F46FE071E083EA92E026
:100D70000E94D1096091600282E792E00E94A10284
:100D800068E670E023C0E3E4FE1679F46EE171E0FA
:100D900083EA92E00E94D1096091600282E792E0CA
:100DA0000E94A10263E470E011C0F8E4FF1629F587
:100DB0006FE271E083EA92E00E94D10960916002E3
:100DC00082E792E00E94A10268E470E082E792E08C
:100DD0000E94F7026E2D82E792E00E94CF026D2DF5
:100DE00082E792E00E94CF02612F82E792E00E94A8
:100DF000CF0282E792E00E94FA024E2D50E060E0BE
:100E000070E020E130E083EA92E00E94DA0A60E4D8
:100E100071E083EA92E00E94D1094D2D50E060E03C
:100E200070E020E130E083EA92E00E94DA0A60E4B8
:100E300071E083EA92E00E94D109412F50E060E026
:100E400070E020E130E083EA92E00E94DA0A83EA6F
:100E500092E00E94E90922C286E6F816D1F462E423
:100E600071E083EA92E00E94D109A601662757FD4E
:100E70006095762F2AE030E083EA92E00E94EF0A44
:100E80006091600282E792E00E94A10266E670E053
:100E90001CC0E4E7FE16F9F465E571E083EA92E030
:100EA0000E94D109A601662757FD6095762F2AE09A
:100EB00030E083EA92E00E94EF0A6091600282E7EC
:100EC00092E00E94A10264E770E082E792E00E9453
:100ED000F7026C2D73C1F0E7FF1621F563E671E0B0
:100EE00083EA92E00E94D109A601662757FD60952A
:100EF000762F2AE030E083EA92E00E94EF0A6091C8
:100F0000600282E792E00E94A10260E770E082E75F
:100F100092E00E94F7026C2D82E792E00E94CF02DD
:100F200060E047C18FE6F81699F461E771E083EA63
:100F300092E00E94000A6091600282E792E00E94C3
:100F4000A1026FE670E082E792E00E94F7023AC1E8
:100F5000E7E6FE1609F05FC06DE771E083EA92E014
:100F60000E94D10910916002612F82E792E00E94F5
:100F7000A10267E670E082E792E00E94F70282E752
:100F800092E00E94FA0243E0612F82E792E00E9421
:100F90000C0382E792E00E94B502882379F082E791
:100FA00092E00E94BB02182F82E792E00E94BB02EF
:100FB000082F82E792E00E94BB02F82E6DE871E0F4
:100FC00083EA92E00E94D109412F50E060E070E096
:100FD00020E130E083EA92E00E94DA0A60E471E006
:100FE00083EA92E00E94D109402F50E060E070E077
:100FF00020E130E083EA92E00E94DA0A60E471E0E6
:1010000083EA92E00E94D1094F2D50E060E070E049
:1010100020E130E099C0F1E4FF1659F5C6010197CF
:101020008E3F9105B8F464E971E083EA92E00E9492
:10103000D109A601662757FD6095762F2AE030E09A
:1010400083EA92E00E94EF0A8C2D0E942506C0924E
:10105000600224C1CD2809F021C169EA71E083EA68
:1010600092E00E94000A89E0809360020E942506B7
:1010700015C181E6F81681F46DEC71E083EA92E027
:101080000E94D109809160020E94FC05BC0183EAA4
:1010900092E00E94CA0A02C1EAE5FE1609F059C0B0
:1010A00067ED71E083EA92E00E94D109109160023D
:1010B000612F82E792E00E94A1026AE570E082E778
:1010C00092E00E94F70282E792E00E94FA0242E078
:1010D000612F82E792E00E940C0382E792E00E9477
:1010E000B502882391F082E792E00E94BB02182F9C
:1010F00082E792E00E94BB02312F20E08901080FB5
:10110000111DFFEF0F3F1F0741F468EE71E083EA06
:1011100092E00E94000A0FEF1FEF412F552747FD75
:101120005A95552747FD5095652F752F20E030E0E3
:1011300083EA92E00E94DA0A402F552747FD509536
:10114000652F752F20E030E083EA92E00E94EF0ADD
:10115000A5C082E4F816D9F56DEF71E083EA92E05C
:101160000E94D109A601662757FD6095762F2AE0D7
:1011700030E083EA92E00E94EF0A6091600282E729
:1011800092E00E94A10262E470E082E792E00E9495
:10119000F7026C2D82E792E00E94CF0260E082E7C6
:1011A00092E00E94CF0260E082E792E00E94CF02CC
:1011B00061E082E792E00E94CF0260E082E792E085
:1011C0000E94CF0282E792E00E94FA0267C0E9E63D
:1011D000FE1609F05DC06FE072E083EA92E00E94C3
:1011E000D10910916002612F82E792E00E94A10272
:1011F00069E670E082E792E00E94F70282E792E0FF
:101200000E94FA0244E0612F82E792E00E940C0300
:1012100082E792E00E94B5028430D0F382E792E048
:101220000E94BB02898382E792E00E94BB028A830C
:1012300082E792E00E94BB028B8382E792E00E94E9
:10124000BB028C837E010894E11CF11C870185E0C0
:10125000C82ED12CCC0EDD1EF801408150E060E09C
:1012600070E020E130E083EA92E00E94DA0A802F09
:101270008E19833011F06CE201C06AE083EA92E0DB
:101280000E94C9090F5F1F4F0C151D0529F706C0E5
:101290006CE172E083EA92E00E94000A10928502FB
:1012A0006DE272E083EA92E00E94D1090F900F9004
:1012B0000F900F90CF91DF911F910F91FF90EF90C2
:1012C000DF90CF9008951F9387B18C6087B94298C3
:1012D000439A64E670E080E090E00E94C40B82E7ED
:1012E00092E00E941B0364E670E080E090E00E94C0
:1012F000C40B809160020E94250640E855E260E040
:1013000070E083EA92E00E94C4090E94F705809190
:1013100060020E94FC05182F809160021817A1F04E
:1013200062E372E083EA92E00E94D109412F50E02B
:1013300060E070E020E130E083EA92E00E94EF0A92
:1013400088E690E00E94DE056DE272E083EA92E0BA
:101350000E94D1091F9108950E94EE0B0E9463091B
:101360000E945406FDCF85E692E09093A4028093FC
:10137000A3020895862F0E94610C08950E947A0CA2
:1013800008950E94690C0895CB01BA010E94280CAF
:101390000895DC01ED91FC910190F081E02D09951B
:1013A00008950F931F93CF93DF938C01EB0109C036
:1013B0002196D801ED91FC910190F081E02DC801BA
:1013C000099568816623A1F7DF91CF911F910F9155
:1013D00008950F931F938C01DC01ED91FC91019016
:1013E000F081E02D6DE00995D801ED91FC9101901F
:1013F000F081E02D6AE0C80109951F910F910895D1
:101400000F931F938C010E94D109C8010E94E90922
:101410001F910F9108952F923F924F925F926F927A
:101420007F928F929F92AF92BF92CF92DF92EF9274
:10143000FF920F931F93DF93CF93CDB7DEB7A097A3
:101440000FB6F894DEBF0FBECDBF1C016A017B0151
:10145000411551056105710549F4DC01ED91FC91DF
:101460000190F081E02D60E3099554C0882499240F
:101470005401422E55246624772401E010E00C0F1D
:101480001D1F080D191DC701B601A30192010E947D
:10149000E90CF80160830894811C911CA11CB11C0B
:1014A000C701B601A30192010E94E90CC901DA014A
:1014B0006C017D01C114D104E104F104F1F681E075
:1014C000E82EF12CEC0EFD1EE80CF91C3E010894F0
:1014D000611C711CD501C4010197A109B1096C01FE
:1014E000C818D90814C0F601EE0DFF1D60816A30DE
:1014F00010F4605D01C0695CD101ED91FC91019037
:10150000F081E02DC10109950894E108F1086E14FD
:101510007F0449F7A0960FB6F894DEBF0FBECDBF8B
:10152000CF91DF911F910F91FF90EF90DF90CF90BF
:10153000BF90AF909F908F907F906F905F904F90F3
:101540003F902F900895EF92FF920F931F93CF93A8
:10155000DF93EC017A018B0177FF0FC0E881F981FD
:101560000190F081E02D6DE2099510950095F094C1
:10157000E094E11CF11C011D111D2AE0B801A70136
:10158000CE010E940B0ADF91CF911F910F91FF9026
:10159000EF9008950F931F938C01AB01662757FDC1
:1015A0006095762F0E94A30AC8010E94E9091F9145
:1015B0000F910895DC012115310541F4ED91FC9165
:1015C0000190F081E02D642F099508952A303105AE
:1015D00019F40E94A30A08950E940B0A08950F931C
:1015E0001F938C010E94DA0AC8010E94E9091F9129
:1015F0000F9108951F920F920FB60F9211242F93FF
:101600003F934F935F936F937F938F939F93AF938A
:10161000BF93EF93FF938091A5029091A602892B2F
:1016200029F0E091A502F091A6020995FF91EF91B2
:10163000BF91AF919F918F917F916F915F914F91EA
:101640003F912F910F900FBE0F901F9018951F92F2
:101650000F920FB60F9211242F933F934F935F93E6
:101660006F937F938F939F93AF93BF93EF93FF936A
:101670008091A7029091A802892B29F0E091A702FE
:10168000F091A8020995FF91EF91BF91AF919F91C1
:101690008F917F916F915F914F913F912F910F901B
:1016A0000FBE0F901F9018951F920F920FB60F92BA
:1016B00011242F938F939F93AF93BF938091A9028F
:1016C0009091AA02A091AB02B091AC020196A11D2B
:1016D000B11D8093A9029093AA02A093AB02B0938C
:1016E000AC028091AD029091AE02A091AF02B09198
:1016F000B0028050904CAF4FBF4F8093AD0290939B
:10170000AE02A093AF02B093B00227C08091AD02A9
:101710009091AE02A091AF02B091B00280589E436A
:10172000A040B0408093AD029093AE02A093AF0270
:10173000B093B0028091B1029091B202A091B30235
:10174000B091B4020196A11DB11D8093B102909396
:10175000B202A093B302B093B4028091AD02909113
:10176000AE02A091AF02B091B00281589E43A0405A
:10177000B04060F6BF91AF919F918F912F910F90E4
:101780000FBE0F901F901895EF92FF920F931F932B
:101790007B018C018FB7F8944091B1025091B20255
:1017A0006091B3027091B4028FBF2FB7F89480910B
:1017B000B1029091B202A091B302B091B4022FBFD6
:1017C000841B950BA60BB70BE816F9060A071B0737
:1017D00060F71F910F91FF90EF900895789484B572
:1017E000826084BD84B5816084BD85B5826085BD1D
:1017F00085B5816085BDEEE6F0E080818160808303
:10180000E1E8F0E080818260808380818160808374
:10181000E0E8F0E0808181608083E1EBF0E08081AE
:1018200084608083E0EBF0E0808181608083EAE780
:10183000F0E0808184608083808182608083808109
:10184000816080838081806880831092C1000895C8
:10185000EF92FF920F931F937B018C0122E030E007
:1018600040E050E00E940B0D205C3D4B404F5F4F2D
:10187000CA01B901A80197010E940B0DC901DA0143
:101880000197A109B109292F3A2F4B2F552747FD61
:101890005A950196A11DB11D2093C50081508093DA
:1018A000C400E1ECF0E08081806180838081886009
:1018B00080838081806880831F910F91FF90EF90DB
:1018C0000895982F8091C00085FFFCCF9093C600AB
:1018D00008958091B5029091B60280589F4F209153
:1018E000B7023091B802821B930B60E870E00E944F
:1018F000D60C08954091B7025091B8028091B5027C
:101900009091B6028417950719F42FEF3FEF0FC09F
:10191000FA01E754FD4F2081CA01019660E870E0AA
:101920000E94D60C9093B8028093B70230E0C901B0
:1019300008951F920F920FB60F9211242F933F9389
:101940004F935F936F937F938F939F93AF93BF93C7
:10195000EF93FF934091C600E091B502F091B6027B
:10196000CF01019660E870E00E94D60C9C01809146
:10197000B7029091B8022817390739F0E754FD4FA4
:1019800040833093B6022093B502FF91EF91BF914F
:10199000AF919F918F917F916F915F914F913F9107
:1019A0002F910F900FBE0F901F90189597FB092E47
:1019B00007260AD077FD04D049D006D000201AF4BB
:1019C000709561957F4F0895F6F7909581959F4F9B
:1019D0000895A1E21A2EAA1BBB1BFD010DC0AA1F70
:1019E000BB1FEE1FFF1FA217B307E407F50720F088
:1019F000A21BB30BE40BF50B661F771F881F991F03
:101A00001A9469F760957095809590959B01AC014B
:101A1000BD01CF01089597FB092E05260ED057FD75
:101A200004D0D7DF0AD0001C38F45095409530958B
:101A300021953F4F4F4F5F4F0895F6F79095809552
:101A4000709561957F4F8F4F9F4F0895AA1BBB1BC9
:101A500051E107C0AA1FBB1FA617B70710F0A61BAE
:101A6000B70B881F991F5A95A9F780959095BC01CF
:101A7000CD010895EE0FFF1F0590F491E02D09941C
:101A8000911111C080538A5028F0865C8062815683
:101A90008650B8F708959111089581568A5108F437
:101AA000805285580895992788270895F894FFCF84
:101AB0004661646520746F20722C672C623A004680
:101AC00061646520746F20682C732C623A00526147
:101AD0006E646F6D20627920722C672C623A00521E
:101AE000616E646F6D20627920682C732C623A00FD
:101AF0002C005365742066616465207370656564AD
:101B000020746F3A005365742074696D65206164B8
:101B10006A3A00506C617920736372697074202393
:101B20000053746F70207363726970740043757230
:101B300072656E7420636F6C6F723A2000722C674E
:101B40002C623A0053657474696E67206164647234
:101B500065737320746F3A200052657365747469FD
:101B60006E67206164647265737320746F206465AE
:101B70006661756C7420307830393A2000416464B5
:101B8000726573733A2000426C696E6B4D20766506
:101B90007273696F6E3A2000636F756C646E2774A0
:101BA000206765742076657273696F6E0053657483
:101BB0002073746172747570206D6F64653A00678C
:101BC000657420496E707574733A2000556E7265A5
:101BD000636F676E697A656420636D6400636D642A
:101BE0003E000D0A6572726F723A20616464722061
:101BF0006D69736D617463682C2061646472207216
:101C0000656365697665643A200020003D03000045
:081C10000900000000BA090000
:00000001FF
