:100000000C9436000C945E000C945E000C945E0020
:100010000C945E000C945E000C945E000C945E00E8
:100020000C945E000C945E000C945E000C945E00D8
:100030000C945E000C945E000C945E000C945E00C8
:100040000C94FF050C945E000C9427070C945E0042
:100050000C945E000C945E000C945E000C945E00A8
:100060000C9481020C945E008E01FE0511241FBECB
:10007000CFEFD4E0DEBFCDBF11E0A0E0B1E0EEE80D
:10008000F3E102C005900D92AE33B107D9F711E04C
:10009000AEE3B1E001C01D92AD3EB107E1F710E063
:1000A000CCE6D0E004C02297FE010E94C209C83607
:1000B000D107C9F70E9427050C94C6090C940000CB
:1000C0000895089581E08093470160934201109262
:1000D000450110924601089580914101909140019F
:1000E000891B99270895209140018091410128178B
:1000F00010F080E00AC0E0913E01F0913F01E20F74
:10010000F11D80812F5F2093400199270895AC0154
:1001100080914A0190914B01892B29F190914001E6
:10012000809141019817F8F020E030E00AC0E0919A
:100130003E01F0913F01EA0FFB1FA40FB51F8C9108
:100140008083822F2F5F3F4FA82FBB27A617B707AB
:1001500074F31092400160934101E0914A01F091E3
:100160004B01CB0109950895E0914801F0914901B7
:10017000309729F010924501109246010995089593
:1001800070934B0160934A01089570934901609305
:1001900048010895CF93DF93CDB7DEB721970FB60F
:1001A000F894DEBF0FBECDBF6983809147018823DD
:1001B000A9F0809146018032B0F480914501E09130
:1001C0004301F0914401E80FF11D608380914501E6
:1001D0008F5F809345018093460105C061E0CE01A9
:1001E00001960E94060221960FB6F894DEBF0FBE5C
:1001F000CDBFDF91CF9108950E94CA000895EF927C
:10020000FF920F931F93CF93DF937C01EB01042F99
:1002100080914701882369F010E008C0FE01E10FDA
:10022000F11D6081C7010E94CA001F5F1017B1F75E
:1002300004C0642FCE010E940602DF91CF911F916E
:100240000F91FF90EF900895FB0101900020E9F7D6
:100250003197E61BF70B4E2F0E94FF000895609127
:1002600043017091440121E0409146018091420197
:100270000E94CE0110924501109246011092470152
:1002800008951F93862F142F413208F010E26091D9
:100290003E0170913F01412F0E949D01109240014B
:1002A000109341011F9108950E944101089561E05A
:1002B00070E080E290E00E94400890933F018093BC
:1002C0003E01109240011092410161E070E080E235
:1002D00090E00E9440089093440180934301109263
:1002E0004501109246010E94500208950F931F93FA
:1002F0008C01862F0E94990184EB90E00E943302CA
:1003000087E890E00E942E02C8010E9457011F91C9
:100310000F9108950E94760108950895089581E04F
:10032000809347016093420110924501109246016B
:100330000895880F8093BA000895982F413218F0DD
:1003400081E090E0089580914D018823E1F781E0FC
:1003500080934D011092550140935601990F916081
:1003600090934E0185EE8093BC0080914D018130C9
:10037000E1F3209153013091540190E00AC0E92F3C
:10038000FF27DB01AE0FBF1FE20FF31F80818C93AD
:100390009F5F9417A1F780E090E008951F93182FB6
:1003A000942F413218F081E090E02EC080914D01F1
:1003B0008823E1F782E080934D01109255019093DC
:1003C0005601409153015091540130E00AC0E32F8F
:1003D000FF27DA01AE0FBF1FE60FF71F80818C9356
:1003E0003F5F3917A1F7812F9927880F991F8093B5
:1003F0004E0185EE8093BC00222321F080914D01B7
:100400008230E1F380E090E01F910895CF93DF9375
:10041000EC01613218F081E090E01DC080914D0147
:10042000843019F082E090E016C060935A01409148
:1004300057015091580120E00AC0E22FFF27DA014E
:10044000AE0FBF1FEC0FFD1F80818C932F5F26170F
:10045000A1F780E090E0DF91CF9108959093520151
:100460008093510108959093500180934F01089516
:10047000882311F085EC01C085E88093BC000895C5
:1004800085ED8093BC008091BC0084FDFCCF109270
:100490004D01089585EC8093BC0010924D010895A4
:1004A00010924D01449A459AE9EBF0E080818E7FED
:1004B000808380818D7F808388E48093B80085E489
:1004C0008093BC0061E070E080E290E00E94400810
:1004D000909354018093530161E070E080E290E0DA
:1004E0000E944008909358018093570161E070E0AA
:1004F00080E290E00E94400890935C0180935B0151
:1005000008951F920F920FB60F9211242F933F93CD
:100510004F935F936F937F938F939F93AF93BF930B
:10052000EF93FF938091B9009927887F9070803670
:10053000910509F4BDC081369105CCF5883291054D
:1005400009F47BC089329105B4F48031910509F436
:100550006FC0813191053CF4009709F412C10897EE
:1005600009F011C165C08831910509F466C0809712
:1005700009F009C106C18034910509F485C08134B0
:10058000910544F48033910509F4FBC0C89709F044
:10059000FAC0F1C08035910509F468C0883591052D
:1005A00009F477C08834910509F0EDC0EAC08839B4
:1005B000910509F4DEC089399105ECF4883791057D
:1005C00009F476C0893791054CF48836910509F411
:1005D0006FC08037910509F0D6C06AC08838910590
:1005E00009F4C7C08039910509F468C080389105C5
:1005F00009F0C9C063C0803B910509F48DC0813BFF
:1006000091054CF4803A910509F46CC0883A910543
:1006100009F0B9C081C0803C910509F4ACC0883CA8
:10062000910509F4A8C0883B910509F0ACC08CC0C5
:1006300080914E018093BB0015C09091550180912F
:100640005601981708F09DC090915501E091530113
:10065000F0915401E90FF11D80818093BB009F5FF1
:100660009093550185EC8093BC008DC0809155011D
:10067000E0915301F0915401E80FF11D9091BB00FE
:1006800090838F5F80935501909155018091560121
:100690006DC080915501E0915301F0915401E80F34
:1006A000F11D9091BB0090838F5F8093550169C0CD
:1006B00083E080934D0110925D01D4CF80915D0164
:1006C000803208F056C090915D01E0915B01F0919D
:1006D0005C01E90FF11D8091BB0080839F5F9093C7
:1006E0005D01C0CF80915D01803248F480915D0151
:1006F000E0915B01F0915C01E80FF11D10826091C7
:100700005D017727E0915101F091520180915B01E9
:1007100090915C0109952FC084E080934D01109267
:10072000590110925A01E0914F01F0915001099541
:1007300080915A01882341F481E080935A01E0912D
:100740005701F0915801108290915901E0915701A1
:10075000F0915801E90FF11D80818093BB009F5FEC
:10076000909359019091590180915A01981708F47A
:1007700079CF85E878CF85EC8093BC0010924D014D
:1007800002C00E944002FF91EF91BF91AF919F91F3
:100790008F917F916F915F914F913F912F910F902A
:1007A0000FBE0F901F901895CF92DF92EF92FF929D
:1007B0000F931F9390E6E92E91E0F92E60E071E02F
:1007C000C7010E94DF050CE411E062E070E0C8019F
:1007D0000E948F0162E470E0C8010E94FC00C80121
:1007E0000E942F0142E050E063E070E0C8010E94E7
:1007F0005401C8010E9473009927AA27BB2720E152
:1008000030E0AC01BD01C7010E94B10588E0C82EEF
:1008100081E0D82EB601C7010E94DF05C8010E9401
:1008200073009927AA27BB2720E130E0AC01BD0166
:10083000C7010E94B1056AE071E0C7010E94DF05AF
:1008400062E070E0C8010E948F0163E470E0C801BB
:100850000E94FC00C8010E942F0142E050E063E0CA
:1008600070E0C8010E945401C8010E9473009927DA
:10087000AA27BB2720E130E0AC01BD01C7010E94DF
:10088000B105B601C7010E94DF05C8010E947300CF
:100890009927AA27BB2720E130E0AC01BD01C701A1
:1008A0000E94B105C7010E944A0568EE73E080E02E
:1008B00090E00E943C061F910F91FF90EF90DF9017
:1008C000CF90089540E05BE460E070E080E691E066
:1008D0000E94F8058CE491E00E94570162E171E00A
:1008E00080E691E00E94E30562E070E08CE491E034
:1008F0000E948F0161E470E08CE491E00E94FC00B2
:1009000063E370E08CE491E00E94FC008CE491E0F1
:100910000E942F0162E070E08CE491E00E948F0160
:1009200061E470E08CE491E00E94FC0065E470E01A
:100930008CE491E00E94FC008CE491E00E942F0185
:100940006DE171E080E691E00E94E30562E070E015
:100950008CE491E00E948F0160E170E08CE491E012
:100960000E94FC008CE491E00E942F0168EC70E092
:1009700080E090E00E943C0642E050E062E070E0DF
:100980008CE491E00E9454016AE271E011C08CE4B1
:1009900091E00E9473009927AA27BB2720E130E04D
:1009A000AC01BD0180E691E00E94B10568E071E014
:1009B00080E691E00E94DF058CE491E00E946C00EB
:1009C000882329F780E691E00E944A0562E070E002
:1009D0008CE491E00E948F0160E570E08CE491E08E
:1009E0000E94FC008CE491E00E942F0168EC70E012
:1009F00080E090E00E943C0642E050E062E070E05F
:100A00008CE491E00E9454016FE271E011C08CE42B
:100A100091E00E9473009927AA27BB2720E130E0CC
:100A2000AC01BD0180E691E00E94B10568E071E093
:100A300080E691E00E94DF058CE491E00E946C006A
:100A4000882329F780E691E00E944A0508950E94D4
:100A50006B060E9462040E94D403FDCF089508959E
:100A6000CB01BA013327442755270E946D0708950B
:100A70002AE00E9430050895AB01662777270E947F
:100A800038050895862F0E9465070895862F0E94D5
:100A9000650708950F931F938C016DE00E94460532
:100AA0006AE0C8010E9446051F910F9108950F93B7
:100AB0001F938C010E943805C8010E944A051F91AE
:100AC0000F9108950F931F938C010E943C05C8015C
:100AD0000E944A051F910F9108950F931F938C0157
:100AE0000E944205C8010E944A051F910F91089576
:100AF0000F931F938C010E944605C8010E944A056E
:100B00001F910F910895EF92FF920F931F93CF9330
:100B1000DF93EC017A018B0177FF0BC06DE20E943D
:100B2000460510950095F094E094E11CF11C011D20
:100B3000111D2AE0B801A701CE010E943005DF9106
:100B4000CF911F910F91FF90EF9008950F931F93F6
:100B50008C010E948305C8010E944A051F910F91D4
:100B600008952115310521F4642F0E94460508954A
:100B70002A30310519F40E94830508950E9430053A
:100B800008950F931F938C010E94B105C8010E9424
:100B90004A051F910F910895AB01662757FD609597
:100BA000762F0E94830508950F931F938C010E9456
:100BB000CC05C8010E944A051F910F910895CB01F1
:100BC0000E94330808950F931F938C010E94DF0544
:100BD000C8010E944A051F910F9108950E941E07A7
:100BE00008950E94FF0608950E94EE069927089531
:100BF000CB01BA010E94AD060895089508951F9291
:100C00000F920FB60F9211248F939F93AF93BF93C0
:100C10008091650190916601A0916701B091680192
:100C20000196A11DB11D8093650190936601A0936B
:100C30006701B0936801BF91AF919F918F910F9021
:100C40000FBE0F901F90189560916501709166011D
:100C5000809167019091680127E0660F771F881FD8
:100C6000991F2A95D1F72DE730E040E050E00E942F
:100C70006F09CA01B9010895AF92BF92CF92DF9276
:100C8000EF92FF920F931F935B016C010E94240669
:100C90007B018C010E9424066E197F09800B910B49
:100CA0006A157B058C059D05A8F31F910F91FF9098
:100CB000EF90DF90CF90BF90AF900895019751F0E3
:100CC000880F991F880F991F02972FB7F8940197E3
:100CD000F1F72FBF08957894109265011092660184
:100CE000109267011092680184B5826084BD84B55A
:100CF000816084BD85B5826085BD85B5816085BD17
:100D0000EEE6F0E0808181608083E1E8F0E08081C0
:100D100082608083808181608083E0E8F0E0808170
:100D200081608083E1EBF0E0808184608083E0EB90
:100D3000F0E0808181608083EAE7F0E08081846078
:100D400080838081826080838081816080838081D4
:100D5000806880831092C1000895EF92FF920F93F4
:100D60001F937B018C0122E030E040E050E00E94C4
:100D70009109205C3D4B404F5F4FCA01B901A8016A
:100D800097010E9491092150304040405040BB27BC
:100D900057FDBA95A52F942F832F2F5F3F4F4F4FAD
:100DA0005F4F8093C50021502093C400E1ECF0E038
:100DB0008081806180838081886080838081806879
:100DC00080831F910F91FF90EF900895982F80914D
:100DD000C00085FFFCCF9093C6000895809161010B
:100DE000909162012091630130916401821B930B09
:100DF00080589F4F60E870E00E945C090895409120
:100E000063015091640180916101909162018417A6
:100E1000950719F48FEF9FEF0895FA01E759FE4FF8
:100E20002081CA01019660E870E00E945C099093FD
:100E3000640180936301822F992708958091630153
:100E400090916401909362018093610108951F92D3
:100E50000F920FB60F9211242F933F934F935F93EE
:100E60006F937F938F939F93AF93BF93EF93FF9372
:100E70004091C600E0916101F0916201CF010196BD
:100E800060E870E00E945C099C0180916301909190
:100E900064012817390739F0E759FE4F4083309332
:100EA000620120936101FF91EF91BF91AF919F91FA
:100EB0008F917F916F915F914F913F912F910F9003
:100EC0000FBE0F901F9018950895982F8091C00025
:100ED00085FFFCCF9093C60008952F923F924F92CA
:100EE0005F926F927F928F929F92AF92BF92CF92BA
:100EF000DF92EF92FF920F931F93CF93DF93CDB7C3
:100F0000DEB7A0970FB6F894DEBF0FBECDBF6B0162
:100F10007C0129013A01611571058105910541F4B2
:100F20008091C00085FFFCCF80E38093C60041C064
:100F30008824992454011E010894211C311C81012C
:100F4000080D191DC701B601A30192010E946F0986
:100F5000F80160830894811C911CA11CB11CC7017D
:100F6000B601A30192010E946F0969017A0121155E
:100F700031054105510519F79E012F5F3F4F14C000
:100F8000089481089108A108B108F901E80DF91D3C
:100F9000E081EA3010F4E05D01C0E95C8091C000BE
:100FA00085FFFCCFE093C60081149104A104B10435
:100FB00039F7A0960FB6F894DEBF0FBECDBFDF9114
:100FC000CF911F910F91FF90EF90DF90CF90BF9046
:100FD000AF909F908F907F906F905F904F903F90D9
:100FE0002F90089520E130E040E050E00E946D072E
:100FF000089528E030E040E050E00E946D07089539
:1010000022E030E040E050E00E946D0708958091BA
:10101000C00085FFFCCF8AE08093C6000895EF9260
:10102000FF920F931F937B018C0197FF0FC080915C
:10103000C00085FFFCCF8DE28093C600109500951F
:10104000F094E094E11CF11C011D111D2AE030E038
:1010500040E050E0C801B7010E946D071F910F9159
:10106000FF90EF900895FC0107C08091C00085FFBC
:10107000FCCF31969093C60090819923B1F70895E3
:101080000F931F93CF93DF93869F8001879F100D4F
:10109000969F100D1124C8010E945C08EC01009776
:1010A00029F0A80160E070E00E945509CE01DF91AF
:1010B000CF911F910F910895CF93DF93AC010297C9
:1010C00010F442E050E0A091EB01B091EC01FD0181
:1010D000C0E0D0E020E030E020C080819181841722
:1010E000950769F482819381209719F09B838A8305
:1010F00004C09093EC018093EB01CF0132C04817FC
:10110000590738F42115310519F08217930708F4AF
:101110009C01EF010280F381E02D3097F1F621155B
:10112000310589F1C901841B950B049708F4A901C5
:10113000E0E0F0E026C08D919C9111978217930713
:10114000E9F44817590779F4ED018A819B813097BA
:1011500019F09383828304C09093EC018093EB0198
:10116000CD01029649C0841B950BFD01E80FF91FC4
:101170004193519302978D939C933AC0FD01A281B4
:10118000B3811097C1F68091E9019091EA01892B12
:1011900041F480913A0190913B019093EA01809350
:1011A000E90120913C0130913D012115310541F4C7
:1011B0002DB73EB78091380190913901281B390B2A
:1011C000E091E901F091EA012E1B3F0B241735074E
:1011D00088F0CA0102962817390760F0CF01840F02
:1011E000951F02969093EA018093E90141935193F0
:1011F000CF0102C080E090E0DF91CF910895CF93BE
:10120000DF93009709F44EC0EC0122971B821A82EB
:10121000A091EB01B091EC01109711F140E050E08A
:1012200001C0DC01AC17BD0700F1BB83AA83FE013E
:1012300021913191E20FF31FEA17FB0771F42E5F42
:101240003F4F8D919C911197820F931F99838883B3
:10125000FD01828193819B838A834115510559F455
:10126000D093EC01C093EB011DC0FD0182819381FD
:10127000AD010097B1F6FA01D383C2832191319178
:10128000E20FF31FEC17FD0769F42E5F3F4F8881D3
:101290009981820F931FFA01918380838A819B81B8
:1012A00093838283DF91CF910895DC0101C06D9318
:1012B00041505040E0F7089597FB092E07260AD0C9
:1012C00077FD04D049D006D000201AF470956195BE
:1012D0007F4F0895F6F7909581959F4F0895A1E26D
:1012E0001A2EAA1BBB1BFD010DC0AA1FBB1FEE1FA0
:1012F000FF1FA217B307E407F50720F0A21BB30BEB
:10130000E40BF50B661F771F881F991F1A9469F766
:1013100060957095809590959B01AC01BD01CF01C2
:10132000089597FB092E05260ED057FD04D0D7DF70
:101330000AD0001C38F450954095309521953F4FC8
:101340004F4F5F4F0895F6F7909580957095619592
:101350007F4F8F4F9F4F0895AA1BBB1B51E107C0C2
:10136000AA1FBB1FA617B70710F0A61BB70B881F35
:10137000991F5A95A9F780959095BC01CD010895C4
:0E138000EE0FFF1F0590F491E02D0994FFCFB2
:10138E003E204C53423A200020003E204D53423A1C
:10139E002000496E69742053686172700044656D57
:1013AE00617272616765204F4B0049443A20004DCF
:0E13BE006F64756C653A20002000ED010000A0
:00000001FF
