:100000000C945B000C947E020C94AB020C94830065
:100010000C9483000C9483000C9483000C94830054
:100020000C9483000C9483000C9483000C94830044
:100030000C9483000C9483000C9483000C94830034
:100040000C94D8020C9483000C9482040C948300CA
:100050000C9483000C9483000C9483000C94830014
:100060000C9483000C948300000024272A000025B0
:10007000282B000023262904040404040404040299
:100080000202020202030303030303010204081035
:100090002040800102040810200102040810200002
:1000A0000000070002010000030406000000000039
:1000B00000000000550111241FBECFEFD4E0DEBFC9
:1000C000CDBF11E0A0E0B1E0E8EDFAE002C005909C
:1000D0000D92A831B107D9F711E0A8E1B1E001C054
:1000E0001D92A03BB107E1F710E0C6EBD0E004C0E1
:1000F0002297FE010E946605C43BD107C9F70E9402
:100100004E010C946A050C94000085E00E94BA032D
:100110009C01909319018093180180910E01909198
:100120000F0182179307FCF4A901662757FD60951C
:10013000762F2AE030E08AE191E00E94730260E0CD
:1001400071E08AE191E00E94940161E086E00E9402
:10015000F60364E670E080E090E00E94480360E00F
:1001600086E00E94F6030895CF93DF9360E082E07B
:100170000E94D80360E087E00E94D80360E084E03A
:100180000E94D80361E086E00E94D80361E085E028
:100190000E94D80361E083E00E94D80361E08BE015
:1001A0000E94D80361E08AE00E94D80361E089E000
:1001B0000E94D80361E088E00E94D80361E08CE0EF
:1001C0000E94D80361E08DE00E94D80361E086E0E0
:1001D0000E94F60361E085E00E94F60361E08BE097
:1001E0000E94F60361E08AE00E94F60361E089E084
:1001F0000E94F60360E088E00E94F6032FEF41E0E2
:100200006CE08DE00E94BF0461E088E00E94F6038C
:10021000C0E0D0E061E083E00E94F60384E190E07A
:100220000E94720360E083E00E94F603219681E061
:10023000C43FD80779F760E086E00E94F60360E0EB
:1002400085E00E94F60360E08BE00E94F60360E028
:100250008AE00E94F60360E089E00E94F60360E015
:1002600088E00E94F60320E041E06CE08DE00E940F
:10027000BF0461E088E00E94F60340E855E260E0D8
:1002800070E08AE191E00E94600166E071E08AE13D
:1002900091E00E949401DF91CF9108950E94800324
:1002A0000E94B4000E948500FDCF85E191E090930B
:1002B0001B0180931A010895862F0E947A040895E5
:1002C000CB01BA010E94410408950F931F93CF936D
:1002D000DF938C01EB0109C02196D801ED91FC91CF
:1002E0000190F081E02DC801099568816623A1F78E
:1002F000DF91CF911F910F9108950F931F938C0160
:10030000DC01ED91FC910190F081E02D6DE009950B
:10031000D801ED91FC910190F081E02D6AE0C801D7
:1003200009951F910F9108950F931F938C010E94BF
:100330006501C8010E947D011F910F9108952F92C0
:100340003F924F925F926F927F928F929F92AF9265
:10035000BF92CF92DF92EF92FF920F931F93DF93A2
:10036000CF93CDB7DEB7A0970FB6F894DEBF0FBE20
:10037000CDBF1C016A017B01411551056105710565
:1003800049F4DC01ED91FC910190F081E02D60E3F6
:10039000099554C0882499245401422E552466247A
:1003A000772401E010E00C0F1D1F080D191DC70177
:1003B000B601A30192010E941305F801608308941D
:1003C000811C911CA11CB11CC701B601A3019201A3
:1003D0000E941305C901DA016C017D01C114D10429
:1003E000E104F104F1F681E0E82EF12CEC0EFD1EA3
:1003F000E80CF91C3E010894611C711CD501C40174
:100400000197A109B1096C01C818D90814C0F601F7
:10041000EE0DFF1D60816A3010F4605D01C0695C03
:10042000D101ED91FC910190F081E02DC101099580
:100430000894E108F1086E147F0449F7A0960FB6FE
:10044000F894DEBF0FBECDBFCF91DF911F910F910A
:10045000FF90EF90DF90CF90BF90AF909F908F90E4
:100460007F906F905F904F903F902F900895EF9204
:10047000FF920F931F93CF93DF93EC017A018B01CF
:1004800077FF0FC0E881F9810190F081E02D6DE2E6
:10049000099510950095F094E094E11CF11C011D64
:1004A000111D2AE0B801A701CE010E949F01DF9132
:1004B000CF911F910F91FF90EF900895DC012115CE
:1004C000310541F4ED91FC910190F081E02D642F14
:1004D000099508952A30310519F40E9437020895CC
:1004E0000E949F0108950F931F938C010E945E024A
:1004F000C8010E947D011F910F9108951F920F92D4
:100500000FB60F9211242F933F934F935F936F93E6
:100510007F938F939F93AF93BF93EF93FF938091BC
:100520001C0190911D01892B29F0E0911C01F09193
:100530001D010995FF91EF91BF91AF919F918F910F
:100540007F916F915F914F913F912F910F900FBECF
:100550000F901F9018951F920F920FB60F921124B3
:100560002F933F934F935F936F937F938F939F93BB
:10057000AF93BF93EF93FF9380911E0190911F0162
:10058000892B29F0E0911E01F0911F010995FF913F
:10059000EF91BF91AF919F918F917F916F915F91FB
:1005A0004F913F912F910F900FBE0F901F90189574
:1005B0001F920F920FB60F9211242F938F939F9338
:1005C000AF93BF938091200190912101A0912201CE
:1005D000B09123010196A11DB11D8093200190933C
:1005E0002101A0932201B0932301809124019091D5
:1005F0002501A0912601B09127018050904CAF4F6A
:10060000BF4F8093240190932501A0932601B093BE
:10061000270127C08091240190912501A0912601F6
:10062000B091270180589E43A040B04080932401A0
:1006300090932501A0932601B09327018091280172
:1006400090912901A0912A01B0912B010196A11D41
:10065000B11D8093280190932901A0932A01B093A2
:100660002B018091240190912501A0912601B09148
:10067000270181589E43A040B04060F6BF91AF91E2
:100680009F918F912F910F900FBE0F901F901895F3
:10069000EF92FF920F931F937B018C018FB7F89419
:1006A000409128015091290160912A0170912B01FC
:1006B0008FBF2FB7F8948091280190912901A091C4
:1006C0002A01B0912B012FBF841B950BA60BB70BF2
:1006D000E816F9060A071B0760F71F910F91FF90B4
:1006E000EF900895019759F0FC01EE0FFF1FEE0FF8
:1006F000FF1F32978FB7F8943197F1F78FBF0895A6
:10070000789484B5826084BD84B5816084BD85B5EC
:10071000826085BD85B5816085BDEEE6F0E08081B3
:1007200081608083E1E8F0E0808182608083808165
:1007300081608083E0E8F0E0808181608083E1EB8C
:10074000F0E0808184608083E0EBF0E08081816074
:100750008083EAE7F0E0808184608083808182602A
:100760008083808181608083808180688083109213
:10077000C10008958F70909110019295990F990F73
:10078000907C982B90937C0080917A008064809379
:100790007A0080917A0086FDFCCF2091780040910C
:1007A0007900942F80E030E0282B392BC90108957F
:1007B000282F30E0C90185579F4FFC01949129589B
:1007C0003F4FF9018491882381F0E82FF0E0E85948
:1007D000FF4FE491F0E0662329F48081909589230E
:1007E000808308958081892B80830895482F50E06D
:1007F000CA0181569F4FFC012491CA0185579F4F22
:10080000FC01949149585F4FFA0134913323C1F1AF
:10081000222331F1233021F4809180008F7705C0AD
:10082000243031F4809180008F7D8093800018C047
:10083000213019F484B58F7704C0223021F484B5B7
:100840008F7D84BD0DC0263021F48091B0008F775C
:1008500005C0273029F48091B0008F7D8093B000CF
:10086000E32FF0E0E359FF4FE491F0E0662329F431
:10087000808190958923808308958081892B80834E
:100880000895EF92FF920F931F937B018C0122E05A
:1008900030E040E050E00E943505205C3D4B404F89
:1008A0005F4FCA01B901A80197010E943505C9012E
:1008B000DA010197A109B109292F3A2F4B2F5527AA
:1008C00047FD5A950196A11DB11D2093C500815089
:1008D0008093C400E1ECF0E08081806180838081BE
:1008E000886080838081806880831F910F91FF9052
:1008F000EF900895982F8091C00085FFFCCF9093D2
:10090000C60008951F920F920FB60F9211242F93D5
:100910003F934F935F936F937F938F939F93AF9387
:10092000BF93EF93FF934091C600E0912C01F091AB
:100930002D01CF01019660E870E00E9400059C0146
:1009400080912E0190912F012817390739F0E05D31
:10095000FE4F408330932D0120932C01FF91EF91A6
:10096000BF91AF919F918F917F916F915F914F91C7
:100970003F912F910F900FBE0F901F901895BF922F
:10098000CF92DF92EF92FF920F931F93CF93DF935B
:10099000E82EF62EB42EC0E0D0E0022F10E087E063
:1009A000C82ED12CBB2041F4B8010C2E02C0759585
:1009B00067950A94E2F70AC0B6016C1B7D0BC8016B
:1009C00002C0959587956A95E2F7BC0161708E2DFE
:1009D0000E94F60361E08F2D0E94F60360E08F2DE8
:1009E0000E94F6032196C830D105E1F6DF91CF9140
:1009F0001F910F91FF90EF90DF90CF90BF900895DF
:100A000097FB092E07260AD077FD04D049D006D0DF
:100A100000201AF4709561957F4F0895F6F7909530
:100A200081959F4F0895A1E21A2EAA1BBB1BFD01C1
:100A30000DC0AA1FBB1FEE1FFF1FA217B307E407BD
:100A4000F50720F0A21BB30BE40BF50B661F771F15
:100A5000881F991F1A9469F76095709580959095F5
:100A60009B01AC01BD01CF01089597FB092E05261E
:100A70000ED057FD04D0D7DF0AD0001C38F45095B3
:100A80004095309521953F4F4F4F5F4F0895F6F7B2
:100A900090958095709561957F4F8F4F9F4F0895EA
:100AA000AA1BBB1B51E107C0AA1FBB1FA617B70794
:100AB00010F0A61BB70B881F991F5A95A9F78095B0
:100AC0009095BC01CD010895EE0FFF1F0590F491A4
:080AD000E02D0994F894FFCF1A
:100AD8006B6E6F636B0073746172746564003200CF
:080AE80001000000005C0100A8
:00000001FF
