:100000000C945C000C9437070C9464070C948400E7
:100010000C9484000C9484000C9484000C94840050
:100020000C9484000C9484000C9484000C94840040
:100030000C9484000C9484000C9484000C94840030
:100040000C9491070C9484000C943F090C94840048
:100050000C9484000C9484000C9484000C94840010
:100060000C94DC020C948400000024272A00002554
:10007000282B000023262904040404040404040299
:100080000202020202030303030303010204081035
:100090002040800102040810200102040810200002
:1000A0000000070002010000030406000000000039
:1000B00000000000D801130611241FBECFEFD4E0CA
:1000C000DEBFCDBF11E0A0E0B1E0E0EDF3E102C0A2
:1000D00005900D92A433B107D9F712E0A4E3B1E083
:1000E00001C01D92AB30B107E1F710E0C8EBD0E0E2
:1000F00004C02297FE010E94E209C43BD107C9F760
:100100000E940C060C94E6090C9400000F931F93B8
:10011000CF93DF93689F8001699F100D789F100D2A
:100120001124C8010E94A200EC01009729F0A80147
:1001300060E070E00E94A401CE01DF91CF911F9199
:100140000F910895CF93DF93BC018230910510F495
:1001500062E070E0A0910902B0910A02ED01E0E0D6
:10016000F0E040E050E021C0888199818617970730
:1001700069F48A819B81309719F09383828304C04C
:1001800090930A0280930902FE0134C06817790730
:1001900038F44115510519F08417950708F4AC019E
:1001A000FE018A819B819C01E9012097E9F64115B6
:1001B0005105A9F1CA01861B970B049708F4BA01EF
:1001C000E0E0F0E02AC08D919C911197841795078B
:1001D000F9F46417750781F412968D919C91139729
:1001E000309719F09383828304C090930A0280931E
:1001F0000902FD0132964CC0CA01861B970BFD0116
:10020000E80FF91F6193719302978D939C9340C0FF
:10021000FD01828193819C01D9011097A1F6809103
:10022000070290910802892B41F480912601909158
:100230002701909308028093070240912801509172
:1002400029014115510541F44DB75EB78091240154
:1002500090912501481B590B20910702309108020B
:10026000CA01821B930B8617970780F0AB014E5F84
:100270005F4F8417950750F0420F531F50930802A9
:1002800040930702F9016193719302C0E0E0F0E04E
:10029000CF01DF91CF910895CF93DF93009709F4B9
:1002A00050C0EC0122971B821A82A0910902B091E2
:1002B0000A02109709F140E050E0AC17BD0708F1C1
:1002C000BB83AA83FE0121913191E20FF31FAE1788
:1002D000BF0779F48D919C911197280F391F2E5FDC
:1002E0003F4F3983288312968D919C9113979B835E
:1002F0008A834115510571F4D0930A02C093090213
:1003000020C012968D919C911397AD01009711F02A
:10031000DC01D3CFFA01D383C28321913191E20F63
:10032000F31FCE17DF0769F488819981280F391FE1
:100330002E5F3F4FFA01318320838A819B81938313
:100340008283DF91CF910895DC0101C06D9341500C
:100350005040E0F7089581E080933D0160933801BB
:1003600010923B0110923C01089581E080933D0181
:100370006093380110923B0110923C0108958091E6
:10038000370190913601891B089590913601809133
:100390003701981710F080E00895E0913401F09152
:1003A0003501E90FF11D80819F5F9093360108951B
:1003B0000895DF93CF930F92CDB7DEB76983809115
:1003C0003D018823A9F080913C018032B0F48091F6
:1003D0003B01E0913901F0913A01E80FF11D608392
:1003E00080913B018F5F80933B0180933C0105C06E
:1003F00061E0CE0101960E94BF020F90CF91DF9184
:1004000008950E94D90108956091390170913A01CF
:1004100021E040913C01809138010E947A021092C3
:100420003B0110923C0110923D010895862F41320C
:1004300008F040E260913401709135010E9444025D
:100440001092360180933701089561E070E080E2F8
:1004500090E00E94860080933401909335011092C1
:1004600036011092370161E070E080E290E00E9476
:1004700086008093390190933A0110923B011092CB
:100480003C010E945E040895982F413210F040E034
:100490002FC080913F018823E1F781E080933F01E5
:1004A0008FEF809350011092470140934801990FBC
:1004B00091609093400185EE8093BC0080913F0154
:1004C0008130E1F380914701841710F44091470196
:1004D000A0914501B091460120E030E007C0FB014A
:1004E000E20FF31F8D9180832F5F3F4F2417B8F3E6
:1004F000842F08951F93582F122F413210F081E05E
:100500003CC080913F018823E1F782E080933F0166
:100510008FEF809350011092470140934801A091C2
:100520004501B0914601FB0102C081918D938E2F50
:10053000861B8417D0F3852F90E0880F991F809336
:10054000400185EE8093BC00112321F080913F0192
:100550008230E1F3809150018F3F11F480E00DC0B3
:1005600080915001803211F482E007C080915001E7
:10057000803311F084E001C083E01F910895482F7B
:10058000613210F081E0089580913F01843011F0D4
:1005900082E0089560934C01A0914901B0914A0115
:1005A000842F9C01F90102C081918D938E2F841BB1
:1005B0008617D0F380E008951F920F920FB60F9226
:1005C00011242F933F934F935F936F937F938F9358
:1005D0009F93AF93BF93EF93FF938091B90090E007
:1005E000887F90708036910509F4E2C081369105CC
:1005F000CCF58832910509F47BC089329105B4F4B9
:100600008031910509F46FC0813191053CF4009768
:1006100009F438C1089709F040C165C088319105D7
:1006200009F466C0809709F038C17FC08034910515
:1006300009F4A3C08134910544F48033910509F491
:100640007FC0C89709F029C186C08035910509F49B
:1006500086C08835910509F495C08834910509F064
:100660001CC19EC08839910509F404C189399105DE
:10067000ECF48837910509F49BC0893791054CF457
:100680008836910509F494C08037910509F005C1B9
:100690008FC08838910509F4EDC08039910509F4BF
:1006A0008DC08038910509F0F8C088C0803B910565
:1006B00009F4B2C0813B91054CF4803A910509F4EC
:1006C00091C0883A910509F0E8C0A6C0803C910528
:1006D00009F4D4C0883C910509F4D0C0883B910549
:1006E00009F0DBC0B1C0809140018093BB00C0C065
:1006F0009091470180914801981778F490914701B3
:10070000E0914501F0914601E90FF11D8081809350
:10071000BB009F5F90934701ABC085ED8093BC0009
:100720008091BC0084FDFCCFB6C080E28093500174
:1007300085ED8093BC008091BC0084FDFCCFABC0F4
:1007400080E38093500185ED8093BC008091BC00D4
:1007500084FDFCCFA0C088E3809350018FC08091BE
:1007600047019091BB00E0914501F0914601E80FEF
:10077000F11D90838F5F8093470190914701809195
:10078000480174C0809147019091BB00E091450100
:10079000F0914601E80FF11D90838F5F8093470130
:1007A00085ED8093BC008091BC0084FDFCCF73C0BC
:1007B00083E080933F0110924F015AC080914F0116
:1007C000803208F057C080914F019091BB00E091BA
:1007D0004D01F0914E01E80FF11D90838F5F8093E2
:1007E0004F0146C080914F01803248F480914F0103
:1007F000E0914D01F0914E01E80FF11D10826091E2
:100800004F01E0914301F091440170E080914D016E
:1008100090914E01099532C084E080933F0110927F
:100820004B0110924C01E0914101F0914201099578
:1008300080914C01882341F481E080934C01E09148
:100840004901F0914A01108290914B01E0914901D8
:10085000F0914A01E90FF11D80818093BB009F5FF9
:1008600090934B0190914B0180914C01981710F49B
:1008700085EC01C085E88093BC000FC085EC8093B7
:10088000BC0009C01092500185ED8093BC0080919E
:10089000BC0084FDFCCF10923F01FF91EF91BF910E
:1008A000AF919F918F917F916F915F914F913F9108
:1008B0002F910F900FBE0F901F90189510923F012F
:1008C000449A459AE9EBF0E080818E7F80838081B5
:1008D0008D7F808388E48093B80085E48093BC009A
:1008E00061E070E080E290E00E9486008093450124
:1008F0009093460161E070E080E290E00E94860003
:100900008093490190934A0161E070E080E290E0B9
:100910000E94860080934D0190934E010895CF92DE
:10092000DF92EF92FF920F931F93CF93DF936C01AF
:1009300081E791E00E942106882309F458C081E7ED
:1009400091E00E941E06813009F051C0F6018083BB
:1009500014E60AC061E070E080E090E00E940108C7
:10096000112309F444C0115081E791E00E9421064F
:10097000833080F381E791E00E941E06F6018183B7
:1009800081E791E00E941E06F601828381E791E0F3
:100990000E941E06F6018383E280EE2041F114E6F8
:1009A00009C061E070E080E090E00E94010811233E
:1009B000F1F0115081E791E00E9421068E1588F335
:1009C00084E0F82E0E2D10E00D5F1F4F08C081E768
:1009D00091E00E941E06CC0DDD1D8883F394CF2D7F
:1009E000D0E00C171D079CF78E2D8C5F01C080E0B6
:1009F000DF91CF911F910F91FF90EF90DF90CF90FB
:100A00000895DF92EF92FF920F931F93DF93CF939E
:100A1000CDB7DEB760970FB6F894DEBF0FBECDBF7F
:100A200081E591E00E948F04882309F467C061E0AA
:100A300080912C010E94830800915201D0905401B2
:100A400080915301E82EFF24602F8EE391E00E94F5
:100A5000AB0110E008C0EB5AFE4F60818EE391E0DD
:100A60000E94D9011F5FE12FF0E0EE15FF059CF316
:100A70008EE391E00E940402DD20A1F14D2D602F54
:100A80008EE391E00E9416028EE391E00E94BF0186
:100A9000882339F08E010F5F1F4F7801ED0CF11C98
:100AA0000EC08E010F5F1F4F7801ED0CF11C17C0B7
:100AB0008EE391E00E94C501F80181938F010E152C
:100AC0001F05B1F7EECFF80141918F0150E060E0D2
:100AD00070E020E030E081E791E00E9422070E15EF
:100AE0001F0589F7E1E5F1E0119281E0EF36F807A3
:100AF000D9F760E080912C010E94830860960FB6C0
:100B0000F894DEBF0FBECDBFCF91DF911F910F9143
:100B1000FF90EF90DF9008951F9361E080912C018A
:100B20000E94650887B18C6087B94298439A64E651
:100B300070E080E090E00E9401088EE391E00E9466
:100B4000250210912A0160E070E08EE391E00E949E
:100B5000B50161E470E08EE391E00E940102612F33
:100B60008EE391E00E94D90160ED70E08EE391E0A8
:100B70000E9401026DE070E08EE391E00E940102AC
:100B8000612F8EE391E00E94D9018EE391E00E94F3
:100B9000040262E370E080E090E00E94010840E01F
:100BA0005BE460E070E081E791E00E942406109130
:100BB0002A01612F8EE391E00E94AB0161E670E0B3
:100BC0008EE391E00E9401028EE391E00E94040214
:100BD00041E0612F8EE391E00E9416028EE391E0E6
:100BE0000E94BF01882381F08EE391E00E94C5013D
:100BF00090E0212F30E08217930731F060E071E040
:100C000081E791E00E9458066EE071E081E791E093
:100C10000E9458061F9108950E942B080E948C057F
:100C20000E940105FDCF82E391E0909372018093D1
:100C300071010895862F0E94070908950E942009D6
:100C400008950E940F090895CB01BA010E94CE08B1
:100C500008950F931F93CF93DF938C01EB0109C08D
:100C60002196D801ED91FC910190F081E02DC80111
:100C7000099568816623A1F7DF91CF911F910F91AC
:100C800008950F931F938C01DC01ED91FC9101906D
:100C9000F081E02D6DE00995D801ED91FC91019076
:100CA000F081E02D6AE0C80109951F910F91089528
:100CB0000F931F938C010E942906C8010E944106D0
:100CC0001F910F9108952F923F924F925F926F92D2
:100CD0007F928F929F92AF92BF92CF92DF92EF92CC
:100CE000FF920F931F93DF93CF93CDB7DEB7A097FB
:100CF0000FB6F894DEBF0FBECDBF1C016A017B01A9
:100D0000411551056105710549F4DC01ED91FC9136
:100D10000190F081E02D60E3099554C08824992466
:100D20005401422E55246624772401E010E00C0F74
:100D30001D1F080D191DC701B601A30192010E94D4
:100D40008F09F80160830894811C911CA11CB11CBF
:100D5000C701B601A30192010E948F09C901DA01FE
:100D60006C017D01C114D104E104F104F1F681E0CC
:100D7000E82EF12CEC0EFD1EE80CF91C3E01089447
:100D8000611C711CD501C4010197A109B1096C0155
:100D9000C818D90814C0F601EE0DFF1D60816A3035
:100DA00010F4605D01C0695CD101ED91FC9101908E
:100DB000F081E02DC10109950894E108F1086E1455
:100DC0007F0449F7A0960FB6F894DEBF0FBECDBFE3
:100DD000CF91DF911F910F91FF90EF90DF90CF9017
:100DE000BF90AF909F908F907F906F905F904F904B
:100DF0003F902F900895EF92FF920F931F93CF9300
:100E0000DF93EC017A018B0177FF0FC0E881F98154
:100E10000190F081E02D6DE2099510950095F09418
:100E2000E094E11CF11C011D111D2AE0B801A7018D
:100E3000CE010E946306DF91CF911F910F91FF9029
:100E4000EF900895DC012115310541F4ED91FC91FD
:100E50000190F081E02D642F099508952A30310525
:100E600019F40E94FB0608950E94630608951F92DC
:100E70000F920FB60F9211242F933F934F935F93CE
:100E80006F937F938F939F93AF93BF93EF93FF9352
:100E90008091730190917401892B29F0E091730185
:100EA000F09174010995FF91EF91BF91AF919F91DE
:100EB0008F917F916F915F914F913F912F910F9003
:100EC0000FBE0F901F9018951F920F920FB60F92A2
:100ED00011242F933F934F935F936F937F938F933F
:100EE0009F93AF93BF93EF93FF9380917501909180
:100EF0007601892B29F0E0917501F0917601099531
:100F0000FF91EF91BF91AF919F918F917F916F91E1
:100F10005F914F913F912F910F900FBE0F901F90B7
:100F200018951F920F920FB60F9211242F938F9343
:100F30009F93AF93BF938091770190917801A09197
:100F40007901B0917A010196A11DB11D80937701BD
:100F500090937801A0937901B0937A0180917B01FD
:100F600090917C01A0917D01B0917E018050904CC8
:100F7000AF4FBF4F80937B0190937C01A0937D0185
:100F8000B0937E0127C080917B0190917C01A0915C
:100F90007D01B0917E0180589E43A040B040809377
:100FA0007B0190937C01A0937D01B0937E018091A1
:100FB0007F0190918001A0918101B0918201019601
:100FC000A11DB11D80937F0190938001A0938101A9
:100FD000B093820180917B0190917C01A0917D0171
:100FE000B0917E0181589E43A040B04060F6BF9111
:100FF000AF919F918F912F910F900FBE0F901F90E7
:101000001895EF92FF920F931F937B018C018FB77E
:10101000F89440917F01509180016091810170911D
:1010200082018FBF2FB7F89480917F01909180014A
:10103000A0918101B09182012FBF841B950BA60B5B
:10104000B70BE816F9060A071B0760F71F910F9107
:10105000FF90EF900895789484B5826084BD84B544
:10106000816084BD85B5826085BD85B5816085BDA3
:10107000EEE6F0E0808181608083E1E8F0E080814D
:1010800082608083808181608083E0E8F0E08081FD
:1010900081608083E1EBF0E0808184608083E0EB1D
:1010A000F0E0808181608083EAE7F0E08081846005
:1010B0008083808182608083808181608083808161
:1010C000806880831092C1000895282F30E0C90104
:1010D00085579F4FFC01949129583F4FF901849106
:1010E000882381F0E82FF0E0E859FF4FE491F0E029
:1010F000662329F4808190958923808308958081D7
:10110000892B80830895482F50E0CA0181569F4F54
:10111000FC012491CA0185579F4FFC0194914958C5
:101120005F4FFA0134913323C1F1222331F123308F
:1011300021F4809180008F7705C0243031F48091B4
:1011400080008F7D8093800018C0213019F484B511
:101150008F7704C0223021F484B58F7D84BD0DC00B
:10116000263021F48091B0008F7705C0273029F414
:101170008091B0008F7D8093B000E32FF0E0E359C1
:10118000FF4FE491F0E0662329F480819095892354
:10119000808308958081892B80830895EF92FF9248
:1011A0000F931F937B018C0122E030E040E050E080
:1011B0000E94B109205C3D4B404F5F4FCA01B9010D
:1011C000A80197010E94B109C901DA010197A1099B
:1011D000B109292F3A2F4B2F552747FD5A950196D4
:1011E000A11DB11D2093C50081508093C400E1EC86
:1011F000F0E080818061808380818860808380814D
:10120000806880831F910F91FF90EF900895982F31
:101210008091C00085FFFCCF9093C6000895809117
:1012200083019091840180589F4F209185013091D6
:101230008601821B930B60E870E00E947C09089590
:1012400040918501509186018091830190918401A4
:101250008417950719F42FEF3FEF0FC0FA01E957F4
:10126000FE4F2081CA01019660E870E00E947C096F
:10127000909386018093850130E0C90108951F9203
:101280000F920FB60F9211242F933F934F935F93BA
:101290006F937F938F939F93AF93BF93EF93FF933E
:1012A0004091C600E0918301F0918401CF01019645
:1012B00060E870E00E947C099C018091850190911A
:1012C00086012817390739F0E957FE4F40833093DC
:1012D000840120938301FF91EF91BF91AF919F9182
:1012E0008F917F916F915F914F913F912F910F90CF
:1012F0000FBE0F901F90189597FB092E07260AD056
:1013000077FD04D049D006D000201AF4709561957D
:101310007F4F0895F6F7909581959F4F0895A1E22C
:101320001A2EAA1BBB1BFD010DC0AA1FBB1FEE1F5F
:10133000FF1FA217B307E407F50720F0A21BB30BAA
:10134000E40BF50B661F771F881F991F1A9469F726
:1013500060957095809590959B01AC01BD01CF0182
:10136000089597FB092E05260ED057FD04D0D7DF30
:101370000AD0001C38F450954095309521953F4F88
:101380004F4F5F4F0895F6F7909580957095619552
:101390007F4F8F4F9F4F0895AA1BBB1B51E107C082
:1013A000AA1FBB1FA617B70710F0A61BB70B881FF5
:1013B000991F5A95A9F780959095BC01CD01089584
:1013C000EE0FFF1F0590F491E02D0994F894FFCFE4
:1013D00061646472206D69736D6174636800426C4E
:1013E000696E6B4D436F6D6D616E646572207265E1
:1013F0006164790020000B02000009000D0000006C
:0414000000001A06C8
:00000001FF
