:100000000C946B000C94D1070C94FE070C94930095
:100010000C9493000C9493000C9493000C94930014
:100020000C9493000C9438010C9493000C9493005E
:100030000C9493000C9493000C9493000C949300F4
:100040000C942B080C9493000C94E7090C949300E7
:100050000C9493000C9493000C9493000C949300D4
:100060000C9463010C94930005A84CCDB2D44EB906
:100070003836A9020C50B9918688083CA6AAAA2A4B
:10008000BE000000803F000024272A000025282B06
:1000900000002326290404040404040404020202C8
:1000A00002020203030303030301020408102040B9
:1000B0008001020408102001020408102000000042
:1000C0000700020100000304060000000000000019
:1000D00000006201C50611241FBECFEFD4E0DEBFD1
:1000E000CDBF11E0A0E0B1E0EEEDF9E102C0059076
:1000F0000D92AE32B107D9F712E0AEE2B1E001C025
:100100001D92A532B107E1F710E0C6EDD0E004C0C2
:100110002297FE010E94E90CC23DD107C9F70E9457
:100120000E040C94ED0C0C9400000F931F938B01A4
:100130009C01809170008E7F809370008091B00050
:100140008C7F8093B0008091B100877F8093B10055
:100150008091B6008F7D8093B600809170008D7F76
:10016000809370008091B10084608093B100809191
:10017000B1008C7F8093B10086E090E090933A01CB
:1001800080933901011511052105310569F481E0DC
:1001900090E0A0E0B0E080932E0190932F01A09317
:1001A0003001B093310108C000932E0110932F014C
:1001B0002093300130933101509333014093320149
:1001C0001F910F91089510923401109235011092F1
:1001D00036011092370110923801809139019091C7
:1001E0003A018093B200E0E7F0E080818160808393
:1001F00008958091340190913501A0913601B0911C
:1002000037010196A11DB11D8093340190933501F2
:10021000A0933601B093370120913401309135011C
:10022000409136015091370180912E0190912F011C
:10023000A0913001B0913101281739074A075B07B7
:10024000B0F080913801882391F481E080933801E7
:10025000109234011092350110923601109237013C
:10026000E0913201F091330109951092380108951F
:100270001F920F920FB60F9211242F933F934F931B
:100280005F936F937F938F939F93AF93BF93EF93FE
:10029000FF938091390190913A018093B2000E94BE
:1002A000F900FF91EF91BF91AF919F918F917F9155
:1002B0006F915F914F913F912F910F900FBE0F90D3
:1002C0001F90189508951F920F920FB60F92112448
:1002D0002F933F934F935F936F937F938F939F934E
:1002E000AF93BF93EF93FF938091B90090E0887F25
:1002F00090708036910509F4E2C081369105CCF505
:100300008832910509F47BC089329105B4F48031BB
:10031000910509F46FC0813191053CF4009709F40F
:1003200038C1089709F040C165C08831910509F4CA
:1003300066C0809709F038C17FC08034910509F408
:10034000A3C08134910544F48033910509F47FC042
:10035000C89709F029C186C08035910509F486C087
:100360008835910509F495C08834910509F01CC1C0
:100370009EC08839910509F404C189399105ECF4CE
:100380008837910509F49BC0893791054CF488366C
:10039000910509F494C08037910509F005C18FC01B
:1003A0008838910509F4EDC08039910509F48DC0B4
:1003B0008038910509F0F8C088C0803B910509F4A8
:1003C000B2C0813B91054CF4803A910509F491C08B
:1003D000883A910509F0E8C0A6C0803C910509F46F
:1003E000D4C0883C910509F4D0C0883B910509F040
:1003F000DBC0B1C080913C018093BB00C0C0909134
:10040000430180914401981778F490914301E09161
:100410004101F0914201E90FF11D80818093BB0001
:100420009F5F90934301ABC085ED8093BC008091AA
:10043000BC0084FDFCCFB6C080E280934C0185ED0A
:100440008093BC008091BC0084FDFCCFABC080E3F6
:1004500080934C0185ED8093BC008091BC0084FDAD
:10046000FCCFA0C088E380934C018FC080914301F2
:100470009091BB00E0914101F0914201E80FF11D24
:1004800090838F5F80934301909143018091440159
:1004900074C0809143019091BB00E0914101F091C3
:1004A0004201E80FF11D90838F5F8093430185ED3A
:1004B0008093BC008091BC0084FDFCCF73C083E0BE
:1004C00080933B0110924B015AC080914B018032C6
:1004D00008F057C080914B019091BB00E091490119
:1004E000F0914A01E80FF11D90838F5F80934B01DB
:1004F00046C080914B01803248F480914B01E091DD
:100500004901F0914A01E80FF11D108260914B0101
:10051000E0913F01F091400170E08091490190919C
:100520004A01099532C084E080933B011092470153
:1005300010924801E0913D01F0913E0109958091B2
:100540004801882341F481E080934801E09145010E
:10055000F0914601108290914701E0914501F091A0
:100560004601E90FF11D80818093BB009F5F90934E
:1005700047019091470180914801981710F485EC4C
:1005800001C085E88093BC000FC085EC8093BC005F
:1005900009C010924C0185ED8093BC008091BC0095
:1005A00084FDFCCF10923B01FF91EF91BF91AF9181
:1005B0009F918F917F916F915F914F913F912F917B
:1005C0000F900FBE0F901F901895CF92DF92EF9271
:1005D000FF920F931F93DF93CF9300D0CDB7DEB779
:1005E00080915001882339F081E090E090936C0174
:1005F00080936B0104C010926C0110926B0180918A
:100600004F01882339F081E090E090936A01809354
:10061000690104C010926A0110926901809154012D
:10062000882339F081E090E090936E0180936D0112
:1006300004C010926E0110926D01809153018823C5
:1006400039F081E090E09093700180936F0104C0D5
:100650001092700110926F018FE891E00E94D30612
:10066000833008F450C08FE891E00E94D0069A834E
:1006700089838FE891E00E94D0066C018FE891E0B9
:100680000E94D00620EDE22E2FEFF22EE80EF91E8A
:1006900060E071E08FE891E00E94DB0610E0898164
:1006A0009A81C19709F411E0612F70E08FE891E021
:1006B0000E94C90765E071E08FE891E00E94DB06C7
:1006C00000E091E3C916D10409F401E0602F70E065
:1006D0008FE891E00E94C9076BE071E08FE891E03C
:1006E0000E94DB06B7018FE891E00E94C9078FE8FE
:1006F00091E00E94F3061093530100935401F0928D
:100700005201E092510165E070E080E090E00E94CB
:100710009B080F900F90CF91DF911F910F91FF9049
:10072000EF90DF90CF900895EF92FF920F931F9379
:1007300005E111E061E0809115010E940D093EEF95
:10074000E32E3FEFF32EE00EF11E61E0F701808112
:100750000E940D090450104061E0F80180810E9460
:100760000D0961E0F70180810E942B0961E0F80129
:1007700080810E942B0961E080911B010E940D097C
:1007800061E0809119010E940D0961E080911701DB
:100790000E940D0961E0809119010E942B0961E01E
:1007A000809117010E942B094AE050E050934E01BE
:1007B00040934D0121E020934F012093500184E6A6
:1007C00090E0909352018093510120935301209324
:1007D00054015093560140935501209357012093A3
:1007E000580110928D0110928E0160911D0170913F
:1007F0001E0180E090E045E154E00E9495000E94D7
:10080000E30040E855E260E070E08FE891E00E948C
:10081000D6061F910F91FF90EF9008950E94D30884
:100820000E9494030E94E502FDCFAF92BF92CF9247
:10083000DF92EF92FF920F931F93CF93DF938091FC
:100840005101909152018436910509F493C220918F
:10085000590130915A012F5F3F4F30935A01209335
:1008600059018091610190916201A0916301B09161
:1008700064010196A11DB11D8093610190936201F5
:10088000A0936301B093640180918B0190918C01DE
:10089000019690938C0180938B0180914D019091F2
:1008A0004E012817390708F465C180915B019091CA
:1008B0005C01019690935C0180935B0110925A0158
:1008C0001092590161E0809115010E942B0961E0AD
:1008D00080911B010E942B0988EC90E00E94C508C2
:1008E00060E0809115010E942B0960E080911B015E
:1008F0000E942B09E0914D01F0914E01EB30F10582
:1009000008F0E6C080918E01882329F480918D0142
:10091000882309F452C080918D01882341F12091F0
:100920006701309168012F5F3F4F3093680120933A
:10093000670188EE93E0BF010E94830C26173707FA
:1009400048F03196F0934E01E0934D01109268010A
:100950001092670180914D0190914E010A9709F024
:1009600096C010928D0181E080938E0190C080919D
:10097000530180934F018091540180935001209145
:100980006501309166012F5F3F4F309366012093E0
:10099000650188EE93E0BF010E94830C261737079C
:1009A00048F03197F0934E01E0934D0110926601AB
:1009B0001092650110928E016AC09091570180914A
:1009C0005301981731F49091580180915401981770
:1009D000A1F081E080938D018091550190915601A5
:1009E000A0915701B091580180934D0190934E0111
:1009F000A0934F01B09350016BC080915101909131
:100A00005201E817F90709F44BC08E179F07E0F46D
:100A100020916501309166012F5F3F4F3093660151
:100A20002093650188EE93E0BF010E94830C261796
:100A3000370728F13197F0934E01E0934D01109262
:100A40006601109265011BC0209167013091680119
:100A50002F5F3F4F309368012093670188EE93E04A
:100A6000BF010E94830C2617370748F03196F09398
:100A70004E01E0934D011092680110926701809140
:100A8000530180934F0180915401809350018091D4
:100A90004D0190914E01A0914F01B091500110C0B5
:100AA0008091510190915201A0915301B091540154
:100AB00080934D0190934E01A0934F01B09350014C
:100AC0008093550190935601A0935701B09358011C
:100AD000E090500100914F0180915D0190915E0185
:100AE000EE2011F0019601C0019790935E01809372
:100AF0005D0180915F0190916001002311F00196EA
:100B000001C001979093600180935F0180914D0136
:100B100090914E01892B49F460E0809113010E946D
:100B20002B0960E08091190123C061E080911301DD
:100B30000E942B0961E0809119010E942B0900237A
:100B400031F0EE2011F061E005C061E00AC0EE2056
:100B500039F060E0809111010E942B0961E006C02C
:100B600060E0809111010E942B0960E080911701E3
:100B70000E942B0920918B0130918C0160914D01D5
:100B800070914E01C9010E94830C892B09F0F2C0BB
:100B90002431310508F4EEC0E0902301F0902401E7
:100BA000009125011091260160915F017091600113
:100BB000882777FD8095982F0E94BF0AA80197018A
:100BC0000E94B50B0E948C0A6B0170937C016093AC
:100BD0007B0160915D0170915E01882777FD8095B2
:100BE000982F0E94BF0AA80197010E94B50B0E948E
:100BF0008C0A8B0170937A0160937901CB018C0D83
:100C00009D1D62E070E00E94970CEB0170938A01D9
:100C1000609389010C191D09222717FD2095322F99
:100C2000009371011093720120937301309374014A
:100C3000C901B80128EE33E040E050E00E94640CA6
:100C400023EE30E040E050E00E94CC0C59016A01F4
:100C5000A0927501B0927601C0927701D09278018E
:100C60006091810170918201809183019091840152
:100C70006A0D7B1D8C1D9D1D609381017093820107
:100C800080938301909384010E94BF0A7B018C01B1
:100C900060911F01709120018091210190912201AA
:100CA0009B01AC010E94250A20E034E244E759E4AC
:100CB0000E94B50B9B01AC01C801B7010E94B10BAA
:100CC0008823DCF0C601B5010E94BF0A0E94890A90
:100CD0007B018C01BE01882777FD8095982F0E94AB
:100CE000BF0A9B01AC01C801B7010E94B50B0E946D
:100CF0008C0A70937E0160937D01C601B5010E944C
:100D0000BF0A0E94180C7B018C015E01CC24B7FC49
:100D1000C094DC2CC601B5010E94BF0A9B01AC0146
:100D2000C801B7010E94B50B0E948C0A7093800124
:100D300060937F018091850190918601A091870148
:100D4000B09188018A0D9B1DAC1DBD1D809385014E
:100D500090938601A0938701B093880110928C0133
:100D600010928B011092600110925F0110925E014F
:100D700010925D01DF91CF911F910F91FF90EF9045
:100D8000DF90CF90BF90AF9008958BE291E0909369
:100D9000900180938F010895862F0E94AF090895D6
:100DA0000E94C80908950E94B7090895CB01BA01AD
:100DB0000E94760908950F931F93CF93DF938C01C0
:100DC000EB0109C02196D801ED91FC910190F081D1
:100DD000E02DC801099568816623A1F7DF91CF91C5
:100DE0001F910F9108950F931F938C01DC01ED91DA
:100DF000FC910190F081E02D6DE00995D801ED9115
:100E0000FC910190F081E02D6AE0C80109951F91E5
:100E10000F9108952F923F924F925F926F927F921F
:100E20008F929F92AF92BF92CF92DF92EF92FF92FA
:100E30000F931F93DF93CF93CDB7DEB7A0970FB675
:100E4000F894DEBF0FBECDBF1C016A017B014115C6
:100E500051056105710549F4DC01ED91FC910190AA
:100E6000F081E02D60E3099554C088249924540151
:100E7000422E55246624772401E010E00C0F1D1F3C
:100E8000080D191DC701B601A30192010E94AA0C09
:100E9000F80160830894811C911CA11CB11CC7013E
:100EA000B601A30192010E94AA0CC901DA016C01EA
:100EB0007D01C114D104E104F104F1F681E0E82ED2
:100EC000F12CEC0EFD1EE80CF91C3E010894611C8F
:100ED000711CD501C4010197A109B1096C01C818A1
:100EE000D90814C0F601EE0DFF1D60816A3010F4C0
:100EF000605D01C0695CD101ED91FC910190F081D0
:100F0000E02DC10109950894E108F1086E147F04F1
:100F100049F7A0960FB6F894DEBF0FBECDBFCF91B4
:100F2000DF911F910F91FF90EF90DF90CF90BF90D6
:100F3000AF909F908F907F906F905F904F903F9079
:100F40002F900895EF92FF920F931F93CF93DF930B
:100F5000EC017A018B0177FF0FC0E881F9810190E4
:100F6000F081E02D6DE2099510950095F094E094E4
:100F7000E11CF11C011D111D2AE0B801A701CE01E1
:100F80000E940A07DF91CF911F910F91FF90EF9080
:100F90000895AB01662757FD6095762F0E94A20742
:100FA00008951F920F920FB60F9211242F933F9323
:100FB0004F935F936F937F938F939F93AF93BF9361
:100FC000EF93FF938091910190919201892B29F0E9
:100FD000E0919101F09192010995FF91EF91BF91FC
:100FE000AF919F918F917F916F915F914F913F91C1
:100FF0002F910F900FBE0F901F9018951F920F9278
:101000000FB60F9211242F933F934F935F936F93DB
:101010007F938F939F93AF93BF93EF93FF938091B1
:10102000930190919401892B29F0E0919301F09123
:1010300094010995FF91EF91BF91AF919F918F918D
:101040007F916F915F914F913F912F910F900FBEC4
:101050000F901F9018951F920F920FB60F921124A8
:101060002F938F939F93AF93BF938091950190910E
:101070009601A0919701B09198010196A11DB11D13
:101080008093950190939601A0939701B093980156
:101090008091990190919A01A0919B01B0919C013E
:1010A0008050904CAF4FBF4F8093990190939A011D
:1010B000A0939B01B0939C0127C0809199019091CE
:1010C0009A01A0919B01B0919C0180589E43A04041
:1010D000B0408093990190939A01A0939B01B093A3
:1010E0009C0180919D0190919E01A0919F01B091E2
:1010F000A0010196A11DB11D80939D0190939E01B9
:10110000A0939F01B093A0018091990190919A01C1
:10111000A0919B01B0919C0181589E43A040B0409A
:1011200060F6BF91AF919F918F912F910F900FBE5D
:101130000F901F901895EF92FF920F931F937B01D2
:101140008C018FB7F89440919D0150919E01609160
:101150009F017091A0018FBF2FB7F89480919D01DE
:1011600090919E01A0919F01B091A0012FBF841B7F
:10117000950BA60BB70BE816F9060A071B0760F7D5
:101180001F910F91FF90EF900895019759F0FC0186
:10119000EE0FFF1FEE0FFF1F32978FB7F8943197B6
:1011A000F1F78FBF0895789484B5826084BD84B5CB
:1011B000816084BD85B5826085BD85B5816085BD52
:1011C000EEE6F0E0808181608083E1E8F0E08081FC
:1011D00082608083808181608083E0E8F0E08081AC
:1011E00081608083E1EBF0E0808184608083E0EBCC
:1011F000F0E0808181608083EAE7F0E080818460B4
:10120000808380818260808380818160808380810F
:10121000806880831092C1000895282F30E0C901B2
:1012200087559F4FFC0194912B563F4FF9018491B4
:10123000882381F0E82FF0E0EA57FF4FE491F0E0D7
:10124000662329F480819095892380830895808185
:10125000892B80830895482F50E0CA0183549F4F03
:10126000FC012491CA0187559F4FFC0194914B5674
:101270005F4FFA0134913323C1F1222331F123303E
:1012800021F4809180008F7705C0243031F4809163
:1012900080008F7D8093800018C0213019F484B5C0
:1012A0008F7704C0223021F484B58F7D84BD0DC0BA
:1012B000263021F48091B0008F7705C0273029F4C3
:1012C0008091B0008F7D8093B000E32FF0E0E55770
:1012D000FF4FE491F0E0662329F480819095892303
:1012E000808308958081892B80830895EF92FF92F7
:1012F0000F931F937B018C0122E030E040E050E02F
:101300000E94CC0C205C3D4B404F5F4FCA01B9019D
:10131000A80197010E94CC0CC901DA010197A1092B
:10132000B109292F3A2F4B2F552747FD5A95019682
:10133000A11DB11D2093C50081508093C400E1EC34
:10134000F0E08081806180838081886080838081FB
:10135000806880831F910F91FF90EF900895982FE0
:101360008091C00085FFFCCF9093C60008958091C6
:10137000A1019091A20180589F4F2091A30130912B
:10138000A401821B930B60E870E00E94970C089503
:101390004091A3015091A4018091A1019091A201DB
:1013A0008417950719F42FEF3FEF0FC0FA01EB55A3
:1013B000FE4F2081CA01019660E870E00E94970C00
:1013C0009093A4018093A30130E0C90108951F9276
:1013D0000F920FB60F9211242F933F934F935F9369
:1013E0006F937F938F939F93AF93BF93EF93FF93ED
:1013F0004091C600E091A101F091A201CF010196B8
:1014000060E870E00E94970C9C018091A30190918C
:10141000A4012817390739F0EB55FE4F408330936C
:10142000A2012093A101FF91EF91BF91AF919F91F4
:101430008F917F916F915F914F913F912F910F907D
:101440000FBE0F901F9018955058BB27AA270ED09B
:101450003DC1FDD030F002D120F031F49F3F11F4B6
:101460001EF4F2C00EF4E095E7FBE8C0E92F50D17E
:1014700080F3BA17620773078407950718F071F4B1
:101480009EF568C10EF4E0950B2EBA2FA02D0B012E
:10149000B90190010C01CA01A0011124FF27591BB9
:1014A00099F0593F50F4503E68F11A16F040A22FBF
:1014B000232F342F4427585FF3CF46953795279530
:1014C000A795F0405395C9F77EF41F16BA0B620B2F
:1014D000730B840BBAF09150A1F0FF0FBB1F661F76
:1014E000771F881FC2F70EC0BA0F621F731F841FB9
:1014F00048F4879577956795B795F7959E3F08F0DF
:10150000B3CF9395880F08F09927EE0F979587959D
:101510000895ACD0E395EBC004D06894B1111BC121
:101520000895FED088F09F5790F0B92F9927B751B2
:10153000A0F0D1F0660F771F881F991F1AF0BA9597
:10154000C9F712C0B13081F005D1B1E0089502C1F0
:10155000672F782F8827B85F39F0B93FCCF386958D
:1015600077956795B395D9F73EF4909580957095EA
:1015700061957F4F8F4F9F4F0895E89409C097FB67
:101580003EF490958095709561957F4F8F4F9F4F5A
:101590009923A9F0F92F96E9BB279395F69587959E
:1015A00077956795B795F111F8CFFAF4BB0F11F461
:1015B00060FF1BC06F5F7F4F8F4F9F4F16C0882308
:1015C00011F096E911C0772321F09EE8872F762F3E
:1015D00005C0662371F096E8862F70E060E02AF07F
:1015E0009A95660F771F881FDAF7880F969587956B
:1015F00097F90895990F0008550FAA0BE0E8FEEF40
:1016000016161706E807F907C0F012161306E407C6
:10161000F50798F0621B730B840B950B39F40A26BF
:1016200061F0232B242B252B21F408950A2609F49D
:10163000A140A6958FEF811D811D089597F99F67A1
:1016400080E870E060E008959FEF80EC089500244A
:101650000A941616170618060906089500240A9417
:1016600012161306140605060895EECF59D0E8F3B6
:10167000E894EFEFBB273FE048EC5FE76B3D730773
:101680008407950708F1FF279F57B25A6A4D7F409C
:10169000894CF04032F4BE556542704F8643FF4F8F
:1016A0000894EE1F915030F0BB0F661F771F881F04
:1016B000FF1FEBCF9EE7882332F0BB0F661F771F1B
:1016C000881F9A95C1F79395E095B8C0092E0394A9
:1016D000000C11F4882352F0BB0F40F4BF2B11F41F
:1016E00060FF04C06F5F7F4F8F4F9F4F0895EF9350
:1016F000E0FF06C0A2EA2AED3FE049EC5FEBB6DE70
:10170000E5DF0F90039401FC9058E8E6F0E0A6C0F6
:1017100057FD9058440F551F59F05F3F71F04795A2
:10172000880F97FB991F61F09F3F79F08795089587
:10173000121613061406551FF2CF4695F1DF08C0A6
:10174000161617061806991FF1CF869571056105C3
:1017500008940895E894BB2766277727CB0197F96B
:10176000089548DF08F48FEF08950BD0AFCF6FDFF7
:1017700028F074DF18F0952309F060CF65CF1124AD
:10178000EACFC6DFA0F3959FD1F3950F50E0551F28
:10179000629FF001729FBB27F00DB11D639FAA27C6
:1017A000F00DB11DAA1F649F6627B00DA11D661F15
:1017B000829F2227B00DA11D621F739FB00DA11D36
:1017C000621F839FA00D611D221F749F3327A00DF0
:1017D000611D231F849F600D211D822F762F6A2F8C
:1017E00011249F5750408AF0E1F088234AF0EE0F11
:1017F000FF1FBB1F661F771F881F91505040A9F71E
:101800009E3F510570F01ACFA6CF5F3FECF3983E94
:10181000DCF3869577956795B795F795E7959F5F84
:10182000C1F7FE2B880F911D9695879597F908951E
:101830009F931CDF0F9007FCEE5F59CF9F3F49F04D
:10184000915028F4869577956795B7959F5F803876
:101850009F4F880F9695879597F908959F938F933B
:101860007F936F93FF93EF939B01AC017EDFEF912A
:10187000FF9105D02F913F914F915F9176CFDF93EC
:10188000CF931F930F93FF92EF92DF927B018C0116
:10189000689405C0DA2EEF0174DFFE01E894A5918B
:1018A0002591359145915591AEF3EF01DFDDFE01B4
:1018B0009701A801DA9479F7DF90EF90FF900F91EC
:1018C0001F91CF91DF910895629FD001739FF00126
:1018D000829FE00DF11D649FE00DF11D929FF00DC0
:1018E000839FF00D749FF00D659FF00D9927729FF7
:1018F000B00DE11DF91F639FB00DE11DF91FBD0182
:10190000CF0111240895AA1BBB1B51E107C0AA1FD8
:10191000BB1FA617B70710F0A61BB70B881F991F90
:101920005A95A9F780959095BC01CD01089597FB34
:10193000092E07260AD077FD04D0E5DF06D0002067
:101940001AF4709561957F4F0895F6F790958195FB
:101950009F4F0895A1E21A2EAA1BBB1BFD010DC0CB
:10196000AA1FBB1FEE1FFF1FA217B307E407F5074F
:1019700020F0A21BB30BE40BF50B661F771F881F2B
:10198000991F1A9469F760957095809590959B01C1
:10199000AC01BD01CF01089597FB092E05260ED09D
:1019A00057FD04D0D7DF0AD0001C38F4509540957D
:1019B000309521953F4F4F4F5F4F0895F6F7909523
:1019C0008095709561957F4F8F4F9F4F0895EE0FD3
:0E19D000FF1F0590F491E02D0994F894FFCFCD
:1019DE0043673A20002043643A20002053703A2097
:1019EE00000700050002000600040003000100DBF2
:0E19FE000F494000C02A4400000000CC060043
:00000001FF
