:100000000C945B000C9483000C9483000C9483008C
:100010000C9483000C9483000C9483000C94830054
:100020000C9483000C9483000C9483000C94830044
:100030000C9483000C9483000C9483000C94830034
:100040000C94D7010C9483000C94B4030C9483009B
:100050000C9483000C9483000C9483000C94830014
:100060000C9483000C948300000024272A000025B0
:10007000282B000023262904040404040404040299
:100080000202020202030303030303010204081035
:100090002040800102040810200102040810200002
:1000A0000000070002010000030406000000000039
:1000B00000000000D60111241FBECFEFD4E0DEBF48
:1000C000CDBF11E0A0E0B1E0E0E7FAE002C00590AA
:1000D0000D92A230B107D9F711E0A2E0B1E001C062
:1000E0001D92AF38B107E1F710E0C6EBD0E004C0D5
:1000F0002297FE010E943305C43BD107C9F70E9435
:10010000FF000C9437050C9400000F931F93CF93BE
:10011000DF938BE00E94A302EC018091000190919B
:1001200001018130910569F42097E1F40E94FC01FE
:100130006093020170930301809304019093050181
:1001400011C0892B79F4209719F0C130D10551F4F1
:100150000E94FC0120910201309103018B01021BDE
:10016000130B02C000E010E0D0930101C093000126
:1001700020E030E04FEF50E060E070E086E091E09A
:100180000E948901412F55276627772720E030E01C
:1001900086E091E00E948901A801662757FD6095DD
:1001A000762F50706070707020E030E086E091E053
:1001B0000E948901DF91CF911F910F91089560E016
:1001C0008BE00E94850261E08CE00E94850261E084
:1001D0008BE00E94EF0261E08CE00E94EF0240E8B9
:1001E00055E260E070E086E091E00E94D0018BE093
:1001F0000E94A302909301018093000108950E9440
:1002000043020E94DF000E948500FDCF08950895FB
:10021000CB01BA013327442755270E94FA030895DA
:100220002AE00E9408010895AB01662777270E9403
:1002300010010895862F0E94F2030895862F0E94D0
:10024000F20308950F931F938C016DE00E941E012D
:100250006AE0C8010E941E011F910F9108950F933B
:100260001F938C010E941001C8010E9422011F915E
:100270000F9108950F931F938C010E941401C801E0
:100280000E9422011F910F9108950F931F938C01DB
:100290000E941A01C8010E9422011F910F91089526
:1002A0000F931F938C010E941E01C8010E9422011E
:1002B0001F910F910895EF92FF920F931F93CF9389
:1002C000DF93EC017A018B0177FF0BC06DE20E9496
:1002D0001E0110950095F094E094E11CF11C011DA5
:1002E000111D2AE0B801A701CE010E940801DF918B
:1002F000CF911F910F91FF90EF9008950F931F934F
:100300008C010E945B01C8010E9422011F910F9184
:1003100008952115310521F4642F0E941E010895CE
:100320002A30310519F40E945B0108950E940801EA
:1003300008950F931F938C010E948901C8010E94A8
:1003400022011F910F910895AB01662757FD60951B
:10035000762F0E945B0108950F931F938C010E94DA
:10036000A401C8010E9422011F910F910895CB01A1
:100370000E94C00408950F931F938C010E94B7013F
:10038000C8010E9422011F910F9108950E94AB03A2
:1003900008950E948C0308950E947B039927089575
:1003A000CB01BA010E943A030895089508951F925F
:1003B0000F920FB60F9211248F939F93AF93BF9319
:1003C00080910B0190910C01A0910D01B0910E0153
:1003D0000196A11DB11D80930B0190930C01A09378
:1003E0000D01B0930E01BF91AF919F918F910F902E
:1003F0000FBE0F901F90189560910B0170910C012A
:1004000080910D0190910E0127E0660F771F881FE4
:10041000991F2A95D1F72DE730E040E050E00E9487
:10042000E004CA01B9010895AF92BF92CF92DF9262
:10043000EF92FF920F931F935B016C010E94FC01EE
:100440007B018C010E94FC016E197F09800B910BCE
:100450006A157B058C059D05A8F31F910F91FF90F0
:10046000EF90DF90CF90BF90AF900895019751F03B
:10047000880F991F880F991F02972FB7F89401973B
:10048000F1F72FBF0895789410920B0110920C0190
:1004900010920D0110920E0184B5826084BD84B566
:1004A000816084BD85B5826085BD85B5816085BD6F
:1004B000EEE6F0E0808181608083E1E8F0E0808119
:1004C00082608083808181608083E0E8F0E08081C9
:1004D00081608083E1EBF0E0808184608083E0EBE9
:1004E000F0E0808181608083EAE7F0E080818460D1
:1004F000808380818260808380818160808380812D
:10050000806880831092C1000895282F3327C90185
:1005100085579F4FFC01949129583F4FF9018491D1
:10052000882381F0E82FFF27E859FF4FE491FF2748
:10053000662329F4808190958923808308958081A2
:10054000892B80830895482F5527CA0181569F4FD4
:10055000FC012491CA0185579F4FFC019491495891
:100560005F4FFA013491332319F480E090E008954D
:10057000222331F1233021F4809180008F7705C050
:10058000243031F4809180008F7D8093800018C0EA
:10059000213019F484B58F7704C0223021F484B55A
:1005A0008F7D84BD0DC0263021F48091B0008F77FF
:1005B00005C0273029F48091B0008F7D8093B00072
:1005C000E32FFF27EE58FF4FE491FF27808120E0C3
:1005D00030E0892311F021E030E0C9010895482F6F
:1005E0005527CA0181569F4FFC012491CA018557A6
:1005F0009F4FFC01949149585F4FFA013491332386
:10060000C1F1222331F1233021F4809180008F77D2
:1006100005C0243031F4809180008F7D809380006C
:1006200018C0213019F484B58F7704C0223021F42A
:1006300084B58F7D84BD0DC0263021F48091B0003B
:100640008F7705C0273029F48091B0008F7D80938B
:10065000B000E32FFF27E359FF4FE491FF27662304
:1006600029F4808190958923808308958081892B46
:1006700080830895EF92FF920F931F937B018C016B
:1006800022E030E040E050E00E940205205C3D4B5B
:10069000404F5F4FCA01B901A80197010E940205AE
:1006A0002150304040405040BB2757FDBA95A52F00
:1006B000942F832F2F5F3F4F4F4F5F4F8093C50085
:1006C00021502093C400E1ECF0E0808180618083C0
:1006D0008081886080838081806880831F910F91F2
:1006E000FF90EF900895982F8091C00085FFFCCF78
:1006F0009093C60008958091070190910801209180
:10070000090130910A01821B930B80589F4F60E8CA
:1007100070E00E94CD0408954091090150910A01B2
:1007200080910701909108018417950719F48FEFC4
:100730009FEF0895FA01E15FFE4F2081CA01019603
:1007400060E870E00E94CD0490930A018093090153
:10075000822F992708958091090190910A01909321
:1007600008018093070108951F920F920FB60F9210
:1007700011242F933F934F935F936F937F938F93A6
:100780009F93AF93BF93EF93FF934091C600E09187
:100790000701F0910801CF01019660E870E00E9426
:1007A000CD049C018091090190910A012817390715
:1007B00039F0E15FFE4F4083309308012093070139
:1007C000FF91EF91BF91AF919F918F917F916F9129
:1007D0005F914F913F912F910F900FBE0F901F90FF
:1007E00018950895982F8091C00085FFFCCF9093B5
:1007F000C60008952F923F924F925F926F927F9220
:100800008F929F92AF92BF92CF92DF92EF92FF9220
:100810000F931F93CF93DF93CDB7DEB7A0970FB69B
:10082000F894DEBF0FBECDBF6B017C0129013A01F8
:10083000611571058105910541F48091C00085FF26
:10084000FCCF80E38093C60041C0882499245401E2
:100850001E010894211C311C8101080D191DC701BE
:10086000B601A30192010E94E004F801608308949C
:10087000811C911CA11CB11CC701B601A3019201EE
:100880000E94E00469017A012115310541055105F5
:1008900019F79E012F5F3F4F14C0089481089108FB
:1008A000A108B108F901E80DF91DE081EA3010F462
:1008B000E05D01C0E95C8091C00085FFFCCFE09362
:1008C000C60081149104A104B10439F7A0960FB6B3
:1008D000F894DEBF0FBECDBFDF91CF911F910F9176
:1008E000FF90EF90DF90CF90BF90AF909F908F9050
:1008F0007F906F905F904F903F902F90089520E1F0
:1009000030E040E050E00E94FA03089528E030E033
:1009100040E050E00E94FA03089522E030E040E019
:1009200050E00E94FA0308958091C00085FFFCCF3B
:100930008AE08093C6000895EF92FF920F931F9371
:100940007B018C0197FF0FC08091C00085FFFCCF19
:100950008DE28093C60010950095F094E094E11C20
:10096000F11C011D111D2AE030E040E050E0C801FB
:10097000B7010E94FA031F910F91FF90EF90089525
:10098000FC0107C08091C00085FFFCCF3196909399
:10099000C60090819923B1F7089597FB092E072689
:1009A0000AD077FD04D049D006D000201AF4709503
:1009B00061957F4F0895F6F7909581959F4F089523
:1009C000A1E21A2EAA1BBB1BFD010DC0AA1FBB1F53
:1009D000EE1FFF1FA217B307E407F50720F0A21BC5
:1009E000B30BE40BF50B661F771F881F991F1A9432
:1009F00069F760957095809590959B01AC01BD015C
:100A0000CF01089597FB092E05260ED057FD04D07F
:100A1000D7DF0AD0001C38F45095409530952195C9
:100A20003F4F4F4F5F4F0895F6F790958095709523
:100A300061957F4F8F4F9F4F0895AA1BBB1B51E1BC
:100A400007C0AA1FBB1FA617B70710F0A61BB70B3E
:100A5000881F991F5A95A9F780959095BC01CD01E3
:100A60000895EE0FFF1F0590F491E02D0994FFCF3C
:020A7000010083
:00000001FF
