:100000000C945C000C940B030C9438030C94840047
:100010000C9484000C9484000C9484000C94840050
:100020000C9484000C9484000C9484000C94840040
:100030000C9484000C9484000C9484000C94840030
:100040000C9465030C9484000C94C7040C948400F5
:100050000C9484000C9484000C9484000C94840010
:100060000C9484000C948400000024272A000025AE
:10007000282B000023262904040404040404040299
:100080000202020202030303030303010204081035
:100090002040800102040810200102040810200002
:1000A0000000070002010000030406000000000039
:1000B000000000005001E50111241FBECFEFD4E085
:1000C000DEBFCDBF11E0A0E0B1E0EEE1FBE002C099
:1000D00005900D92AC30B107D9F711E0ACE0B1E07A
:1000E00001C01D92A23BB107E1F710E0C8EBD0E0E0
:1000F00004C02297FE010E948905C43BD107C9F7BD
:100100000E94DE010C948D050C940000FC0110820D
:100110008FEF81830895EF92FF920F931F93CF93F8
:10012000DF93EC019B0177FF03C020E030E005C0C6
:10013000653B710514F024EB30E02983EA806B8184
:1001400070E06E197109882777FD8095982F982F98
:10015000872F762F662730E040E050E00E940405AC
:1001600024EB30E040E050E00E945805FF2400E01E
:1001700010E0102F0F2DFE2CEE24E20EF31E041FB4
:10018000151FC801B70128E030E040E050E00E94B0
:1001900058058881893029F430938900209388009C
:1001A00006C08A3021F430938B0020938A00DF91BF
:1001B000CF911F910F91FF90EF900895CF93DF9310
:1001C000EC01FB01CB010997029710F080E054C0CD
:1001D000CA0160E170E00E9423056A83C90160E101
:1001E00070E00E9423056B83E8838FEF898360E0D2
:1001F0008E2F0E943B0461E088810E941D04809143
:100200000C01882311F580910D018823F1F42FB79B
:10021000F89482E0809380008AE18093810088EBEB
:100220009BE0909389008093880090938B0080934B
:100230008A0080E49CE990938700809386008091F7
:100240006F00887F80936F002FBF8881893041F4D1
:1002500081E080930C01809180008F73806809C0D9
:100260008A3049F481E080930D01809180008F7C79
:1002700080628093800081E0DF91CF91089520E635
:1002800039E040E252E00E94DE00089580911401BE
:100290009091150101969093150180931401089592
:1002A0008EE091E00E948600089580911601909161
:1002B0001701A0911801B09119010097A105B1058E
:1002C00071F580911A0190911B01019690931B0189
:1002D00080931A010A9769F48091040190910501B5
:1002E0000196909305018093040110921B011092D6
:1002F0001A0160910401709105018EE091E00E9465
:100300008B0010921501109214010E94D503609386
:1003100016017093170180931801909319010E94A0
:10032000D503209116013091170140911801509189
:100330001901621B730B840B950B695E734080403F
:10034000904010F1109216011092170110921801AE
:100350001092190160910401709105018CE191E006
:100360000E94E30260E071E08CE191E00E94F501FF
:1003700060911401709115018CE191E00E94E302FB
:100380008CE191E00E940D02089540E855E260E0A2
:1003900070E08CE191E00E94F001609102017091A7
:1003A00003018EE091E00E943F0141E050E066E4ED
:1003B00071E0809112010E94EB0208950E94E30314
:1003C0000E94C5010E945501FDCF8AE091E0909303
:1003D0001D0180931C010895862F0E94BF0408957B
:1003E000CB01BA010E94860408950F931F93CF9307
:1003F000DF938C01EB0109C02196D801ED91FC91AE
:100400000190F081E02DC801099568816623A1F76C
:10041000DF91CF911F910F9108950F931F938C013E
:10042000DC01ED91FC910190F081E02D6DE00995EA
:10043000D801ED91FC910190F081E02D6AE0C801B6
:1004400009951F910F9108952F923F924F925F92BD
:100450006F927F928F929F92AF92BF92CF92DF92D4
:10046000EF92FF920F931F93DF93CF93CDB7DEB739
:10047000A0970FB6F894DEBF0FBECDBF1C016A0176
:100480007B01411551056105710549F4DC01ED91D0
:10049000FC910190F081E02D60E3099554C088241F
:1004A00099245401422E55246624772401E010E05B
:1004B0000C0F1D1F080D191DC701B601A3019201E4
:1004C0000E943605F80160830894811C911CA11CD0
:1004D000B11CC701B601A30192010E943605C901F2
:1004E000DA016C017D01C114D104E104F104F1F6DB
:1004F00081E0E82EF12CEC0EFD1EE80CF91C3E010B
:100500000894611C711CD501C4010197A109B109AE
:100510006C01C818D90814C0F601EE0DFF1D6081EA
:100520006A3010F4605D01C0695CD101ED91FC910D
:100530000190F081E02DC10109950894E108F108CE
:100540006E147F0449F7A0960FB6F894DEBF0FBE75
:10055000CDBFCF91DF911F910F91FF90EF90DF9072
:10056000CF90BF90AF909F908F907F906F905F9053
:100570004F903F902F900895EF92FF920F931F930B
:10058000CF93DF93EC017A018B0177FF0FC0E881F5
:10059000F9810190F081E02D6DE2099510950095AB
:1005A000F094E094E11CF11C011D111D2AE0B8013A
:1005B000A701CE010E942402DF91CF911F910F91DC
:1005C000FF90EF900895AB01662757FD6095762F59
:1005D0000E94BC0208958230E8F4E82FF0E0EE0FAC
:1005E000FF1FE25EFE4F71836083882341F4809198
:1005F00069008C7F842B80936900E89A089580912C
:100600006900440F551F440F551F837F842B80932F
:100610006900E99A08951F920F920FB60F92112464
:100620002F933F934F935F936F937F938F939F93FA
:10063000AF93BF93EF93FF9380911E0190911F01A1
:10064000892B29F0E0911E01F0911F010995FF917E
:10065000EF91BF91AF919F918F917F916F915F913A
:100660004F913F912F910F900FBE0F901F901895B3
:100670001F920F920FB60F9211242F933F934F9317
:100680005F936F937F938F939F93AF93BF93EF93FA
:10069000FF938091200190912101892B29F0E09115
:1006A0002001F09121010995FF91EF91BF91AF9148
:1006B0009F918F917F916F915F914F913F912F917A
:1006C0000F900FBE0F901F9018951F920F920FB6AC
:1006D0000F9211242F938F939F93AF93BF93809189
:1006E000220190912301A0912401B091250101964E
:1006F000A11DB11D8093220190932301A093240199
:10070000B09325018091260190912701A0912801A5
:10071000B09129018050904CAF4FBF4F809326017C
:1007200090932701A0932801B093290127C08091BD
:10073000260190912701A0912801B09129018058AC
:100740009E43A040B0408093260190932701A09340
:100750002801B093290180912A0190912B01A09149
:100760002C01B0912D010196A11DB11D80932A018C
:1007700090932B01A0932C01B0932D018091260121
:1007800090912701A0912801B091290181589E43A1
:10079000A040B04060F6BF91AF919F918F912F9193
:1007A0000F900FBE0F901F9018958FB7F89420915F
:1007B0002A0130912B0140912C0150912D018FBFC6
:1007C000B901CA010895789484B5826084BD84B566
:1007D000816084BD85B5826085BD85B5816085BD3C
:1007E000EEE6F0E0808181608083E1E8F0E08081E6
:1007F00082608083808181608083E0E8F0E0808196
:1008000081608083E1EBF0E0808184608083E0EBB5
:10081000F0E0808181608083EAE7F0E0808184609D
:1008200080838081826080838081816080838081F9
:10083000806880831092C1000895282F30E0C9019C
:1008400085579F4FFC01949129583F4FF90184919E
:10085000882381F0E82FF0E0E859FF4FE491F0E0C1
:10086000662329F48081909589238083089580816F
:10087000892B80830895482F50E0CA0181569F4FED
:10088000FC012491CA0185579F4FFC01949149585E
:100890005F4FFA0134913323C1F1222331F1233028
:1008A00021F4809180008F7705C0243031F480914D
:1008B00080008F7D8093800018C0213019F484B5AA
:1008C0008F7704C0223021F484B58F7D84BD0DC0A4
:1008D000263021F48091B0008F7705C0273029F4AD
:1008E0008091B0008F7D8093B000E32FF0E0E3595A
:1008F000FF4FE491F0E0662329F4808190958923ED
:10090000808308958081892B80830895EF92FF92E0
:100910000F931F937B018C0122E030E040E050E018
:100920000E945805205C3D4B404F5F4FCA01B90102
:10093000A80197010E945805C901DA010197A10990
:10094000B109292F3A2F4B2F552747FD5A9501966C
:10095000A11DB11D2093C50081508093C400E1EC1E
:10096000F0E08081806180838081886080838081E5
:10097000806880831F910F91FF90EF900895982FCA
:100980008091C00085FFFCCF9093C60008951F9210
:100990000F920FB60F9211242F933F934F935F93B3
:1009A0006F937F938F939F93AF93BF93EF93FF9337
:1009B0004091C600E0912E01F0912F01CF010196E8
:1009C00060E870E00E9423059C01809130019091C5
:1009D00031012817390739F0EE5CFE4F4083309320
:1009E0002F0120932E01FF91EF91BF91AF919F9125
:1009F0008F917F916F915F914F913F912F910F90C8
:100A00000FBE0F901F901895629FD001739FF00149
:100A1000829FE00DF11D649FE00DF11D929FF00D8E
:100A2000839FF00D749FF00D659FF00D9927729FC5
:100A3000B00DE11DF91F639FB00DE11DF91FBD0150
:100A4000CF011124089597FB092E07260AD077FDC0
:100A500004D049D006D000201AF4709561957F4FDC
:100A60000895F6F7909581959F4F0895A1E21A2E6B
:100A7000AA1BBB1BFD010DC0AA1FBB1FEE1FFF1F42
:100A8000A217B307E407F50720F0A21BB30BE40B92
:100A9000F50B661F771F881F991F1A9469F76095D9
:100AA0007095809590959B01AC01BD01CF01089593
:100AB00097FB092E05260ED057FD04D0D7DF0AD0AC
:100AC000001C38F450954095309521953F4F4F4F7D
:100AD0005F4F0895F6F790958095709561957F4FDB
:100AE0008F4F9F4F0895AA1BBB1B51E107C0AA1F40
:100AF000BB1FA617B70710F0A61BB70B881F991FBF
:100B00005A95A9F780959095BC01CD010895EE0FF7
:0E0B1000FF1F0590F491E02D0994F894FFCF9B
:0C0B1E0009000A00500000000000EC017B
:00000001FF
