:100000000C9436000C948A070C94B7070C945E008D
:100010000C945E000C945E000C945E000C945E00E8
:100020000C945E000C945E000C945E000C945E00D8
:100030000C945E000C945E000C945E000C945E00C8
:100040000C94E4070C945E000C9425090C945E005B
:100050000C945E000C945E000C945E000C945E00A8
:100060000C94A9020C945E00A201700611241FBE1C
:10007000CFEFD4E0DEBFCDBF11E0A0E0B1E0E4EB14
:10008000F6E102C005900D92A632B107D9F711E052
:10009000A6E2B1E001C01D92A33FB107E1F710E075
:1000A000CCE6D0E004C02297FE010E94540BC83673
:1000B000D107C9F70E94EF040C94580B0C94000070
:1000C0000F931F93CF93DF93689F8001699F100D5B
:1000D000789F100D1124C8010E947C00EC0100974C
:1000E00029F0A80160E070E00E947E01CE01DF915E
:1000F000CF911F910F910895CF93DF93BC01823070
:10010000910510F462E070E0A091F101B091F2016C
:10011000ED01E0E0F0E040E050E021C0888199810D
:100120008617970769F48A819B81309719F093832A
:10013000828304C09093F2018093F101FE0134C0E8
:100140006817790738F44115510519F08417950798
:1001500008F4AC01FE018A819B819C01E901209792
:10016000E9F641155105A9F1CA01861B970B0497C1
:1001700008F4BA01E0E0F0E02AC08D919C9111975B
:1001800084179507F9F46417750781F412968D9119
:100190009C911397309719F09383828304C09093B6
:1001A000F2018093F101FD0132964CC0CA01861B19
:1001B000970BFD01E80FF91F6193719302978D93DF
:1001C0009C9340C0FD01828193819C01D9011097CD
:1001D000A1F68091EF019091F001892B41F480917B
:1001E0001B0190911C019093F0018093EF014091CD
:1001F0001D0150911E014115510541F44DB75EB7E7
:100200008091190190911A01481B590B2091EF011F
:100210003091F001CA01821B930B8617970780F07B
:10022000AB014E5F5F4F8417950750F0420F531F8D
:100230005093F0014093EF01F9016193719302C073
:10024000E0E0F0E0CF01DF91CF910895CF93DF930D
:10025000009709F450C0EC0122971B821A82A091EA
:10026000F101B091F201109709F140E050E0AC17B4
:10027000BD0708F1BB83AA83FE0121913191E20FF2
:10028000F31FAE17BF0779F48D919C911197280F3A
:10029000391F2E5F3F4F3983288312968D919C9191
:1002A00013979B838A834115510571F4D093F20112
:1002B000C093F10120C012968D919C911397AD01CE
:1002C000009711F0DC01D3CFFA01D383C2832191CF
:1002D0003191E20FF31FCE17DF0769F4888199810E
:1002E000280F391F2E5F3F4FFA01318320838A8107
:1002F0009B8193838283DF91CF910895DC0101C0BC
:100300006D9341505040E0F7089581E080932F01B4
:1003100060932A0110922D0110922E010895909160
:10032000280180912901981710F080E00895E0914C
:100330002601F0912701E90FF11D80819F5F9093C5
:10034000280108950895DF93CF930F92CDB7DEB7BC
:10035000698380912F018823A9F080912E0180323A
:10036000B0F480912D01E0912B01F0912C01E80F68
:10037000F11D608380912D018F5F80932D0180930B
:100380002E0105C061E0CE0101960E948C020F9003
:10039000CF91DF9108950E94A301089560912B01F0
:1003A00070912C0121E040912E0180912A010E9440
:1003B000470210922D0110922E0110922F010895E4
:1003C000862F413208F040E26091260170912701AA
:1003D0000E941102109228018093290108950E9421
:1003E000E001089561E070E080E290E00E9460002A
:1003F00080932601909327011092280110922901E1
:1004000061E070E080E290E00E94600080932B0148
:1004100090932C0110922D0110922E010E942B041A
:100420000895982F413210F040E02FC080913101A3
:100430008823E1F781E0809331018FEF80934201BF
:100440001092390140933A01990F916090933201D3
:1004500085EE8093BC00809131018130E1F3809181
:100460003901841710F440913901A0913701B091FE
:10047000380120E030E007C0FB01E20FF31F8D914F
:1004800080832F5F3F4F2417B8F3842F08951F9365
:10049000582F122F413210F081E03CC08091310181
:1004A0008823E1F782E0809331018FEF809342014E
:1004B0001092390140933A01A0913701B09138016F
:1004C000FB0102C081918D938E2F861B8417D0F380
:1004D000852F90E0880F991F8093320185EE8093DD
:1004E000BC00112321F0809131018230E1F3809131
:1004F00042018F3F11F480E00DC0809142018032B3
:1005000011F482E007C080914201803311F084E051
:1005100001C083E01F910895482F613210F081E0FF
:10052000089580913101843011F082E00895609344
:100530003E01A0913B01B0913C01842F9C01F90147
:1005400002C081918D938E2F841B8617D0F380E09B
:1005500008951F920F920FB60F9211242F933F937D
:100560004F935F936F937F938F939F93AF93BF93BB
:10057000EF93FF938091B90090E0887F9070803670
:10058000910509F4E2C081369105CCF588329105D8
:1005900009F47BC089329105B4F48031910509F4E6
:1005A0006FC0813191053CF4009709F438C1089778
:1005B00009F040C165C08831910509F466C0809793
:1005C00009F038C17FC08034910509F4A3C081349B
:1005D000910544F48033910509F47FC0C89709F070
:1005E00029C186C08035910509F486C088359105FA
:1005F00009F495C08834910509F01CC19EC0883962
:10060000910509F404C189399105ECF48837910505
:1006100009F49BC0893791054CF48836910509F49B
:1006200094C08037910509F005C18FC088389105C5
:1006300009F4EDC08039910509F48DC08038910529
:1006400009F0F8C088C0803B910509F4B2C0813B35
:1006500091054CF4803A910509F491C0883A9105CE
:1006600009F0E8C0A6C0803C910509F4D4C0883CDC
:10067000910509F4D0C0883B910509F0DBC0B1C0F9
:10068000809132018093BB00C0C09091390180916C
:100690003A01981778F490913901E0913701F0917F
:1006A0003801E90FF11D80818093BB009F5F90931B
:1006B0003901ABC085ED8093BC008091BC0084FD06
:1006C000FCCFB6C080E28093420185ED8093BC00F0
:1006D0008091BC0084FDFCCFABC080E380934201DD
:1006E00085ED8093BC008091BC0084FDFCCFA0C050
:1006F00088E3809342018FC0809139019091BB00C3
:10070000E0913701F0913801E80FF11D90838F5F80
:10071000809339019091390180913A0174C08091A0
:1007200039019091BB00E0913701F0913801E80F59
:10073000F11D90838F5F8093390185ED8093BC001C
:100740008091BC0084FDFCCF73C083E080933101B5
:10075000109241015AC080914101803208F057C087
:10076000809141019091BB00E0913F01F0914001E7
:10077000E80FF11D90838F5F8093410146C0809107
:100780004101803248F480914101E0913F01F091B4
:100790004001E80FF11D108260914101E0913501A7
:1007A000F091360170E080913F01909140010995F0
:1007B00032C084E08093310110923D0110923E01DD
:1007C000E0913301F0913401099580913E01882335
:1007D00041F481E080933E01E0913B01F0913C01C6
:1007E000108290913D01E0913B01F0913C01E90FB5
:1007F000F11D80818093BB009F5F90933D0190919C
:100800003D0180913E01981710F485EC01C085E808
:100810008093BC000FC085EC8093BC0009C010928F
:10082000420185ED8093BC008091BC0084FDFCCF2B
:1008300010923101FF91EF91BF91AF919F918F91F4
:100840007F916F915F914F913F912F910F900FBECC
:100850000F901F90189510923101449A459AE9EB38
:10086000F0E080818E7F808380818D7F808388E42B
:100870008093B80085E48093BC0061E070E080E282
:1008800090E00E946000809337019093380161E00E
:1008900070E080E290E00E94600080933B019093C2
:1008A0003C0161E070E080E290E00E946000809393
:1008B0003F01909340010895EF92FF920F931F9391
:1008C00083E491E00E940A050E945408AB01BC0138
:1008D00009E511E0C8010E94470780E0E82E81E0A9
:1008E000F82EB701C8010E9480060E945408609348
:1008F0005501709356018093570190935801609170
:100900004F0170915001C8010E947207B701C801E0
:100910000E9480066091510170915201C8010E94AD
:100920007207B701C8010E9480066091530170915F
:100930005401C8010E947207B701C8010E948006D5
:1009400080E00E94C608BC01C8010E947207B7017E
:10095000C8010E94800681E00E94C608BC01C8014F
:100960000E947207B701C8010E948006C8010E9458
:1009700098066AE070E080E090E00E9462081F91B3
:100980000F91FF90EF9008950F931F9387B18C60A4
:1009900087B94298439A64E670E080E090E00E9454
:1009A000620840E052EC61E070E089E591E00E946D
:1009B0007B0680E391E00E94F20103E411E0C801AC
:1009C0000E94570660E0C8010E94630568EE73E06C
:1009D00080E090E00E9462081F910F9108950E94AC
:1009E0008C080E94C4040E945C04FDCF0F931F93E7
:1009F00000E311E062E570E0C8010E94850160E05B
:100A000070E0C8010E94CB01C8010E94CE011F9175
:100A10000F9108950F931F93CF93DF938C010E9442
:100A2000F60446E050E062E570E080E391E00E9469
:100A3000EF01C0E0D0E080E391E00E948F01F80177
:100A4000EC0FFD1F80832196C630D105A1F7F80178
:100A5000208130E086819781281B390B838190E0CB
:100A60009595879595958795982F8827280F391FF5
:100A700035872487218130E080859185281B390BBB
:100A8000848190E09595879595958795982F8827EF
:100A9000280F391F37872687228130E0828593858A
:100AA000281B390B858190E09595879595958795BD
:100AB000982F8827280F391F318B208BDF91CF91FA
:100AC0001F910F9108952F923F924F925F926F92D4
:100AD0007F928F929F92AF92BF92CF92DF92EF92CE
:100AE000FF920F931F93DF93CF9300D00F92CDB758
:100AF000DEB78C016983EE24FF24C8010E94F6044E
:100B000046E050E062E570E080E391E00E94EF0192
:100B10001B821A8280E391E00E948F01EA81FB81AF
:100B2000E00FF11F80838A819B8101969B838A83DA
:100B3000069781F7F801638170E075956795759563
:100B40006795762F66272081620F711D882777FDB4
:100B50008095982F0E94620A9B01AC01C601B501E5
:100B60000E9463095B016C01F801648170E0759576
:100B7000679575956795762F66272181620F711DA0
:100B8000882777FD8095982F0E94620A9B01AC010F
:100B9000C401B3010E9463093B014C01F801658166
:100BA00070E07595679575956795762F6627228114
:100BB000620F711D882777FD8095982F0E94620A29
:100BC0009B01AC01C201B1010E9463091B012C0110
:100BD0000894E11CF11CF4E6EF16F10409F08DCF46
:100BE00020E030E048EC52E4C601B5010E94C7099C
:100BF0000E942F0AF8017783668320E030E048ECFA
:100C000052E4C401B3010E94C7090E942F0AF801EF
:100C10007187608720E030E048EC52E4C201B10106
:100C20000E94C7090E942F0AF80173876287F98121
:100C3000FF2339F162E071E089E591E00E948006CE
:100C4000F8016681778189E591E00E94720768E08A
:100C500071E089E591E00E948006F8016085718568
:100C600089E591E00E94720761E171E089E591E018
:100C70000E948006F8016285738589E591E00E94F3
:100C80007A070F900F900F90CF91DF911F910F91E6
:100C9000FF90EF90DF90CF90BF90AF909F908F909C
:100CA0007F906F905F904F903F902F9008950F939B
:100CB0001F9300E311E063E570E0C8010E94850125
:100CC0006EEF70E0C8010E94CB0164E070E0C801E3
:100CD0000E94CB01C8010E94CE011F910F9108957F
:100CE00084E291E090935A01809359010895862FF0
:100CF0000E941D090895CB01BA010E94E4080895DD
:100D00000F931F93CF93DF938C01EB0109C02196C2
:100D1000D801ED91FC910190F081E02DC801099579
:100D200068816623A1F7DF91CF911F910F910895FC
:100D30000F931F938C01DC01ED91FC910190F081E8
:100D4000E02D6DE00995D801ED91FC910190F081C5
:100D5000E02D6AE0C80109951F910F9108952F9227
:100D60003F924F925F926F927F928F929F92AF923B
:100D7000BF92CF92DF92EF92FF920F931F93DF9378
:100D8000CF93CDB7DEB7A0970FB6F894DEBF0FBEF6
:100D9000CDBF1C016A017B0141155105610571053B
:100DA00049F4DC01ED91FC910190F081E02D60E3CC
:100DB000099554C0882499245401422E5524662450
:100DC000772401E010E00C0F1D1F080D191DC7014D
:100DD000B601A30192010E94010BF80160830894FF
:100DE000811C911CA11CB11CC701B601A301920179
:100DF0000E94010BC901DA016C017D01C114D1040B
:100E0000E104F104F1F681E0E82EF12CEC0EFD1E78
:100E1000E80CF91C3E010894611C711CD501C40149
:100E20000197A109B1096C01C818D90814C0F601CD
:100E3000EE0DFF1D60816A3010F4605D01C0695CD9
:100E4000D101ED91FC910190F081E02DC101099556
:100E50000894E108F1086E147F0449F7A0960FB6D4
:100E6000F894DEBF0FBECDBFCF91DF911F910F91E0
:100E7000FF90EF90DF90CF90BF90AF909F908F90BA
:100E80007F906F905F904F903F902F9008952AE051
:100E90000E94AF060895EF92FF920F931F93CF9396
:100EA000DF93EC017A018B0177FF0FC0E881F981B4
:100EB0000190F081E02D6DE2099510950095F09478
:100EC000E094E11CF11C011D111D2AE0B801A701ED
:100ED000CE010E94AF06DF91CF911F910F91FF903D
:100EE000EF900895AB01662757FD6095762F0E941D
:100EF0004B0708950F931F938C01AB01662757FD95
:100F00006095762F0E944B07C8010E9498061F919A
:100F10000F9108951F920F920FB60F9211242F93E5
:100F20003F934F935F936F937F938F939F93AF9371
:100F3000BF93EF93FF9380915B0190915C01892BAC
:100F400029F0E0915B01F0915C010995FF91EF912F
:100F5000BF91AF919F918F917F916F915F914F91D1
:100F60003F912F910F900FBE0F901F9018951F92D9
:100F70000F920FB60F9211242F933F934F935F93CD
:100F80006F937F938F939F93AF93BF93EF93FF9351
:100F900080915D0190915E01892B29F0E0915D01C6
:100FA000F0915E010995FF91EF91BF91AF919F91F3
:100FB0008F917F916F915F914F913F912F910F9002
:100FC0000FBE0F901F9018951F920F920FB60F92A1
:100FD00011242F938F939F93AF93BF9380915F01C1
:100FE00090916001A0916101B09162010196A11DF3
:100FF000B11D80935F0190936001A0936101B09354
:1010000062018091630190916401A0916501B091AA
:1010100066018050904CAF4FBF4F80936301909317
:101020006401A0936501B093660127C080916301BC
:1010300090916401A0916501B091660180589E4332
:10104000A040B0408093630190936401A093650138
:10105000B09366018091670190916801A091690148
:10106000B0916A010196A11DB11D80936701909313
:101070006801A0936901B0936A0180916301909126
:101080006401A0916501B091660181589E43A04022
:10109000B04060F6BF91AF919F918F912F910F90CB
:1010A0000FBE0F901F9018958FB7F894209167018D
:1010B000309168014091690150916A018FBFB90177
:1010C000CA010895EF92FF920F931F937B018C0149
:1010D0008FB7F89440916701509168016091690160
:1010E00070916A018FBF2FB7F8948091670190913A
:1010F0006801A0916901B0916A012FBF841B950B13
:10110000A60BB70BE816F9060A071B0760F71F9135
:101110000F91FF90EF900895789484B5826084BD1C
:1011200084B5816084BD85B5826085BD85B58160EB
:1011300085BDEEE6F0E0808181608083E1E8F0E04B
:10114000808182608083808181608083E0E8F0E03C
:10115000808181608083E1EBF0E080818460808326
:10116000E0EBF0E0808181608083EAE7F0E080815D
:1011700084608083808182608083808181608083BD
:101180008081806880831092C10008958F70909153
:101190001F019295990F990F907C982B90937C004A
:1011A00080917A00806480937A0080917A0086FD35
:1011B000FCCF2091780040917900942F80E030E0BE
:1011C000282B392BC9010895EF92FF920F931F939B
:1011D0007B018C0122E030E040E050E00E94230BD4
:1011E000205C3D4B404F5F4FCA01B901A8019701F8
:1011F0000E94230BC901DA010197A109B109292F26
:101200003A2F4B2F552747FD5A950196A11DB11D29
:101210002093C50081508093C400E1ECF0E0808110
:101220008061808380818860808380818068808302
:101230001F910F91FF90EF900895982F8091C0001B
:1012400085FFFCCF9093C60008951F920F920FB6B2
:101250000F9211242F933F934F935F936F937F933C
:101260008F939F93AF93BF93EF93FF934091C600EB
:10127000E0916B01F0916C01CF01019660E870E0A4
:101280000E94EE0A9C0180916D0190916E012817D9
:10129000390739F0E159FE4F408330936C012093B8
:1012A0006B01FF91EF91BF91AF919F918F917F91D2
:1012B0006F915F914F913F912F910F900FBE0F90C3
:1012C0001F9018955058BB27AA270ED04DC13ED16C
:1012D00030F043D120F031F49F3F11F41EF433C1BC
:1012E0000EF4E095E7FB29C1E92F4FD180F3BA173F
:1012F000620773078407950718F071F49EF567C1BC
:101300000EF4E0950B2EBA2FA02D0B01B901900120
:101310000C01CA01A0011124FF27591B99F0593F64
:1013200050F4503E68F11A16F040A22F232F342FAC
:101330004427585FF3CF469537952795A795F040FA
:101340005395C9F77EF41F16BA0B620B730B840B0F
:10135000BAF09150A1F0FF0FBB1F661F771F881FC7
:10136000C2F70EC0BA0F621F731F841F48F487951F
:1013700077956795B795F7959E3F08F0B3CF93950E
:10138000880F08F09927EE0F9795879508950CD050
:10139000EBC0E3D040F0DAD030F021F45F3F19F039
:1013A000CCC0511115C1CFC0F0D098F39923C9F327
:1013B0005523B1F3951B550BBB27AA27621773075B
:1013C000840738F09F5F5F4F220F331F441FAA1F0F
:1013D000A9F333D00E2E3AF0E0E830D091505040CF
:1013E000E695001CCAF729D0FE2F27D0660F771F7D
:1013F000881FBB1F261737074807AB07B0E809F05F
:10140000BB0B802DBF01FF2793585F4F2AF09E3FF3
:10141000510568F092C0DCC05F3FECF3983EDCF30E
:10142000869577956795B795F7959F5FC9F7880F6C
:10143000911D9695879597F90895E1E0660F771FBE
:10144000881FBB1F621773078407BA0720F0621B4F
:10145000730B840BBA0BEE1F88F7E095089504D048
:101460006894B111B5C0089598D088F09F5790F056
:10147000B92F9927B751A0F0D1F0660F771F881FB9
:10148000991F1AF0BA95C9F712C0B13081F09FD0F8
:10149000B1E008959CC0672F782F8827B85F39F096
:1014A000B93FCCF3869577956795B395D9F73EF418
:1014B00090958095709561957F4F8F4F9F4F0895C0
:1014C000E89409C097FB3EF49095809570956195DE
:1014D0007F4F8F4F9F4F9923A9F0F92F96E9BB2794
:1014E0009395F695879577956795B795F111F8CF10
:1014F000FAF4BB0F11F460FF1BC06F5F7F4F8F4F7B
:101500009F4F16C0882311F096E911C0772321F070
:101510009EE8872F762F05C0662371F096E8862F08
:1015200070E060E02AF09A95660F771F881FDAF75F
:10153000880F9695879597F9089597F99F6780E8A2
:1015400070E060E008959FEF80EC089500240A9415
:101550001616170618060906089500240A9412168E
:101560001306140605060895092E0394000C11F4C1
:10157000882352F0BB0F40F4BF2B11F460FF04C06E
:101580006F5F7F4F8F4F9F4F089557FD9058440FC7
:10159000551F59F05F3F71F04795880F97FB991FD2
:1015A00061F09F3F79F0879508951216130614068F
:1015B000551FF2CF4695F1DF08C01616170618061C
:1015C000991FF1CF86957105610508940895E894F7
:1015D000BB2766277727CB0197F9089597FB092E3C
:1015E00007260AD077FD04D049D006D000201AF48F
:1015F000709561957F4F0895F6F7909581959F4F6F
:101600000895A1E21A2EAA1BBB1BFD010DC0AA1F43
:10161000BB1FEE1FFF1FA217B307E407F50720F05B
:10162000A21BB30BE40BF50B661F771F881F991FD6
:101630001A9469F760957095809590959B01AC011F
:10164000BD01CF01089597FB092E05260ED057FD49
:1016500004D0D7DF0AD0001C38F45095409530955F
:1016600021953F4F4F4F5F4F0895F6F79095809526
:10167000709561957F4F8F4F9F4F0895AA1BBB1B9D
:1016800051E107C0AA1FBB1FA617B70710F0A61B82
:10169000B70B881F991F5A95A9F780959095BC01A3
:1016A000CD010895EE0FFF1F0590F491E02D0994F0
:0416B000F894FFCFDC
:1016B4002C00596177303A00205069746368303ADD
:1016C4000020526F6C6C303A002000F301000001DE
:0616D40000000000770693
:00000001FF
