:100000000C9435000C9495010C94C2010C945D0085
:100010000C945D000C945D000C945D000C945D00EC
:100020000C945D000C945D000C945D000C945D00DC
:100030000C945D000C945D000C945D000C945D00CC
:100040000C94EF010C945D000C9434030C945D004F
:100050000C945D000C945D000C945D000C945D00AC
:100060000C945D000C945D00990011241FBECFEF2D
:10007000D4E0DEBFCDBF11E0A0E0B1E0EAEBF7E0F5
:1000800002C005900D92A630B107D9F711E0A6E0A5
:10009000B1E001C01D92AE39B107E1F710E0CAE648
:1000A000D0E004C02297FE010E94D703C836D107D2
:1000B000C9F70E9492000C94DB030C94000060913D
:1000C0000601709107016F5F7F4F70930701609386
:1000D000060188E091E00E94850168EC70E080E014
:1000E00090E00E945F0288E091E00E94A7008823D0
:1000F00049F088E091E00E94A4008237910511F454
:100100000C940000089540E855E260E070E088E05B
:1001100091E00E94AA008AE090E09093070180930A
:10012000060108950E9489020E9483000E945F00D8
:10013000FDCF84E091E09093090180930801089538
:10014000862F0E94FC0208950E94150308950E94C4
:1001500004030895CB01BA010E94C30208950F93CE
:100160001F938C01DC01ED91FC910190F081E02D59
:100170006DE00995D801ED91FC910190F081E02DA1
:100180006AE0C80109951F910F9108952F923F923F
:100190004F925F926F927F928F929F92AF92BF9297
:1001A000CF92DF92EF92FF920F931F93DF93CF9343
:1001B000CDB7DEB7A0970FB6F894DEBF0FBECDBFA8
:1001C0001C016A017B01411551056105710549F466
:1001D000DC01ED91FC910190F081E02D60E3099547
:1001E00054C0882499245401422E5524662477242F
:1001F00001E010E00C0F1D1F080D191DC701B6010D
:10020000A30192010E948403F80160830894811C79
:10021000911CA11CB11CC701B601A30192010E944F
:100220008403C901DA016C017D01C114D104E10428
:10023000F104F1F681E0E82EF12CEC0EFD1EE80C45
:10024000F91C3E010894611C711CD501C401019781
:10025000A109B1096C01C818D90814C0F601EE0D46
:10026000FF1D60816A3010F4605D01C0695CD101DE
:10027000ED91FC910190F081E02DC1010995089468
:10028000E108F1086E147F0449F7A0960FB6F894C0
:10029000DEBF0FBECDBFCF91DF911F910F91FF90B9
:1002A000EF90DF90CF90BF90AF909F908F907F9016
:1002B0006F905F904F903F902F900895EF92FF9234
:1002C0000F931F93CF93DF93EC017A018B0177FF9C
:1002D0000FC0E881F9810190F081E02D6DE2099570
:1002E00010950095F094E094E11CF11C011D111D86
:1002F0002AE0B801A701CE010E94C600DF91CF918C
:100300001F910F91FF90EF9008950F931F938C0111
:10031000AB01662757FD6095762F0E945E01C801EC
:100320000E94AF001F910F9108951F920F920FB678
:100330000F9211242F933F934F935F936F937F936B
:100340008F939F93AF93BF93EF93FF9380910A0195
:1003500090910B01892B29F0E0910A01F0910B019A
:100360000995FF91EF91BF91AF919F918F917F91EF
:100370006F915F914F913F912F910F900FBE0F9012
:100380001F9018951F920F920FB60F9211242F9362
:100390003F934F935F936F937F938F939F93AF930D
:1003A000BF93EF93FF9380910C0190910D01892BE6
:1003B00029F0E0910C01F0910D010995FF91EF9169
:1003C000BF91AF919F918F917F916F915F914F916D
:1003D0003F912F910F900FBE0F901F9018951F9275
:1003E0000F920FB60F9211242F938F939F93AF9379
:1003F000BF9380910E0190910F01A0911001B091D7
:1004000011010196A11DB11D80930E0190930F0162
:10041000A0931001B09311018091120190911301EA
:10042000A0911401B09115018050904CAF4FBF4F77
:100430008093120190931301A0931401B0931501BE
:1004400027C08091120190911301A0911401B091E5
:10045000150180589E43A040B040809312019093B4
:100460001301A0931401B09315018091160190918E
:100470001701A0911801B09119010196A11DB11D9C
:100480008093160190931701A0931801B09319015E
:100490008091120190911301A0911401B091150166
:1004A00081589E43A040B04060F6BF91AF919F91AC
:1004B0008F912F910F900FBE0F901F901895EF9274
:1004C000FF920F931F937B018C018FB7F89440919B
:1004D00016015091170160911801709119018FBF99
:1004E0002FB7F8948091160190911701A0911801EF
:1004F000B09119012FBF841B950BA60BB70BE81603
:10050000F9060A071B0760F71F910F91FF90EF9004
:100510000895789484B5826084BD84B5816084BD7B
:1005200085B5826085BD85B5816085BDEEE6F0E06C
:10053000808181608083E1E8F0E080818260808357
:10054000808181608083E0E8F0E080818160808349
:10055000E1EBF0E0808184608083E0EBF0E080817B
:1005600081608083EAE7F0E080818460808380811D
:1005700082608083808181608083808180688083C5
:100580001092C1000895EF92FF920F931F937B0189
:100590008C0122E030E040E050E00E94A603205CA5
:1005A0003D4B404F5F4FCA01B901A80197010E941E
:1005B000A603C901DA010197A109B109292F3A2F30
:1005C0004B2F552747FD5A950196A11DB11D20932C
:1005D000C50081508093C400E1ECF0E0808180612F
:1005E00080838081886080838081806880831F9180
:1005F0000F91FF90EF900895982F8091C00085FF94
:10060000FCCF9093C600089580911A0190911B0130
:1006100080589F4F20911C0130911D01821B930B2C
:1006200060E870E00E947103089540911C015091B0
:100630001D0180911A0190911B018417950719F4EF
:100640002FEF3FEF0FC0FA01E25EFE4F2081CA019B
:10065000019660E870E00E94710390931D01809301
:100660001C0130E0C90108951F920F920FB60F923E
:1006700011242F933F934F935F936F937F938F93A7
:100680009F93AF93BF93EF93FF934091C600E09188
:100690001A01F0911B01CF01019660E870E00E9401
:1006A00071039C0180911C0190911D01281739074D
:1006B00039F0E25EFE4F408330931B0120931A0114
:1006C000FF91EF91BF91AF919F918F917F916F912A
:1006D0005F914F913F912F910F900FBE0F901F9000
:1006E000189597FB092E07260AD077FD04D049D02C
:1006F00006D000201AF4709561957F4F0895F6F7A3
:10070000909581959F4F0895A1E21A2EAA1BBB1BBD
:10071000FD010DC0AA1FBB1FEE1FFF1FA217B307CD
:10072000E407F50720F0A21BB30BE40BF50B661FE3
:10073000771F881F991F1A9469F7609570958095A7
:1007400090959B01AC01BD01CF01089597FB092E47
:1007500005260ED057FD04D0D7DF0AD0001C38F490
:1007600050954095309521953F4F4F4F5F4F0895DD
:10077000F6F790958095709561957F4F8F4F9F4FBD
:100780000895AA1BBB1B51E107C0AA1FBB1FA617D8
:10079000B70710F0A61BB70B881F991F5A95A9F72A
:1007A00080959095BC01CD010895EE0FFF1F059037
:0A07B000F491E02D0994F894FFCFB6
:0607BA0000000000A00099
:00000001FF
