:100000000C945B000C9499010C94C6010C94830031
:100010000C9483000C9483000C9483000C94830054
:100020000C9483000C9483000C9483000C94830044
:100030000C9483000C9483000C9483000C94830034
:100040000C94F3010C9483000C94D7030C9483005C
:100050000C9483000C9483000C9483000C94830014
:100060000C9483000C948300000024272A000025B0
:10007000282B000023262904040404040404040299
:100080000202020202030303030303010204081035
:100090002040800102040810200102040810200002
:1000A0000000070002010000030406000000000039
:1000B000000000004F0111241FBECFEFD4E0DEBFCF
:1000C000CDBF11E0A0E0B1E0E2E8F9E002C00590A8
:1000D0000D92AE30B107D9F711E0AEE0B1E001C04A
:1000E0001D92A63AB107E1F710E0C6EBD0E004C0DC
:1000F0002297FE010E94BB04C43BD107C9F70E94AE
:1001000048010C94BF040C94000080910E01909162
:100110000F01019690930F0180930E018F3F91057F
:1001200029F024F010920F0110920E0180910E011F
:1001300090910F01BC0133E0660F771F3A95E1F70C
:10014000880F991F680F791F83E00E94D50264E62B
:1001500070E080E090E00E9463020895CF93DF9307
:1001600060E082E00E942D0360E087E00E942D03A2
:1001700060E084E00E942D0361E086E00E942D0390
:1001800061E085E00E942D0361E083E00E942D0381
:1001900061E08BE00E942D0361E08AE00E942D0364
:1001A00061E089E00E942D0361E088E00E942D0358
:1001B00061E08CE00E942D0361E08DE00E942D0340
:1001C00061E086E00E944B0361E085E00E944B0302
:1001D00061E08BE00E944B0361E08AE00E944B03E8
:1001E00061E089E00E944B0360E088E00E944B03DD
:1001F0002FEF41E06CE08DE00E94140461E088E0A4
:100200000E944B03C0E0D0E061E083E00E944B031A
:1002100084E690E00E948D0260E083E00E944B0340
:10022000219681E0C43FD80779F760E086E00E941C
:100230004B0360E085E00E944B0360E08BE00E948E
:100240004B0360E08AE00E944B0360E089E00E947B
:100250004B0360E088E00E944B0320E041E06CE04B
:100260008DE00E94140461E088E00E944B0340E8A6
:1002700055E260E070E080E191E00E945A0160E0A8
:1002800071E080E191E00E948E01DF91CF910895AD
:100290000E949B020E94AE000E948500FDCF8CE070
:1002A00091E090931101809310010895862F0E9490
:1002B000CF030895CB01BA010E94960308950F93CE
:1002C0001F93CF93DF938C01EB0109C02196D801D6
:1002D000ED91FC910190F081E02DC80109956881B4
:1002E0006623A1F7DF91CF911F910F9108950F938E
:1002F0001F938C01DC01ED91FC910190F081E02DC8
:100300006DE00995D801ED91FC910190F081E02D0F
:100310006AE0C80109951F910F9108950F931F93EB
:100320008C010E945F01C8010E9477011F910F910B
:1003300008951F920F920FB60F9211242F933F939F
:100340004F935F936F937F938F939F93AF93BF93DD
:10035000EF93FF938091120190911301892B29F063
:10036000E0911201F09113010995FF91EF91BF9176
:10037000AF919F918F917F916F915F914F913F913D
:100380002F910F900FBE0F901F9018951F920F92F4
:100390000FB60F9211242F933F934F935F936F9358
:1003A0007F938F939F93AF93BF93EF93FF9380912E
:1003B000140190911501892B29F0E0911401F0911D
:1003C00015010995FF91EF91BF91AF919F918F9189
:1003D0007F916F915F914F913F912F910F900FBE41
:1003E0000F901F9018951F920F920FB60F92112425
:1003F0002F938F939F93AF93BF938091160190910A
:100400001701A0911801B09119010196A11DB11D0C
:100410008093160190931701A0931801B0931901CE
:1004200080911A0190911B01A0911C01B0911D01B6
:100430008050904CAF4FBF4F80931A0190931B0197
:10044000A0931C01B0931D0127C080911A019091C7
:100450001B01A0911C01B0911D0180589E43A0403A
:10046000B04080931A0190931B01A0931C01B0939C
:100470001D0180911E0190911F01A0912001B0915A
:1004800021010196A11DB11D80931E0190931F01B2
:10049000A0932001B093210180911A0190911B013A
:1004A000A0911C01B0911D0181589E43A040B04015
:1004B00060F6BF91AF919F918F912F910F900FBEDA
:1004C0000F901F901895EF92FF920F931F937B014F
:1004D0008C018FB7F89440911E0150911F016091DB
:1004E0002001709121018FBF2FB7F89480911E01D8
:1004F00090911F01A0912001B09121012FBF841B79
:10050000950BA60BB70BE816F9060A071B0760F751
:100510001F910F91FF90EF900895019759F0FC0102
:10052000EE0FFF1FEE0FFF1F32978FB7F894319732
:10053000F1F78FBF0895789484B5826084BD84B547
:10054000816084BD85B5826085BD85B5816085BDCE
:10055000EEE6F0E0808181608083E1E8F0E0808178
:1005600082608083808181608083E0E8F0E0808128
:1005700081608083E1EBF0E0808184608083E0EB48
:10058000F0E0808181608083EAE7F0E08081846030
:10059000808380818260808380818160808380818C
:1005A000806880831092C10008951F93CF93DF93DA
:1005B000182FEB0161E00E942D03E12FF0E0E156DE
:1005C000FF4F8491833051F4809180008068809344
:1005D0008000D0938900C09388003BC0843051F4E0
:1005E00080918000806280938000D0938B00C093C4
:1005F0008A002FC0813039F4209729F184B58068B2
:1006000084BDC7BD26C0823039F42097E1F084B59F
:10061000806284BDC8BD1DC0863041F48091B000A9
:1006200080688093B000C093B30013C0873041F45A
:100630008091B00080628093B000C093B40009C084
:10064000C038D10514F460E001C061E0812F0E9440
:100650004B03DF91CF911F910895282F30E0C901FE
:1006600085579F4FFC01949129583F4FF901849180
:10067000882381F0E82FF0E0E859FF4FE491F0E0A3
:10068000662329F480819095892380830895808151
:10069000892B80830895482F50E0CA0181569F4FCF
:1006A000FC012491CA0185579F4FFC019491495840
:1006B0005F4FFA0134913323C1F1222331F123300A
:1006C00021F4809180008F7705C0243031F480912F
:1006D00080008F7D8093800018C0213019F484B58C
:1006E0008F7704C0223021F484B58F7D84BD0DC086
:1006F000263021F48091B0008F7705C0273029F48F
:100700008091B0008F7D8093B000E32FF0E0E3593B
:10071000FF4FE491F0E0662329F4808190958923CE
:10072000808308958081892B80830895EF92FF92C2
:100730000F931F937B018C0122E030E040E050E0FA
:100740000E948A04205C3D4B404F5F4FCA01B901B3
:10075000A80197010E948A04C901DA010197A10941
:10076000B109292F3A2F4B2F552747FD5A9501964E
:10077000A11DB11D2093C50081508093C400E1EC00
:10078000F0E08081806180838081886080838081C7
:10079000806880831F910F91FF90EF900895982FAC
:1007A0008091C00085FFFCCF9093C60008951F92F2
:1007B0000F920FB60F9211242F933F934F935F9395
:1007C0006F937F938F939F93AF93BF93EF93FF9319
:1007D0004091C600E0912201F0912301CF010196E2
:1007E00060E870E00E9455049C0180912401909182
:1007F00025012817390739F0EA5DFE4F4083309311
:10080000230120932201FF91EF91BF91AF919F911E
:100810008F917F916F915F914F913F912F910F90A9
:100820000FBE0F901F901895BF92CF92DF92EF925C
:10083000FF920F931F93CF93DF93E82EF62EB42EE3
:10084000C0E0D0E0022F10E087E0C82ED12CBB2002
:1008500041F4B8010C2E02C0759567950A94E2F731
:100860000AC0B6016C1B7D0BC80102C09595879527
:100870006A95E2F7BC0161708E2D0E944B0361E026
:100880008F2D0E944B0360E08F2D0E944B03219619
:10089000C830D105E1F6DF91CF911F910F91FF9004
:1008A000EF90DF90CF90BF90089597FB092E072619
:1008B0000AD077FD04D049D006D000201AF47095F4
:1008C00061957F4F0895F6F7909581959F4F089514
:1008D000A1E21A2EAA1BBB1BFD010DC0AA1FBB1F44
:1008E000EE1FFF1FA217B307E407F50720F0A21BB6
:1008F000B30BE40BF50B661F771F881F991F1A9423
:1009000069F760957095809590959B01AC01BD014C
:10091000CF01089597FB092E05260ED057FD04D070
:10092000D7DF0AD0001C38F45095409530952195BA
:100930003F4F4F4F5F4F0895F6F790958095709514
:1009400061957F4F8F4F9F4F0895AA1BBB1B51E1AD
:1009500007C0AA1FBB1FA617B70710F0A61BB70B2F
:10096000881F991F5A95A9F780959095BC01CD01D4
:100970000895EE0FFF1F0590F491E02D0994F8946F
:02098000FFCFA7
:0E098200737461727465640000000000560119
:00000001FF
