:100000000C945C000C94DD020C940A030C948400A4
:100010000C9484000C9484000C9484000C94840050
:100020000C9484000C9484000C9484000C94840040
:100030000C9484000C9484000C9484000C94840030
:100040000C9437030C9484000C94D9040C94840011
:100050000C9484000C9484000C9484000C94840010
:100060000C9484000C948400000024272A000025AE
:10007000282B000023262904040404040404040299
:100080000202020202030303030303010204081035
:100090002040800102040810200102040810200002
:1000A0000000070002010000030406000000000039
:1000B000000000004601DB0111241FBECFEFD4E099
:1000C000DEBFCDBF11E0A0E0B1E0E2E4FBE002C0A2
:1000D00005900D92AE30B107D9F711E0AEE0B1E076
:1000E00001C01D92AC3AB107E1F710E0C8EBD0E0D7
:1000F00004C02297FE010E949B05C43BD107C9F7AB
:100100000E94D4010C949F050C940000FC01108205
:100110008FEF81830895EF92FF920F931F93CF93F8
:10012000DF93EC019B0177FF03C020E030E005C0C6
:10013000653B710514F024EB30E02983EA806B8184
:1001400070E06E197109882777FD8095982F982F98
:10015000872F762F662730E040E050E00E9416059A
:1001600024EB30E040E050E00E946A05FF2400E00C
:1001700010E0102F0F2DFE2CEE24E20EF31E041FB4
:10018000151FC801B70128E030E040E050E00E94B0
:100190006A058881893029F430938900209388008A
:1001A00006C08A3021F430938B0020938A00DF91BF
:1001B000CF911F910F91FF90EF900895CF93DF9310
:1001C000EC01FB01CB010997029710F080E054C0CD
:1001D000CA0160E170E00E9435056A83C90160E1EF
:1001E00070E00E9435056B83E8838FEF898360E0C0
:1001F0008E2F0E941D0461E088810E94FF03809180
:100200000E01882311F580910F018823F1F42FB797
:10021000F89482E0809380008AE18093810088EBEB
:100220009BE0909389008093880090938B0080934B
:100230008A0080E49CE990938700809386008091F7
:100240006F00887F80936F002FBF8881893041F4D1
:1002500081E080930E01809180008F73806809C0D7
:100260008A3049F481E080930F01809180008F7C77
:1002700080628093800081E0DF91CF91089520E635
:1002800039E040E252E00E94DE00089580E191E012
:100290000E9486000895EF92FF920F931F9380E0D3
:1002A0000E94E1037C0120E030E04FEF50E060E08D
:1002B00070E086E191E00E94C8024F2D5527662725
:1002C00057FD6095762F20E030E086E191E00E94B6
:1002D000C8020027F7FC0095102F8FEF90E0A0E0F8
:1002E000B0E0E822F9220A231B2320E030E0B80125
:1002F000A70186E191E00E94C80286E191E00E9498
:10030000E901882399F186E191E00E94E601482FF6
:10031000803364F18A331CF0833741F51BC0809130
:100320001401909115019C0163E0220F331F6A951F
:10033000E1F7880F991F280F391F20533040842F71
:10034000992787FD9095280F391F30931501209329
:1003500014010CC0609114017091150180E191E0CD
:100360000E948B0010921501109214011F910F91A1
:10037000FF90EF9008950F931F9369E070E080E184
:1003800091E00E943F0106E111E040E056E960E0A3
:1003900070E0C8010E94EC0160E071E0C8010E94B9
:1003A000F1011F910F9108950E94A7030E94BB01C4
:1003B0000E944B01FDCF8BE091E090931701809359
:1003C00016010895862F0E94A10408950E94BA0480
:1003D00008950E94A9040895CB01BA010E946804FF
:1003E00008950F931F93CF93DF938C01EB0109C006
:1003F0002196D801ED91FC910190F081E02DC8018A
:10040000099568816623A1F7DF91CF911F910F9124
:1004100008952F923F924F925F926F927F928F92A8
:100420009F92AF92BF92CF92DF92EF92FF920F9383
:100430001F93DF93CF93CDB7DEB7A0970FB6F89495
:10044000DEBF0FBECDBF1C016A017B014115510506
:100450006105710549F4DC01ED91FC910190F08199
:10046000E02D60E3099554C0882499245401422E5C
:1004700055246624772401E010E00C0F1D1F080DA1
:10048000191DC701B601A30192010E944805F80198
:1004900060830894811C911CA11CB11CC701B6018A
:1004A000A30192010E944805C901DA016C017D0196
:1004B000C114D104E104F104F1F681E0E82EF12C3D
:1004C000EC0EFD1EE80CF91C3E010894611C711C29
:1004D000D501C4010197A109B1096C01C818D90857
:1004E00014C0F601EE0DFF1D60816A3010F4605DEE
:1004F00001C0695CD101ED91FC910190F081E02D8A
:10050000C10109950894E108F1086E147F0449F7C8
:10051000A0960FB6F894DEBF0FBECDBFCF91DF918E
:100520001F910F91FF90EF90DF90CF90BF90AF9011
:100530009F908F907F906F905F904F903F902F9003
:100540000895EF92FF920F931F93CF93DF93EC01E7
:100550007A018B0177FF0FC0E881F9810190F0816A
:10056000E02D6DE2099510950095F094E094E11C62
:10057000F11C011D111D2AE0B801A701CE010E9446
:100580000902DF91CF911F910F91FF90EF90089595
:10059000DC012115310541F4ED91FC910190F081D0
:1005A000E02D642F099508952A30310519F40E9431
:1005B000A10208950E94090208951F920F920FB69A
:1005C0000F9211242F933F934F935F936F937F93D9
:1005D0008F939F93AF93BF93EF93FF9380911801F5
:1005E00090911901892B29F0E0911801F0911901DE
:1005F0000995FF91EF91BF91AF919F918F917F915D
:100600006F915F914F913F912F910F900FBE0F907F
:100610001F9018951F920F920FB60F9211242F93CF
:100620003F934F935F936F937F938F939F93AF937A
:10063000BF93EF93FF9380911A0190911B01892B37
:1006400029F0E0911A01F0911B010995FF91EF91BA
:10065000BF91AF919F918F917F916F915F914F91DA
:100660003F912F910F900FBE0F901F9018951F92E2
:100670000F920FB60F9211242F938F939F93AF93E6
:10068000BF9380911C0190911D01A0911E01B0911A
:100690001F010196A11DB11D80931C0190931D01A6
:1006A000A0931E01B0931F01809120019091210120
:1006B000A0912201B09123018050904CAF4FBF4FC9
:1006C0008093200190932101A0932201B0932301F4
:1006D00027C08091200190912101A0912201B09129
:1006E000230180589E43A040B04080932001909306
:1006F0002101A0932201B0932301809124019091C4
:100700002501A0912601B09127010196A11DB11DDF
:100710008093240190932501A0932601B093270193
:100720008091200190912101A0912201B09123019B
:1007300081589E43A040B04060F6BF91AF919F9119
:100740008F912F910F900FBE0F901F901895789456
:1007500084B5826084BD84B5816084BD85B58260C6
:1007600085BD85B5816085BDEEE6F0E08081816064
:100770008083E1E8F0E08081826080838081816015
:100780008083E0E8F0E0808181608083E1EBF0E04D
:10079000808184608083E0EBF0E0808181608083F1
:1007A000EAE7F0E0808184608083808182608083DA
:1007B0008081816080838081806880831092C10005
:1007C00008958F70909106019295990F990F907CE2
:1007D000982B90937C0080917A00806480937A00BB
:1007E00080917A0086FDFCCF2091780040917900BD
:1007F000942F80E030E0282B392BC9010895282F51
:1008000030E0C90185579F4FFC01949129583F4F13
:10081000F9018491882381F0E82FF0E0E859FF4F37
:10082000E491F0E0662329F4808190958923808308
:1008300008958081892B80830895482F50E0CA0154
:1008400081569F4FFC012491CA0185579F4FFC019F
:10085000949149585F4FFA0134913323C1F1222317
:1008600031F1233021F4809180008F7705C024304E
:1008700031F4809180008F7D8093800018C02130FA
:1008800019F484B58F7704C0223021F484B58F7DAC
:1008900084BD0DC0263021F48091B0008F7705C053
:1008A000273029F48091B0008F7D8093B000E32F32
:1008B000F0E0E359FF4FE491F0E0662329F48081F2
:1008C00090958923808308958081892B8083089562
:1008D000EF92FF920F931F937B018C0122E030E097
:1008E00040E050E00E946A05205C3D4B404F5F4F66
:1008F000CA01B901A80197010E946A05C901DA017C
:100900000197A109B109292F3A2F4B2F552747FDF0
:100910005A950196A11DB11D2093C5008150809369
:10092000C400E1ECF0E08081806180838081886098
:1009300080838081806880831F910F91FF90EF906A
:100940000895982F8091C00085FFFCCF9093C6003A
:100950000895809128019091290180589F4F2091FE
:100960002A0130912B01821B930B60E870E00E94FA
:100970003505089540912A0150912B01809128015D
:10098000909129018417950719F42FEF3FEF0FC0BD
:10099000FA01E45DFE4F2081CA01019660E870E033
:1009A0000E94350590932B0180932A0130E0C90104
:1009B00008951F920F920FB60F9211242F933F9319
:1009C0004F935F936F937F938F939F93AF93BF9357
:1009D000EF93FF934091C600E0912801F091290127
:1009E000CF01019660E870E00E9435059C0180917E
:1009F0002A0190912B012817390739F0E45DFE4F49
:100A000040833093290120932801FF91EF91BF91FA
:100A1000AF919F918F917F916F915F914F913F9196
:100A20002F910F900FBE0F901F901895629FD001CD
:100A3000739FF001829FE00DF11D649FE00DF11D99
:100A4000929FF00D839FF00D749FF00D659FF00D48
:100A50009927729FB00DE11DF91F639FB00DE11D35
:100A6000F91FBD01CF011124089597FB092E072618
:100A70000AD077FD04D049D006D000201AF4709532
:100A800061957F4F0895F6F7909581959F4F089552
:100A9000A1E21A2EAA1BBB1BFD010DC0AA1FBB1F82
:100AA000EE1FFF1FA217B307E407F50720F0A21BF4
:100AB000B30BE40BF50B661F771F881F991F1A9461
:100AC00069F760957095809590959B01AC01BD018B
:100AD000CF01089597FB092E05260ED057FD04D0AF
:100AE000D7DF0AD0001C38F45095409530952195F9
:100AF0003F4F4F4F5F4F0895F6F790958095709553
:100B000061957F4F8F4F9F4F0895AA1BBB1B51E1EB
:100B100007C0AA1FBB1FA617B70710F0A61BB70B6D
:100B2000881F991F5A95A9F780959095BC01CD0112
:100B30000895EE0FFF1F0590F491E02D0994F894AD
:020B4000FFCFE5
:0E0B42005265616479000100000000E20100CC
:00000001FF
